:100000000C94B1050C94CE050C94CE050C94CE0541
:100010000C94CE050C94CE050C94CE050C94CE0514
:100020000C94CE050C94CE050C943C150C94A11B9D
:100030000C94B92C0C94CE050C94CE050C94CE05E2
:100040000C94CE050C94CE050C94CE050C94CE05E4
:100050000C94CE050C9415160C94CE050C94CE057C
:100060000C94CE050C94CE050C94CE050C94CE05C4
:100070000C94CE050C94CE050C94CE050C94CE05B4
:100080000C94CE050C94CE050C94CE050C94CE05A4
:100090000C94CE050C94CE050C94CE050C94CE0594
:1000A0000C94CE050C94CE050C94CE0505010902E6
:1000B000A10185020901A1000509190129081500FE
:1000C0002501950875018102050109300931158165
:1000D000257F95027508810609381581257F9501D0
:1000E00075088106050C0A38021581257F95017572
:1000F000088106C0C005010980A101850319012AF4
:10010000B700150126B700950175108100C0050CD8
:100110000901A101850419012AA002150126A002E6
:10012000950175108100C005010906A1018506052C
:100130000719E029E71500250195087501810205D9
:1001400007190029EF1500250195F07501810205B9
:10015000081901290595057501910295017503910D
:1001600001C00660FF0961A1010962150026FF00B8
:100170009520750881020963150026FF00952075FA
:10018000089102C005010906A101050719E029E748
:1001900015002501950875018102950175088101F9
:1001A0000507190029FF150026FF0095067508812F
:1001B000000508190129059505750191029501753C
:1001C000039101C0000000000000000000000000DA
:1001D000000000000000000000000000000000001F
:1001E00000000000000000007E0F00D4FFFFFFC7EA
:1001F0000000007800000000000000002A2B28000A
:1002000000000000000000000000000000000029C5
:10021000000000002C1E3420212224342627252E05
:10022000362D3738271E1F2021222324252633333D
:10023000362E37381F0405060708090A0B0C0D0E69
:100240000F101112131415161718191A1B1C1D2F35
:100250003130232D350405060708090A0B0C0D0E55
:100260000F101112131415161718191A1B1C1D2F15
:100270003130354C0103E1000102E1000103E100EE
:100280000102E00101170103E0010435307C0102A5
:10029000E001010F0103E0000102E101011F010380
:1002A000E1010435307C0102E101011F0103E1019C
:1002B0000435307C01015000010134010435307CEB
:1002C000010134010435307C010150000102E101DB
:1002D00001360103E1010435307C0102E1010137FF
:1002E0000103E1010435307C010150000102E1010C
:1002F000012F0103E1010435307C0102E1010130ED
:100300000103E1010435307C0101500001012F019E
:100310000435307C010130010435307C010150008E
:100320000102E10101260103E1010435307C0102F3
:10033000E10101270103E1010435307C0101500096
:100340000103E10001014C000103E10001014C0047
:100350000103E10001014D000103E10001014A0038
:1003600001014A010436307C010128010436307C49
:10037000010152010436307C0102E0010119010340
:10038000E0000103E10001014A010436307C010173
:1003900028010436307C0101520001014A01043673
:1003A000307C0102E101014D0103E1010436307CA2
:1003B0000102E00101060103E0000103E100010187
:1003C0004A010436307C0102E101014D0103E101E3
:1003D0000436307C01012A0001014A010436307CD8
:1003E0000102E101014D0103E1010436307C01010C
:1003F0002A0001014D010436307C01012801043638
:10040000307C0102E00101190103E0000103E10079
:1004100001014D010436307C010128000103E10097
:100420000102E101014D0103E1010436307C0101CB
:100430002A002B042B012961E100E00000001E00CE
:10044000140004001D00640036021F001A0016008C
:100450001B0000572B002000080007000600E200E8
:100460002C00210015000900190001582F0222005C
:1004700017000A00050000002602230046000000C5
:10048000B05D00002F002400AE5D0000145000009D
:10049000300025001C000B00110000002702260080
:1004A00018000D0010000258300227000C000E004A
:1004B000360034002A002D0012000F0037001F0202
:1004C00028002E0013003300380032003702035397
:1004D0000007E300E1004C0000000100AC00010057
:1004E0000100010000003A001A01BB5D010001009B
:1004F000C15D3B004F011601BC5D010001003C00E5
:100500000F014C01B25D010001003D001C01010022
:10051000C55D0100C05D3E00C45D01575001000093
:10052000BE5D3F000100000001000000BF5D400013
:100530000100000001000000010041000601500020
:1005400001000000010042001D01510001000100F6
:1005500001004300BA5D52000100C25D2A0144005F
:10056000B35D4F000100C35D01004500B45DAE0006
:100570000901C45C01000100AB0001000100C35C83
:1005800000000100AC0001000100010000001E019C
:100590001A014D000100FD004B001F014F01160123
:1005A000BD5DFE00500920010F01B55DB65DFF0085
:1005B000F1002101150101004900010001002201A3
:1005C0000100025750010000FB002301460000001B
:1005D00001000000FA0024010100000001000000F9
:1005E000F9002501B75DEF0001000000FC002601C5
:1005F0001D01EE00010001000100A8004A00ED000D
:1006000001000100F200AA00B85DF0000100010045
:100610004F09A900B95DAE00090101004E000100BB
:10062000AB00010001000100000001000100010019
:100630000100CD5C000059004C0001000100CC5CC1
:10064000C75C5A00F10016011B01C95C01005B0088
:100650000F05F200FD00010001005C00150105011D
:10066000FE00C85CCB5C5D0001000100FF000000E3
:10067000FB005E000100000001000000FA005F00C6
:100680000100000001000000F90060000601EF0019
:10069000AC000000FC0061001D01EE00AA0001009A
:1006A000CA5C62000100ED00A90001000100010028
:1006B0000100F000AB00010001005300190101002E
:1006C000A800AF5DC65C01000100C35C0100005CD6
:1006D0000000010001000100010001000000010014
:1006E0000100010001000100010001000100010002
:1006F00001000100010001000100010001000100F2
:100700002B0001000100010001002C00010001008C
:1007100001000100010000000100010001000000D3
:100720000100000001000100010000001050000065
:1007300001000100010001000100000001000100B2
:100740000100010001001150010001000100010041
:100750000100010001000100010001000100010091
:100760000100010001000100010001000100010081
:100770000100010001000100000000047F3F1F6430
:100780003214643214783C1E1E140A050001010163
:10079000010101010101020202020202020202033E
:1007A000030303030303030404040404040405050E
:1007B00005050506060606060707070707080808D1
:1007C00008090909090A0A0A0B0B0B0C0C0C0D0D80
:1007D0000D0E0E0E0F0F0F10101111111212131318
:1007E0001414151516161717181819191A1A1B1B91
:1007F0001C1D1D1E1E1F20202122222324242526ED
:1008000026272829292A2B2C2D2D2E2F3031323224
:10081000333435363738393A3B3C3D3E3F40414230
:10082000434445464748494A4C4D4E4F5051535416
:10083000555658595A5B5D5E5F61626465666869CA
:100840006B6C6D6F7072737577787A7B7D7E80824A
:10085000838587888A8C8E8F91939596989A9C9E93
:10086000A0A2A3A5A7A9ABADAFB1B3B5B7BABCBEA3
:10087000C0C2C4C6C9CBCDCFD1D4D6D8DBDDDFE270
:10088000E4E7E9EBEEF0F3F5F8FAFDFFFFAA7F5598
:10089000402223252628292A2C2D2F303233353685
:1008A000383A3B3D3E4042434547494A4C4E505101
:1008B000535557595A5C5E6062646668696B6D6F28
:1008C00071737577797B7D7F81838587898A8C8E2B
:1008D00090929496989A9C9E9FA1A3A5A7A8AAAC33
:1008E000AEAFB1B3B4B6B8B9BBBCBEBFC1C2C3C56D
:1008F000C6C7C9CACBCCCDCED0D1D2D2D3D4D5D60F
:10090000D7D7D8D9D9DADADBDBDBDCDCDCDCDCDD41
:10091000DDDDDDDCDCDCDCDCDBDBDBDADAD9D9D825
:10092000D7D7D6D5D4D3D2D2D1D0CECDCCCBCAC9BD
:10093000C7C6C5C3C2C1BFBEBCBBB9B8B6B4B3B1EC
:10094000AFAEACAAA8A7A5A3A19F9E9C9A98969487
:1009500092908E8C8A89878583817F7D7B7977755C
:1009600073716F6D6B6968666462605E5C5A59573B
:10097000555351504E4C4A4947454342403E3D3BFA
:100980003A3836353332302F2D2C2A292826252384
:10099000220A00000000000306B200080001000067
:1009A00000A800080002000300A000140003005784
:1009B000494E555342000000000000000000008432
:1009C00000040007002A0044006500760069006307
:1009D00000650049006E00740065007200660061E9
:1009E00000630065004700550049004400730000A3
:1009F0000050007B003900440042003700460031BF
:100A000000460044002D0037004500370041002D0E
:100A10000034003000300038002D0039003300363B
:100A20000042002D003600420041003600430031F4
:100A3000003900410033003000380063007D0000C1
:100A40000000000E0301646F63732E716D6B2E66E0
:100A50006D0009027200040100A0FA0904000001FF
:100A60000301010009211101000122400007058155
:100A7000030800010904010002030000000921111C
:100A8000010001222200070582032000010705035F
:100A900003200001090402000103000000092111E4
:100AA00001000122B60007058403200001090403A8
:100AB0000002FF000000070585034000050705064A
:100AC000034000051201100200000008973275492A
:100AD00001000102000122034500720067006F005F
:100AE00044006F007800200045005A0020005300A9
:100AF000680069006E006500000028035A0053007A
:100B00004100200054006500630068006E006F0023
:100B10006C006F006700790020004C0061006200EB
:100B20007300000004030904050F3900021C1005BE
:100B300000DF60DDD88945C74C9CD2659D9E648AE4
:100B40009F00000306B20045001810050038B608E3
:100B500034A909A0478BFDA0768815B6650001422F
:100B6000000011241FBECFEFDAE0DEBFCDBF23E0CF
:100B7000AEEDB1E001C01D92A33FB207E1F711E075
:100B8000A0E0B1E0E0E7FCE602C005900D92AE3DCA
:100B9000B107D9F70E94E02C0C9403360C940000A6
:100BA000E8EDF0E080818E7F80831092E200109269
:100BB000DA001092E100A0EEB0E08C9181608C939D
:100BC00080818F77808319BCA7EDB0E08C918E7FF8
:100BD0008C9380818F7E808310923D0308952091B5
:100BE000E4003091E50095E6A9012091EC00822F08
:100BF000817020FF06C08091E80080FF06C080E081
:100C000008952091E80022FD1AC08091EE03882308
:100C100089F0853089F08091EB0085FD0FC020912F
:100C2000E4003091E50042175307F9F29150E1F6E4
:100C300084E0089582E0089583E0089581E00895B6
:100C4000EF92FF920F931F93CF937C018B010E9431
:100C5000EF05C82F882371F08C2FCF911F910F9132
:100C6000FF90EF900895F70181917F018093F1004B
:100C7000015011090115110579F38091E80085FDF6
:100C8000F2CF8091E8008E778093E8000E94EF0514
:100C9000882381F3C82FE0CFCF93FC018091EE032E
:100CA000843031F5C091E900CF702091EC00922F93
:100CB000917020FD90E8C92B82E08093E90080913B
:100CC000E80080FF12C050E040E060E270E0CF0139
:100CD0000E942006882321F01092EC031092ED036D
:100CE0008091E8008E778093E800CF70C093E90090
:100CF000CF910895EF92FF920F931F93CF937C01B2
:100D00008B010E94EF05C82F811117C08091E80068
:100D100085FD0BC08091E8008B778093E8000E94EE
:100D2000EF05882399F3C82F08C08091F100F701DF
:100D300081937F010150110949F78C2FCF911F91A9
:100D40000F91FF90EF9008958091640387FF13C087
:100D50008091E80082FF06C08091E8008B77809345
:100D6000E80004C08091EE038111F2CF08958091D4
:100D7000EE038823D9F38091E80080FFF8CF8091BB
:100D8000E8008E77ECCF982F9093E900242F762FF0
:100D900050E0891731F07091EC002091ED005091F6
:100DA000F00021FD07C09F5F973071F78093E90045
:100DB00081E008953091EB003E7F3093EB0030915D
:100DC000ED003D7F3093ED003091EB0031603093CA
:100DD000EB007093EC002093ED005093F000209115
:100DE000EE0027FDE0CF80E00895B0E0A0E0EBEF5B
:100DF000F6E00C941533C8EDD0E088818F7E8883AF
:100E0000E7EDF0E080818160808384E082BF81E053
:100E100080933D0388818E7F888302EE10E0F80185
:100E200010821092DA0081EEC82ED12CF6011082C9
:100E300088818F77888388818068888388818F7D87
:100E4000888319BC1092EE03109263031092620320
:100E50001092610390EEE92EF12CF70180818B7FD7
:100E6000808388818160888342E060E080E00E9426
:100E7000C306F60180818E7F8083F80180818160C6
:100E80008083808188608083F70180818E7F80836A
:100E9000888180618883CDB7DEB7E8E00C94313378
:100EA000FC0180916A0390916B0386179707A0F06D
:100EB0006115710529F48091E8008E778093E80030
:100EC00090E06115710551F4911108C08091E8001E
:100ED00082FF35C080E00895BC01F2CF8091EE031F
:100EE0008823C9F18530C9F18091E80083FD31C0C4
:100EF0008091E80082FDEACF8091E80080FFE1CF99
:100F00008091F3002091F200382F6115710519F0DE
:100F10002830310558F091E02830310509F090E093
:100F20008091E8008E778093E800CBCF8491809306
:100F3000F1003196615071092F5F3F4FE6CF8091EC
:100F4000EE03882341F0853041F08091E80083FF73
:100F5000BDCF81E0089582E0089583E00895FC010B
:100F600080916A0390916B0386179707A0F0611533
:100F7000710529F49091E8009E779093E80090E045
:100F80006115710551F4911108C08091E80082FF4C
:100F900034C080E00895BC01F2CF8091EE03882335
:100FA000C1F18530C1F18091E80083FD30C08091AE
:100FB000E80082FDEACF8091E80080FFE1CF8091D8
:100FC000F3002091F200382F6115710519F02830D7
:100FD000310558F091E02830310509F090E020917A
:100FE000E8002E772093E800CBCF81918093F10029
:100FF000615071092F5F3F4FE7CF8091EE03882347
:1010000041F0853041F08091E80083FFBECF81E060
:10101000089582E0089583E0089508958091400343
:1010200008952091EE03243099F425E02093E900FF
:1010300070E050E040E00E942006882321F01092EA
:101040003603109237038091E8008E778093E80092
:10105000089520916B012223C9F02091380327FFC6
:1010600015C0E62FE695E695E695EE31D8F4E80F43
:10107000F92FF11D677021E030E001C0220F6A9561
:10108000EAF720958281282322830895FC01329675
:1010900008962191621303C0DF0111971C92E81793
:1010A000F907B9F7089520912F03309130032817DD
:1010B000390771F09093300380932F03E0912D0353
:1010C000F0912E03309721F00084F185E02D0995F1
:1010D000089520912B0330912C032817390771F0C4
:1010E00090932C0380932B03E0912D03F0912E031A
:1010F000309721F00680F781E02D09950895E09161
:101100002D03F0912E03309729F00190F081E02D0E
:101110000995089580E00895FA01811101C0FB014D
:101120000995089508958091E703982F9E7F29F4EB
:10113000817082608093E70308958A34E8F38170B8
:101140008864F8CFAF92BF92DF92EF92FF920F9335
:101150001F93CF93DF93082F162FE901E42FF0E0C0
:10116000E457F84F611111C0E4915E2F4E2F49836F
:10117000E8835A831B82DF91CF911F910F91FF90DB
:10118000EF90DF90BF90AF900895E62EF12C449140
:10119000D42EE42FF0E026E0829FC00111242FEF2F
:1011A00030E0B9010E94F732802F90E0880F991F3C
:1011B00055E5569FD001579FB00D11248A1B9B0BFC
:1011C000982F990F890F5901AE18BF08AE9ED00114
:1011D000AF9EB00DBE9EB00D11245B2F189F8001F5
:1011E0001124012F11275901A01AB10AAE9E8001C6
:1011F000AF9E100DBE9E100D11245901A81AB10802
:10120000AE9CC001AF9C900DBE9C900D1124892F07
:101210009927281B390B2E9FC0012F9F900D3E9FB1
:10122000900D1124E92F62307105A1F050F4611581
:10123000710509F49CCF6130710581F0EB2F512FBE
:1012400096CF6430710569F080F06630710509F45D
:101250008ECFF4CFE42F4B2F592F89CFE42F412F7E
:1012600086CFEB2F542F492F82CF4B2F5D2DE12FAF
:101270007ECF409116038D3E59F48091170387FF6E
:101280000DC01092170341110BC010920E0308C03D
:101290008E3E81F48091170318169CF3442381F04D
:1012A0008091180390911903892B09F05AC010926C
:1012B0000D0308958F3E49F447FFF0CF10921603B7
:1012C000809117038111ECCFE0CF803F19F4141601
:1012D000ACF3E4CF90911803893F29F41916F4F682
:1012E00010921803DBCF8A3F19F497FFD7CFF8CFBE
:1012F000909119038B3F29F497FFD0CF10921903D7
:10130000CDCF8C3F19F41916CCF3C8CF9FE0980FBE
:10131000983090F4815F990B21E030E0B90102C070
:10132000660F771F8A95E2F7CB01809590911503A0
:10133000892380931503B2CF8D3F31F480910F0341
:101340008E7F80930F03AACF8E3F21F480910F03ED
:101350008D7FF7CF8F3F09F0A1CF80910F038B7F57
:10136000F0CF089580910F0380FD1AC081FD14C055
:1013700082FD14C080910D03882391F08C3370F4AA
:1013800025E0829FC00111246CE370E00E9450337D
:10139000862F672B29F0089582E0089585E008954F
:1013A00081E0089580910F0380FD16C081FD16C075
:1013B00082FD18C080910E03882391F08C3390F445
:1013C00028E2829FC00111246CE370E00E94503338
:1013D000862F672B49F008958AE0089584E10895E7
:1013E00088E0089588E2089581E008958D3E31F403
:1013F0000E94D20981958093170308958E3E19F4B7
:101400000E94D209F8CF8F3E31F40E94D209819513
:10141000809316030895803F19F40E94D209F8CFF3
:10142000893F29F40E94B2098093180308958A3FE6
:1014300021F40E94B2098195F7CF8B3F31F40E94CD
:10144000B20981958093190308958C3F19F40E9485
:10145000B209F8CF9FE0980F983070F4815F990B34
:1014600021E030E001C0220F8A95EAF78091150350
:10147000822B8093150308958D3F31F480910F03E3
:10148000816080930F0308958E3F21F480910F03B4
:101490008260F7CF8F3FB9F780910F038460F1CF5F
:1014A00080E008959091380392FF06C0282F28719C
:1014B0002830F9F4877F846093FF06C0282F2871B5
:1014C0002831F1F4877E84612091390320FF06C022
:1014D000382F38713830D9F4877F816021FF06C0FA
:1014E000282F28712831D1F4877E816194FD877E71
:1014F0000895282F24712430F9F68B7F8860DCCF83
:10150000282F2471243101F78B7E8861DDCF382F9D
:101510003171313019F78E7F8860E0CF282F21712B
:10152000213121F78E7E8861E1CF972F7E30A8F49C
:10153000663098F470E026E0929F600D711D1124D2
:10154000FB0194E5899FE00DF11D1124EE0FFF1FB3
:10155000EE5CFB4F85919491089580E090E00895B2
:10156000CF93DF93EC0182389105A9F1D8F581334F
:10157000910509F496C048F58932910509F48AC0AD
:101580008A9709F495C0C11521E5D20708F0BCC0BF
:10159000C11530E5D30708F014C1C83ED10508F0E5
:1015A0009CC0C03ED10560F5C83AD10508F087C09F
:1015B000C53AD10508F0FDC0C130D10509F1209729
:1015C000F9F0C430D105E0F440C08533910509F449
:1015D0005AC0C997C1F680913803837089F0C0EE74
:1015E000D0E00EC0833E910599F170F4803E9105E4
:1015F00001F1823E910539F68091380382FD21C0C8
:10160000CE01DF91CF910895863E910561F1873E2D
:10161000910571F1843E910509F0B5CF80913903B0
:1016200081FFEECF80913803C7EED0E084FD0DC07E
:10163000E7CF8091380380FD12C19091390390FF6C
:10164000DFCFC3EED0E084FFDBCFD0E0C0E0D8CF67
:101650008091380382FD06C19091390390FDBFCF80
:1016600084FFCECFF2CF8091380383FDDDCFC8CF8A
:101670008091380383FDF9C09091390391FFF0CF39
:10168000C4EED0E0BDCF8091380385FFB9CFC9E269
:10169000D0E0B6CF8091380385FFB2CFC5E3D0E06C
:1016A000AFCF8091380386FFABCFCAE2D0E0A8CF9E
:1016B0008091380386FFA4CFC1E3D0E0A1CFCF3B18
:1016C000D10518F6C85AD0E0CC0FDD1FC558DE4F43
:1016D0000990D881C02DD46493CFC11540E2D407BE
:1016E00058F4C11581E0D80708F08ACFCD3ED10566
:1016F00008F4ABCFD06584CFC11590E4D90708F4C6
:10170000A4CFDF70D06A7CCFC11525E5D20700F5E4
:10171000C11534E5D30708F08AC0C11543E5D407E5
:1017200008F071C0C11582E5D80708F467C0CE0182
:101730008370992721E030E002C0220F331F8A9581
:10174000E2F7C695C69580E2C89FE001112452C019
:10175000C11599E5D907A8F4C11528E5D20708F005
:101760006BC0C11536E5D30708F06FCF8C2F0E94F0
:10177000520AC82FD0E0DC2FCC27CC27DF71D062F3
:101780003FCFC1154AE5D40708F45BC0CE0190569F
:101790008115904208F059CF8D2F8F710E94520A07
:1017A00090E0982F882788279F719C012C2BE901B6
:1017B000E6CFC55AD0E0C858DE4FC881D0E0D0642B
:1017C0001FCFCE01E4E096958795EA95E1F7837007
:1017D0002C2F26952695237040E2249F90011124FA
:1017E000382B8C2F8370C1E0D0E002C0CC0FDD1FFE
:1017F0008A95E2F7C22BD32BDC6802CFDC2FCC27F3
:10180000C16FD06AFDCECE018370992721E030E010
:1018100002C0220F331F8A95E2F7C695C69590E263
:10182000C99FE0011124C22BD32BDA68E9CEDC2F4B
:10183000CC27C46FD06AE4CEDC2FCC27C06FD06A2F
:10184000DFCE8C2F8F700E94520A34E0D695C79558
:101850003A95E1F7CF709C2FEC01D069D1CEC9E366
:10186000D0E0CECEC2EED0E0CBCEC6EED0E0C8CE39
:101870008091BA0281111092BA02089580959091D8
:101880002A03982390932A030895809590913E030C
:10189000982390933E030895809198029091670257
:1018A000981301C008958F5F8770FACFB0E0A0E071
:1018B000ECE5FCE00C9414338C01C090DB02D0907A
:1018C000DC02E090DD02F090DE028091BB0290919C
:1018D000BC02A091BD02B091BE02C82AD92AEA2A50
:1018E000FB2ACFE1D0E0BC2ED701C6010C2E04C0EC
:1018F000B695A795979587950A94D2F780FD09C06C
:10190000219788F7B12C8B2DCDB7DEB7E9E00C9489
:101910003033B8018C2F0E94950A0E94B00A0197BB
:1019200079F3F1CFCF93DF93EC010E94560CBE0107
:101930000E94950A0E94B00ADF91CF910895292F45
:101940009E3080F5863070F590E036E0239F800D64
:10195000911D1124682F677023E0969587952A952D
:10196000E1F725E0289FF001299FF00D1124E65DA5
:10197000FD4F50E040E080E0219130E0062E02C0B3
:10198000369527950A94E2F721703327042E01C07B
:10199000220F0A94EAF7822B4F5F5F4F45305105C3
:1019A00059F7089580E00895292F9E30A0F58630DC
:1019B00090F590E036E0239F800D911D1124282F93
:1019C000277041E001C0440F2A95EAF723E096957D
:1019D00087952A95E1F725E0289FF001299FF00DD2
:1019E0001124E65DFD4F30E020E070E05191DF0111
:1019F0001197CB01022E02C0969587950A94E2F7C3
:101A0000817081958527842385278C932F5F3F4F95
:101A10002530310559F70895FC01808191810E949C
:101A2000920C92959F70963091F058F4925F9F704F
:101A3000923058F4803F19F030F4883E30F481E061
:101A400008959A5FF4CF843FD1F380E00895883EF3
:101A5000B0F3813FD1F7F3CFCF92DF92EF92FF92B5
:101A60006C01EE24FF2420E0C114D104E104F10450
:101A700019F0C701B60120E1C72ED82EE92EFF24A8
:101A8000C114D104E104F10419F0285FC701B601C3
:101A90006B017C0154E0F694E794D794C7945A956F
:101AA000D1F7C114D104E104F10419F02C5FC7018E
:101AB000B6016B017C0142E0F694E794D794C79499
:101AC0004A95D1F7C114D104E104F10419F02E5F55
:101AD000C701B6019695879577956795672B682B13
:101AE000692B09F02F5F822FFF90EF90DF90CF904E
:101AF00008959C019A9581159F4130F4832F817040
:101B000031FF03C08260089580E00895FC01808168
:101B1000813041F49185911114C09285992389F007
:101B200082E00895823041F48185811107C0828569
:101B3000811106C083E0089586E0089585E0089548
:101B400084E0089527982F98089526982E98089550
:101B500025982D98089556985E980895279A2F9A5B
:101B60000895269A2E9A0895259A2D9A08952098D8
:101B700028982198299822982A9823982B98529847
:101B80005A9853985B983E98469808958098889AFA
:101B90008198899A84988C9A85988D9A86988E9A3D
:101BA00087988F9A089580933A0370933C036093CB
:101BB0003B038091EE038430F9F48093E9008FEFCA
:101BC0009091E800815095FD06C095ED9A95F1F74A
:101BD00000008111F5CF8091E80085FF0DC050E035
:101BE00040E063E070E08AE393E00E942006809189
:101BF000E8008E778093E8000895BC0184E00E949D
:101C0000D30D0895BC0183E00E94D30D08959C017B
:101C100084E08093E9009FEF8091E800915085FD7A
:101C200006C085ED8A95F1F700009111F5CF8091FE
:101C3000E80085FF0CC050E040E066E070E0C901BC
:101C40000E9420068091E8008E778093E800089536
:101C5000CF93DF93EC0180916B018823B1F18091E8
:101C6000380387FF32C060E284E08093E9008FEFA1
:101C70009091E800815095FD06C095ED9A95F1F799
:101C800000008111F5CF8091E80085FF1BC0809195
:101C90006B0170E050E040E0811104C050E040E092
:101CA00068E070E0CE010E9420068091E8008E7707
:101CB0008093E80080E2FE01A1E4B3E001900D9280
:101CC0008A95E1F7DF91CF91089568E081E0CDCF6B
:101CD000EF92FF920F931F93CF93DF930E94AB0D70
:101CE0000E94A80D0E94A50D0E94A20D88E8E82E72
:101CF000F12C8FEF90E0F701918380830AE810E0E8
:101D0000F80191838083CCE8D0E0998388830E9496
:101D1000B40DFFEF20E782E0F15020408040E1F772
:101D200000C000000E94B10D9FEFE0E7F2E091508B
:101D3000E040F040E1F700C000000E94AE0D2FEF40
:101D400080E792E0215080409040E1F700C0000021
:101D50000E94A80DEFEFF0E722E0E150F0402040B4
:101D6000E1F700C000000E94A50D8FEF90E7E2E0D0
:101D700081509040E040E1F700C000000E94A20DB9
:101D80008091C9028770FFEF8F9FC0011124959544
:101D90008795959587959927F70191838083F80119
:101DA00091838083998388830E94AB0D0E94A80D44
:101DB0000E94A50D0E94A20DCDB7DEB7E6E00C94FF
:101DC00033330F931F93CF93DF938091E70380FD0D
:101DD0000BC0EFE6F3E01182108212821382349678
:101DE00053E0E73EF507B9F7EFE6F3E09281208193
:101DF0003181892F291708F4822F381708F4832F8F
:101E00008383381B3183281B2083981B928334964D
:101E100083E0E73EF80751F780911B038823D1F058
:101E20008091190190911A01892BA1F480911801D8
:101E3000882381F064E670E084E80E943232C3EEC9
:101E4000D3E007EA13E0892B09F42FC010921801A0
:101E50000E94F332579A3BB13F772BB120684FB7BE
:101E6000F8948FE693E0FC015191CF0168E02BB923
:101E7000000000C057FF3BB9550F000000C000C074
:101E800000C03BB900C06A9591F7F3E0873E9F0719
:101E900051F74FBF8FE594E00197F1F700C00000C4
:101EA000DF91CF911F910F91089564E670E08881D2
:101EB0000E94A03264E670E089810E94A03264E64C
:101EC00070E08A810E94A03264E670E08B810E94FB
:101ED000A03224970C171D0741F7BACFA4E0B0E059
:101EE000E4E7FFE00C941933182F062F8091E703E5
:101EF00080FF23C09E012F5F3F4F4FEF6BEE87E7C0
:101F00000E94A2081017C8F48B8199812A8134E0BD
:101F1000139FF0011124E159FC4F218390838283A8
:101F200013821F5F34960113F8CF0E94E10E8FE9F0
:101F30009FE00197F1F700C000002496E4E00C94C4
:101F40003533EF92FF920F931F93CF93DF938C0162
:101F5000CFE6D3E0F12CE12CF80194816091E90304
:101F60008091E803FFE0EF16F104ECF49923E9F027
:101F70009E014091EA030E94A2082FEFE21AF20AA2
:101F800024968EE1E816F10439F70E94E10EF8017B
:101F9000848190E00196817099278483CDB7DEB764
:101FA000E6E00C943333992319F39E0140E0E3CF2C
:101FB000B0E0A0E0EEEDFFE00C941133EC014C81B9
:101FC000042F10E09801D8010E94F4359B01AC0168
:101FD0000E94BF354B015C01E0E2F0E0E01BF10B39
:101FE000A5E5B0E0AC019B010E94BF356B017C010F
:101FF0009F01DF010E946A339B01AC010E94CA3538
:102000009B01AC01280D391D4A1D5B1DC701B6019E
:102010000E94D235F22E822F90E039E23F1598F1DE
:1020200043E0249F9001112435952795122F109598
:102030009FE6C92E93E0D92E00E085E5E82EEF1843
:102040008E2D01FD8F2D9601412F6091E9030E9495
:10205000A2080F5F54E0C50ED11C0E3189F70E9413
:10206000E10E9C8181E0992319F0903219F48FEFF1
:102070008093280180912801890F8C83CDB7DEB72A
:10208000ECE00C942D3325E530E0A901481B590BF9
:10209000CA019A01220F331F280F391F37FFC4CFFF
:1020A0002F5F3F4FC1CF0F931F93CF93DF93CFE6A7
:1020B000D3E0FE011182108212821382349683E0F3
:1020C000E73EF807B9F710E000E080912503082EFD
:1020D000000C990B081719078CF180912701082E25
:1020E000000C990B801791074CF19E014091EA0377
:1020F0006091E9038091E8030E94A2080F5F1F4FDF
:1021000024960E31110509F70E94E10E80912601F7
:1021100090912503980F9093250320912701280F74
:1021200020932701121614F49D311CF081958093A1
:102130002601DF91CF911F910F9108951982188286
:102140001A821B82DBCFB0E0A0E0E9EAF0E10C9458
:102150001433FC018281DD24DA9480FD02C0DD2489
:10216000D3940FE613E0D0E0C0E02EE1B22EF801E8
:10217000118210821282138294E0E92EF12CC12C7C
:10218000809124038C0D8F31C4F16B2D0E9442335A
:10219000892F082E000C990B8C179D0791F48091C4
:1021A000EA038E9DA0018F9D500D112455954795F2
:1021B0005595479598016091E9038091E8030E9445
:1021C000A208CD0CF1E0EF1AF108D1F621960C5FD0
:1021D0001F4FCE31D10559F60E94E10E80912403A4
:1021E00091E0D91210C081110CC08DE180932403BD
:1021F000CDB7DEB7E9E00C94303387FFCACF825EFB
:10220000C8CF8150F3CF90E00196BE010E945033B9
:10221000EDCFEF92FF921F93CF93DF93EC018FE608
:10222000E82E83E0F82E10E08C8197014091EA03BC
:102230006091E903810F0E94A208185F84E0E80E14
:10224000F11C103F89F70E94E10E9A818C8190FF6A
:1022500008C08F5F8C83DF91CF911F91FF90EF902B
:1022600008958150F7CF9091E70390FF0DC0EFE6FE
:10227000F3E08183608342831382349693E0E73EE8
:10228000F907B9F70E94E10E0895A4E0B0E0EBE48D
:10229000F1E10C9419338C018091260381110AC05D
:1022A0009E012F5F3F4F4FEF6FEF0E94A2088A8180
:1022B00080932603F8016481613069F080912603E0
:1022C00040E0662361F040E0623011F44091260363
:1022D00080E060E004C06091260340E080E00E945E
:1022E0003311F801848190E0019663E070E00E9470
:1022F000503384832496E4E00C943533A4E0B0E0BA
:10230000E4E8F1E10C941B339091E70390FF0AC0DD
:102310009E012F5F3F4F0E94A2084B8169818A81F5
:102320000E9433112496E2E00C943733CF93DF936D
:10233000EC01E7EEF3E0438162818C810E947E1123
:102340008C818F5F8C83DF91CF910895CF93DF9342
:10235000EC01EC81F0E0EF56F74F4491E7EEF3E04B
:10236000628181810E947E118C818F5F8C83DF91DD
:10237000CF910895CF93C82F873078F580911901B8
:1023800090911A01892B39F564E670E080E40E948F
:10239000323290931A0180931901892BD1F464E6AB
:1023A00070E082E10E94A03290931A01809319019B
:1023B000892B79F481E090E001C0880FCA95EAF793
:1023C00064E670E080950E94A03290931A01809399
:1023D00019010E94F332CF9108958A30B1F038F498
:1023E000883069F0893071F0209A2898F4CF8C30C9
:1023F00091F070F08D30C1F73E9A4698ECCF219A5B
:102400002998E9CF229A2A98E6CF239A2B98E3CFEE
:10241000529A5A98E0CF539A5B98DDCFCF92DF92D1
:10242000EF92FF926B017C010E949308B701A60115
:1024300088E090E00E948E35FF90EF90DF90CF9083
:102440000895A4E0B0E0E7E2F2E10C940E33F82E38
:10245000762EE42E622E9091E70390FF29C0E92F9B
:10246000E695AE2FB0E0A755BE4F8C918093220326
:102470009E7F923009F59E012F5F3F4F8F2D0E9466
:10248000A2084B8169818A810E943311F092E8038E
:102490007092E903E092EA03662051F06091E7034D
:1024A0007091E8038091E9039091EA030E940E1273
:1024B0002496EFE00C942A33823019F4E090EA037A
:1024C000E5CF863019F4F090E803E0CF8930D9F3F6
:1024D0008931E1F6E9518E2F8170582EE695F0E0B2
:1024E000E457F74FE4910E2F10E08FE6C82E83E0FB
:1024F000D82EB12CA12C9EE1892E912CC501B401BE
:102500000E94F7328F2D511013C0860F96014E2D69
:10251000672D0E94A208A00EB11E84E0C80ED11C37
:1025200087EEC81683E0D80649F70E94E10EAECFC9
:10253000861BECCFE7EEF3E043812CE0421B08F46E
:1025400040E021E0628181810E9421120895E7EE3E
:10255000F3E043812CE0420F08F44FEF21E0628169
:1025600081810E9421120895E7EEF3E062812FEF4E
:10257000621B08F460E021E0438181810E94211206
:102580000895E7EEF3E062812FEF620F08F46FEF3A
:1025900021E0438181810E9421120895E7EEF3E05A
:1025A000818121E0438162818C500E942112089533
:1025B000E7EEF3E0818121E043816281845F0E9444
:1025C000211208958091EB03882319F081508093A4
:1025D000EB036091E7037091E8038091E903909128
:1025E000EA030E940E1208958091EB03833018F4E1
:1025F0008F5F8093EB036091E7037091E803809114
:10260000E9039091EA030E940E120895E7EEF3E0C9
:1026100080818E7F808360817181828193810E941D
:102620000E12109223032FEF80E792E0215080409A
:102630009040E1F700C000000E94E10E0895E7EE2F
:10264000F3E083E0808311828FEF8283838314829F
:1026500060817181828193810E940E120895809120
:102660003E0390912A03892B8093E0019091BA0256
:102670009923A1F0892B8093E00180916B0188233D
:10268000E1F18091380387FF38C08EE1E2EEF1E09E
:1026900090E08150A0F591110E94380C40E250E08A
:1026A0006AE972E080EE91E00E943B35892B21F1CE
:1026B00080E2E0EEF1E0AAE9B2E001900D928A95A5
:1026C000E1F7E0912D03F0912E033097A9F080916E
:1026D0006B01882359F08091380387FF07C08091F0
:1026E000E0018093E10186E08093E0010280F381C4
:1026F000E02D80EE91E00995089586E0C7CF219105
:10270000222339F29F5FC5CFCF93DF93EC0181E0A5
:10271000898B80913E039F81892B80933E0380911A
:102720002A039885892B80932A030E942F13EA811C
:10273000FB81309729F06C897D89CE010696099539
:10274000DF91CF910895EF92FF920F931F93CF9354
:10275000DF93EC018A85811134C0EB80FC8087E532
:10276000F81A26E12E9DC0012F9D900D1124DC0149
:10277000A75DBE4F1496ED91FC911597309731F0FF
:1027800054966D917C91815D9E4F099586E18E9D59
:1027900080018F9D100D1124075D1E4FF801878168
:1027A0000E94450CF80180850E943E0C0E942F1368
:1027B000188219861B861E821D8210922903109290
:1027C0002803CDB7DEB7E6E00C943333882321F03D
:1027D0000E943E0C0E942F130895809127038823A6
:1027E00029F082E20E94E6131092270308958823BD
:1027F00039F090912A03982B90932A030E942F136B
:102800000895882321F00E94450C0E942F130895FB
:10281000882339F090913E03982B90933E030E94B9
:102820002F13089568EE7EEF90E080E00E949A35C5
:1028300060E082E090E00E947C3560E083E090E020
:102840000E947C351092BB021092BC021092BD0215
:102850001092BE0260E084E090E00E947C3564E06B
:1028600082E290E00E947C3560E085E090E00E948A
:102870007C3560E086E090E00E947C356FEF87E079
:1028800090E00E947C3540E050E0BA0188E090E0A2
:102890000E948E3560E08DE090E00E947C3540E043
:1028A00050E0BA0188E190E00E948E3560E087E157
:1028B00090E00E947C3540E050E0BA018CE190E06D
:1028C0000E948E3570E060E080E290E00E949A35D0
:1028D00040E050E0BA0188E190E00E948E3510920D
:1028E000C9021092CA021092CB021092CC0284E06C
:1028F0008093C9024091C9025091CA026091CB02F3
:102900007091CC028FE090E00E948E3540E050E064
:10291000BA0183E190E00E948E35089580E290E054
:1029200090931A018093190180911B0381110EC0AD
:102930000E942C3281E080931B032FEF83ED90E304
:10294000215080409040E1F700C0000064E670E054
:1029500080E40E94323290931A0180931901892BEE
:1029600009F04EC064E670E080E00E94A0329093CF
:102970001A0180931901892B09F042C064E670E0C6
:1029800080E00E94A03290931A0180931901892B54
:10299000B9F564E670E08FE30E94A03290931A01CB
:1029A00080931901892B61F50E94F33264E670E08F
:1029B00080E40E94323290931A0180931901892B8E
:1029C000F9F464E670E08CE00E94A03290931A0162
:1029D00080931901892BA1F464E670E080E00E94E5
:1029E000A03290931A0180931901892B49F464E66F
:1029F00070E08FE30E94A03290931A018093190136
:102A00000E94F332809119010895CF93873050F5D9
:102A10008091190190911A01C0E0892B71F464E64C
:102A200070E081E40E94323290931A018093190180
:102A3000892B31F0C0E00E94F3328C2FCF910895A2
:102A400084E690E00E94CF3297FF05C090931A0170
:102A500080931901EFCFC82FC09510921A011092E0
:102A60001901E9CFCFB18FB1869586958C73C3706C
:102A70008C2BC82FC095E1CF1F920F920FB60F92EB
:102A800011242F933F934F935F936F937F938F9373
:102A90009F93AF93BF93EF93FF938091E10082FFE9
:102AA00009C08091E20082FF05C08091E1008B7F28
:102AB0008093E1008091DA0080FF24C08091D800EB
:102AC00080FF20C08091DA008E7F8093DA008091B1
:102AD000D90080FF9DC080E189BD82E189BD09B434
:102AE00000FEFDCF81E08093EE0380913D038111D4
:102AF00009C00E94D0050E94F5068091E200846022
:102B00008093E2008091E10080FF17C08091E20095
:102B100080FF13C08091E2008E7F8093E20080915D
:102B2000E20080618093E2008091D800806280930F
:102B3000D80019BC85E08093EE038091E10084FF0A
:102B40002BC08091E20084FF27C080E189BD82E133
:102B500089BD89B5982F917080FFFBCF8091D800F7
:102B60008F7D8093D8008091E1008F7E8093E1007B
:102B70008091E2008F7E8093E2008091E20081608C
:102B80008093E20080916303882309F447C084E0C6
:102B90008093EE038091EE038091E10083FF27C0D4
:102BA0008091E20083FF23C08091E100877F8093C2
:102BB000E10082E08093EE03109263038091E100D4
:102BC0008E7F8093E1008091E2008E7F8093E2000F
:102BD0008091E20080618093E20042E060E080E06A
:102BE0000E94C3068091F00088608093F000FF91FE
:102BF000EF91BF91AF919F918F917F916F915F9175
:102C00004F913F912F910F900FBE0F901F901895ED
:102C100019BC1092EE0310923D0374CF8091E30033
:102C200087FD93E09093EE03B5CF78941F921FB683
:102C30001F9211248F939F93AF93BF938091320380
:102C400090913303A0913403B09135030196A11DF7
:102C5000B11D8093320390933303A0933403B09358
:102C60003503BF91AF919F918F911F901FBE1F9011
:102C700018959C014FB7F8948091320390913303DB
:102C8000A0913403B09135034FBF821B930B08957D
:102C90002FB7F8948091320390913303A0913403BD
:102CA000B09135032FBF08956091E703669570E0FA
:102CB0004BE050E08BE191E00E942E35892B19F416
:102CC00081E0809323030E94481690931D03809314
:102CD0001C0308959091E70390FF2CC0917081111F
:102CE0002AC092609093E703662351F06091E70356
:102CF0007091E8038091E9039091EA030E940E121B
:102D00006091E703669570E04BE050E08BE191E065
:102D10000E942E35892BB1F01092230381E080931D
:102D20001F0320E04091EA036091E9038091E803EA
:102D30000E9421120895853210F09864D3CF880F35
:102D4000982BD0CF0E945416E9CF80911A0381119D
:102D500036C090E080E00E946635883E9E4F21F0AC
:102D60000E9412140E941F1388E090E00E946035B8
:102D70006093E7037093E8038093E9039093EA0379
:102D80006E7F71F40E941F1388E090E00E9460350E
:102D90006093E7037093E8038093E9039093EA0359
:102DA0000E949308109223038091E70380FF04C0E0
:102DB00060E086950E946A1681E080931A03089568
:102DC000E7EEF3E080818160808360E086950E9479
:102DD0006A16089561E00E946A1608958091E703DB
:102DE0008695815009F484E261E00E946A16089594
:102DF0008091E70386958F5F853208F081E061E07E
:102E00000E946A1608959091E70390FF08C0969576
:102E1000981728F0961718F40E94F81608950E9443
:102E2000EA160895CF92DF92EF92FF92CF93DF934D
:102E30006B017C010E942C0DD82F0E94AB0D0E94CB
:102E4000A80D0E94A50D0E94A20DC0912802EFEFCF
:102E5000ED0FE73008F067C0F0E0EB5FF94C0C9441
:102E600064330E94B40DC1110AC00E94E01660E0F4
:102E700081E00E946A166EE18FE00E946E0FC7012A
:102E8000B601DF91CF91FF90EF90DF90CF90089542
:102E90000E94B40D0E94B10DC111F1CF0E94E01645
:102EA00060E081E00E946A166FE080E0E6CF0E9459
:102EB000AE0DC111E4CF0E94E01660E081E00E94F7
:102EC0006A1620E04FEF6FEF86E53BC00E94B40D1D
:102ED0000E94B10D02C00E94B40D0E94AE0DC1113E
:102EE000CECF88E090E00E9460356093E703709356
:102EF000E8038093E9039093EA0360FF25C0862FDF
:102F000081608093E70386950E94EA168091E7032B
:102F100086950E94EA1621E04091EA036091E90358
:102F20008091E8030EC0D111DACFC111A8CF0E9461
:102F3000E01660E081E00E946A1620E04FEF6FEF3C
:102F400085ED0E9421129BCF0E94061398CF0E940C
:102F500048169C019091160380911703982B21F03D
:102F60003093130320931203909118038091190357
:102F7000982B21F03093110320931003E0912D033F
:102F8000F0912E03309749F082E08093140304807F
:102F9000F581E02D84E193E00995089590E080E0CB
:102FA0000E94690890E080E00E94530810922A0372
:102FB0000E942F1386E0E4E1F3E0DF011D928A9581
:102FC000E9F710920E0310920D0310920F030E9466
:102FD000A7170895CF92DF92EF92FF92CF93DF93DE
:102FE000CDB7DEB7A0970FB6F894DEBF0FBECDBF4A
:102FF0000E9412176B017C018091ED038823B1F0D0
:103000002FEF80E792E0215080409040E1F700C030
:10301000000085E08983C701B6010E942C0D8A83D8
:103020008EEF8B83CE0101960E944C06C092DB028C
:10303000D092DC02E092DD02F092DE020E94CE1716
:10304000A0960FB6F894DEBF0FBECDBFDF91CF9133
:10305000FF90EF90DF90CF9008950F931F9341E082
:1030600050E060E070E004C0440F551F661F771FFA
:103070008A95D2F78091DB029091DC02A091DD026B
:10308000B091DE028A019B01082719272A273B27D6
:10309000C901B8010E94EA171F910F9108950F937B
:1030A0001F9341E050E060E070E004C0440F551F02
:1030B000661F771F8A95D2F7CB01BA01609570958C
:1030C000809590950091DB021091DC022091DD0249
:1030D0003091DE0260237123822393230E94EA173A
:1030E0001F910F9108959091990280958923809363
:1030F0009902282F277091F4282F082E000C330BEB
:103100009217130659F09091390392FF07C08595E5
:10311000859585950E944F18109299020895CF9336
:10312000C0913903C2FB992790F9981791F080FB61
:10313000C2F9C09339036091380384E090E00E94A3
:103140007C356C2F82E290E00E947C3582E00E9408
:103150007318CF9108950F931F9341E050E060E002
:1031600070E004C0440F551F661F771F8A95D2F781
:103170008091DB029091DC02A091DD02B091DE0231
:103180008A019B01082B192B2A2B3B2BC901B80163
:103190000E94EA171F910F9108956093BB027093EC
:1031A000BC028093BD029093BE020E94CE17089588
:1031B00080916B01E2EEF1E0882361F080913803A9
:1031C00087FF08C08EE1DF011D928A95E9F70E9412
:1031D000CE17089586E0F7CFAAE2B0E0E2EFF8E17B
:1031E0000C941A3384E693E02091F100FC012193C2
:1031F000CF01F3E08C369F07B9F7809165038930E2
:1032000009F444C018F5823009F4BCC0833009F4D5
:103210006FC0813031F580916403813A11F580915E
:10322000E800877F8093E8008091680390916903AC
:10323000892B41F560E281E493E070E00E94AF07E2
:103240008091E8008B778093E8000BC08B3009F405
:103250006CC008F486C0823409F4A5C0853409F432
:10326000BFC08091E80083FF5AC2809164039091AF
:1032700065039A3008F053C2E92FF0E0E45FF94C9F
:103280000C94643360E090E080E0D7CF80916403D9
:10329000813239F78091680390916903009711F0AA
:1032A0000297F9F68091E800877F8093E80080918B
:1032B000E80082FF18C09091F3008091F20002971D
:1032C00031F48091F100813011F0863021F4809149
:1032D000F100809340038091E8008B778093E800B1
:1032E0000E94A406BECF8091EE038111E0CFB9CF3A
:1032F00080916403813A09F0B4CF80916803909182
:103300006903892B09F0ADCF8091E800877F809316
:10331000E8008091E80080FFFCCF80916B018093F2
:10332000F1008091E8008E77D9CF809164038132DB
:1033300009F097CF8091680390916903892B09F078
:1033400090CF8091E800877F8093E8000E94A406D8
:103350008091660380936B0110923E030E94D818FF
:1033600080CF80916403813209F07BCF8091E800A7
:10337000877F8093E8000E94A40680916703809372
:103380003F036FCF80916403813A09F06ACF809147
:10339000E800877F8093E8008091E80080FFFCCF01
:1033A00080913F03BCCF80916403803C09F059CFEA
:1033B0008091680390916903029739F580916603C3
:1033C00090916703892B09F58091E800877F8093AE
:1033D000E8006EE070E083E49AE00E94500780CF3E
:1033E00080916403803C09F03CCF80916803909108
:1033F0006903079751F48091E800877F8093E80084
:1034000062EB70E081E999E0E8CF8091EB008062A7
:103410008093EB0026CF803899F0823809F07FC185
:10342000809168038F70873008F079C18093E9003C
:103430008091EB0085FB882780F91092E90006C097
:103440008091610390916203911182609091E800F4
:10345000977F9093E8008093F1001092F1008091A3
:10346000E8008E7758C1882309F446C1823009F0FC
:1034700056C180916603811149C1809168038F70A4
:103480002FEF280F263008F04AC18093E9002091E1
:10349000EB0020FF3BC1933031F48091EB00806260
:1034A0008093EB0033C19091EB0090619093EB001F
:1034B00021E030E001C0220F8A95EAF72093EA006C
:1034C0001092EA008091EB008860EACF811127C159
:1034D000109166031F778091E3008078812B8093A1
:1034E000E3008091E800877F8093E8000E94A406B3
:1034F0008091E80080FFFCCF8091E300806880939A
:10350000E30082E0111183E08093EE0308C180584C
:10351000823008F004C180916603909167038C3D6E
:1035200023E09207A1F583E08A838AE289834FB77B
:10353000F894DE01139620E03EE051E2E32FF0E044
:1035400050935700E49120FF03C0E295EF703F5F76
:10355000EF708E2F90E0EA30C0F0C7968D939D9368
:103560002F5F243159F74FBF8091E800877F809308
:10357000E8006AE270E0CE0101960E94AF078091F8
:10358000E8008B778093E800CAC0C096E7CF20910F
:10359000680330916903492F55274330510551F194
:1035A000A0F44130510509F459C062E770E082E5AA
:1035B0009AE04230510509F0B2C02091E800277F1F
:1035C0002093E8000E945007DACF4132510539F1CB
:1035D0004232510591F14F30510509F0A0C0EAE2A5
:1035E000FBE0649170E088E29BE06115710509F4ED
:1035F00096C0E3CF99278130910571F0009731F0A3
:10360000029709F08CC0E6EDFAE002C0E4E2FBE0CC
:10361000649170E0CF01E9CFEAEFFAE0F9CF23300F
:10362000310508F07CC0220F331FF901E952FE4F2B
:103630008081918169E070E0C0CF2330310508F0CE
:103640006EC0F901EE0FFF1FEF52FE4F8081918196
:1036500022533E4FF901608170E0C7CF62E170E014
:1036600084EC9AE0AACF803809F059C08091E80034
:10367000877F8093E800809163038093F100EFCE11
:1036800081114DC010916603123008F048C080913E
:10369000E800877F8093E800109363030E94A406EC
:1036A000112311F084E005C08091E30087FDFACF7B
:1036B00081E08093EE0342E061EC81E00E94C3066A
:1036C00042E261EC84E00E94C30642E261EC82E0E7
:1036D0000E94C30642E260EC83E00E94C30642E31C
:1036E00061EC85E00E94C30642E360EC86E00E9444
:1036F000C3068091EE0313C080916603813079F494
:1037000081E0933009F080E0809362031092E90039
:103710008091E800877F8093E8000E94A406809152
:10372000E80083FF0AC08091E800877F8093E8006B
:103730008091EB0080628093EB00AA96E3E00C940A
:1037400036331F920F920FB60F9211242F933F938F
:103750004F935F936F937F938F939F93AF93BF9399
:10376000CF93DF93EF93FF93D091E900DF708091C7
:10377000EC00C82FC17080FDC0E81092E900809174
:10378000F000877F8093F00078940E94EC181092EC
:10379000E9008091F00088608093F000CD2BCF701D
:1037A000C093E900FF91EF91DF91CF91BF91AF916D
:1037B0009F918F917F916F915F914F913F912F9149
:1037C0000F900FBE0F901F90189510923E030E940D
:1037D000D8182FEF84E39CE0215080409040E1F71F
:1037E00000C0000088E19AE00FB6F894A895809395
:1037F00060000FBE90936000FFCF882391F19CEF93
:10380000980F913A40F4682F80EE91E00E942908C9
:103810000E942F13089590E2980F983050F487700B
:1038200091E001C0990F8A95EAF7892F0E94450C13
:10383000EFCF9BE5980F933028F490E080E00E9452
:103840006908089598E5980F973128F490E080E092
:103850000E94530808958D3E20F00E9439090E946D
:10386000A7170895CF93DF93EC010E94FD1BCE01B3
:103870000E94790DC05ED109289728F40E94011496
:10388000DF91CF9108950E94E613FACF8FE39CE970
:103890000197F1F700C0000080910502833059F0D4
:1038A000853011F0813021F48DE491E00E94321CCA
:1038B0001092050208958AE491E0F8CF8FE39CE925
:1038C0000197F1F700C0000080910302833059F0A6
:1038D000853011F0813021F48DE491E00E94321C9A
:1038E0001092030208958AE491E0F8CF8FE39CE9F7
:1038F0000197F1F700C0000080910102833059F078
:10390000853011F0813021F485E390E00E94321C73
:1039100010920102089582E392E0F8CFCF93C82F6E
:10392000882309F442C08CEF8C0F813A08F065C0FF
:1039300080916B018823D9F18091380387FF37C0CC
:10394000EC2FE695E695E695F0E0E052FE4F828199
:1039500090E04C2F477021E030E002C0220F331F6F
:103960004A95E2F782239323892B61F06C2F80EE36
:1039700091E00E9429080E942F1323C080913803F0
:1039800087FF23C0EC2FE695E695E695F0E0E05240
:10399000FE4FC77021E030E001C0220FCA95EAF760
:1039A0008281822B82830E942F13CF910895E2EEB1
:1039B000F1E088EE91E02191C217C1F28E179F07C6
:1039C000D1F780916B018111D9CFA2EEB1E0EFEF79
:1039D00080E09D91C91739F3EF3F19F4911101C0AF
:1039E000E82F8F5F8630A9F7EF3FE9F20E2E000C2B
:1039F000FF0BE052FE4FC283D6CF80E28C0F88309F
:103A000068F4C77021E030E001C0220FCA95EAF7E0
:103A100080913E03822B80933E03C5CFEBE5EC0FF4
:103A2000E33040F4F0E0E858FE4F808190E00E94DF
:103A30006908BBCFE8E5EC0FE73150F4F0E0EE0F9A
:103A4000FF1FE558FE4F808191810E945308ADCF42
:103A5000CD3E08F4AACF8C2F0E94F6090E94A7172A
:103A6000A4CF1F93CF93DF93182FD0E0C0E089330A
:103A700011F4C0E5D0E0812F0E948E1C209739F40C
:103A8000812F0E94FD1BDF91CF911F9108958FE937
:103A90009FE00197F1F700C000002197EFCF0F934F
:103AA0001F93CF93DF93C62FD42F022FFC01828167
:103AB0008823A9F060936E030E94481690936D03CB
:103AC00080936C03C77081E001C0880FCA95EAF744
:103AD0000E940814DF91CF911F910F91089580915A
:103AE0006E03681332C080916C0390916D030E9445
:103AF0003916853A910548F510E21D0FCD17B9F03A
:103B000080E28C0F883040F4C77081E001C0880FDC
:103B1000CA95EAF70E940114183048F481E09D2FFD
:103B2000977001C0880F9A95EAF70E940814802FB9
:103B30000E94311D183070F6D77081E001C0880FE7
:103B4000DA95EAF70E940114C5CFC77081E001C081
:103B5000880FCA95EAF7F6CFB0E0A0E0E2EBFDE10E
:103B60000C941333EC018AE0A82EFE012491222349
:103B700009F497C0213009F03EC03196849181301C
:103B800031F42296FE0184910E94311D07C08230DB
:103B900039F42296FE0184910E948E1C2196E5CF75
:103BA000833031F42296FE0184910E94FD1BF6CFF2
:103BB000843009F074C02296FE01249190E080E0E8
:103BC000FE0131962053330B2A30310548F001971E
:103BD00028F3EFE9FFE03197F1F700C00000F7CFDD
:103BE000A89EA001A99E500D1124C901840F951F04
:103BF0002491EF01E5CFE22FF0E0EC50FE4FB490BE
:103C0000822F86958695869590E0FC01EC51FE4FBB
:103C1000E4902770F12C022E02C0F594E7940A94E8
:103C2000E2F731E0E322FF24FC01EC52FE4FC490A6
:103C3000D12C022E02C0D594C7940A94E2F7E1E099
:103C4000CE22DD24FC01EC53FE4F049110E002C0B3
:103C5000159507952A95E2F701701127E114F104F3
:103C600019F081EE0E948E1CC114D10419F086EE69
:103C70000E948E1C8B2D0E94311DC114D10419F09D
:103C800086EE0E94FD1BE114F10419F081EE0E9402
:103C9000FD1B0115110509F481CF8CE275CFEF01F1
:103CA0007DCFCDB7DEB7EAE00C942F33CF93DF930F
:103CB000EC010E94790D9E01205E3109283031050A
:103CC00040F40E9408148C2F0E948E1CDF91CF912B
:103CD00008950E94F713F7CFCF93DF93EC010E9472
:103CE000561EC933D10549F42FEF87EE93E02150DA
:103CF00080409040E1F700C00000CE010E94321CDD
:103D0000DF91CF910895CF93DF93EC0188818330C9
:103D100061F48DE491E00E946C1E8DE491E00E94BC
:103D20006C1E8DE491E00E946C1E8881843020F02E
:103D30008DE491E00E946C1EDF91CF9108950E9466
:103D4000831E0895CF93DF93EC018881833061F463
:103D500085E390E00E946C1E85E390E00E946C1E5B
:103D600085E390E00E946C1E8881843020F085E31A
:103D700090E00E946C1EDF91CF9108950E94860D05
:103D800080930502833039F0853051F0813039F469
:103D90008DE491E002C08AE491E00E94561E0895ED
:103DA0008DE491E00E946C1EF3CF0E94860D8093FB
:103DB0000302833039F0853051F0813039F48DE4DD
:103DC00091E002C08AE491E00E94561E08958DE4BD
:103DD00091E00E946C1EF3CF0E94860D8093010239
:103DE000833039F0853051F0813039F485E390E04B
:103DF00002C082E392E00E94561E089585E390E09F
:103E00000E946C1EF3CFB0E0A0E0E9E0FFE10C946B
:103E100014338091190190911A01892BB9F0809186
:103E2000BF028F5F8093BF02811110C00E948E1469
:103E300090E090931A0180931901892B39F40E9424
:103E4000680E81E0809318010E94A5160DEC12E027
:103E50007801B12CD0E087E0C82ECD0E8D2F0E94C6
:103E6000BA118C2D0E94BA118D2F0E9405158F73E7
:103E7000F7019081D12C891719F08083DD24D39428
:103E80008C2D0E9405158F73F7019781891709F40E
:103E900044C0878381E08D29B82A0E94B70DDF5F77
:103EA000FFEFEF1AFF0AD730B1F6D091C302DD233E
:103EB00009F47AC00E9448162091C1023091C202D2
:103EC000AC01421B530B9A019093C2028093C10232
:103ED0004F3F510509F018F5452BE1F01092C30250
:103EE0001092C002E091C702F091C802AF01425F98
:103EF0005F4F90E030E08081882321F0281790F018
:103F000010829D2F3196E417F507A9F73093C3026D
:103F10009093C002B11057C04AC080E0BCCF2FEFD1
:103F200030E0DCCF821B80833D2FECCF9170892B5A
:103F300009F47CC08091C5029091C60281309847F7
:103F400080F01092EC036091DB027091DC028091B2
:103F5000DD029091DE020E9412171092C6021092AA
:103F6000C5028091C5029091C60201969093C60247
:103F70008093C5028B2DCDB7DEB7E9E00C943033CA
:103F80000E94B10D5AC0892BA9F31092C60210925B
:103F9000C5026091DB027091DC028091DD0290919C
:103FA000DE020E941217E6CFDB2DB11006C0809111
:103FB000C002882349F1D11106C00E94481690938F
:103FC000C2028093C102A091C702B091C802809141
:103FD000C302E1EEF2E02FEE32E04EE15191E80152
:103FE00099918E01591751F05C91511107C04C9372
:103FF000BF0161507109EB01988381E011962E1782
:104000003F0761F78093C3028091C5029091C60279
:104010002091EC03222309F4B6CF009709F086CF54
:104020000E94A80D0E94A50D0E94A20DD091C4026D
:10403000DD2309F4A5CF0E94A50D81E0D827D093F8
:10404000C40278CFA3E2B0E0E8E2F0E20C940B33D4
:104050003C01DC0113968D919C911497892B41F0C2
:104060008C9111969C9189238F3F11F00C94C52956
:10407000A396E2E10C9427330E94560C182F682F68
:1040800089819A810E94D40C69817A81812F0E9452
:10409000950A4C01F3018281811181C0C4018150D4
:1040A0009545D4018F3F910508F4B7C0F301F28123
:1040B000FBA3FF2309F41EC3AF3FB10509F008F4C9
:1040C000C8C0AC32BD4509F4ABC010922602D090F6
:1040D000EC03DD2009F48AC3ABA1A111A7C0E091D4
:1040E0002702E330A0F481E08E0F80932702F0E0F6
:1040F000EE0FFF1FEF5FFC4FD3018D919C919183D9
:10410000808382E08983CE0101960E944C06BFEF36
:10411000E3EDF0E3B150E040F040E1F700C0000013
:1041200080912702833009F081C01092EC03109235
:104130002702909102038091080398130C94BF29E1
:10414000909101038091070398130C94BF299091DB
:10415000040380910A0398130C94BF2990910303E0
:104160008091090398130C94BF2990910C038091BE
:10417000060398130C94BF2990910B0380910503BB
:1041800098130C94BF2984E0898381E08093ED0328
:104190008EEF8A83CE0101960E944C0647C0809123
:1041A000160190911701019609F478CF09E211E008
:1041B000F12CE12CDD24D39480911601909117010C
:1041C0008E159F050CF46ACFD80116968C91169720
:1041D0008823E9F019968D919C918815990539F4F9
:1041E00080912803909129038815990581F0F801A1
:1041F000D786948683868189811103C0C8010E9475
:104200008413C80106960E94A31310922A03FFEF9D
:10421000EF1AFF0A0A5E1F4FCFCF25E5B22746CF20
:104220008091260291E0892780932602809199024D
:10423000877009F41DCFD30112968C91882309F45D
:1042400017CF8091390382FF13CF82E00E94731849
:104250000FCF80912602882309F4E8C0109226022D
:10426000A03CB105E8F5A038B10508F0A9C0A0341C
:10427000B10508F06FC021E030E040E050E060E0C0
:1042800070E080E090E00A2F0E947933E09106020E
:104290002E2BE09107023E2BE09108024E2BE0917D
:1042A00009025E2BE0910A026E2BE0910B027E2B3D
:1042B000E0910C028E2BE0910D029E2B20930602C2
:1042C00030930702409308025093090260930A0258
:1042D00070930B0280930C0290930D024D01F7CE68
:1042E000AF3FB10509F038F68D01005C110921E0FE
:1042F00030E040E050E060E070E080E090E00E945C
:104300007933E0911E022E2BE0911F023E2BE091AB
:1043100020024E2BE09121025E2BE09122026E2BB7
:10432000E09123027E2BE09124028E2BE091250266
:104330009E2B20931E0230931F0240932002509325
:1043400021026093220270932302809324029093AF
:104350002502C4CF8D010054110921E030E040E076
:1043600050E060E070E080E090E00E947933E091FE
:104370000E022E2BE0910F023E2BE09110024E2BED
:10438000E09111025E2BE09112026E2BE09113027C
:104390007E2BE09114028E2BE09115029E2B209330
:1043A0000E0230930F02409310025093110260935B
:1043B00012027093130280931402909315028ECF11
:1043C0008D010058110921E030E040E050E060E04C
:1043D00070E080E090E00E947933E09116022E2B8D
:1043E000E09117023E2BE09118024E2BE09119024A
:1043F0005E2BE0911A026E2BE0911B027E2BE09166
:104400001C028E2BE0911D029E2B209316023093EE
:104410001702409318025093190260931A02709386
:104420001B0280931C0290931D0258CFA034B1054B
:1044300008F06BC0E0910602F0910702509008026C
:104440004090090230900A0220900B0230910C0239
:1044500039A380910D028AA321E030E040E050E0D2
:1044600060E070E080E090E00A2F0E947933A22E95
:10447000AE22B32EBF22C42EC520D52ED420E62EC8
:10448000E320F72EF22009A108231AA119230E9484
:10449000923309F01CCEA03CB10508F096C0A038BC
:1044A000B10508F0F7C0A034B10508F0C3C021E0A1
:1044B00030E040E050E060E070E080E090E00A2F03
:1044C0000E94793320953095409550956095709570
:1044D000809590952E233F234521542163217221FD
:1044E000A9A18A23BAA19B23209306023093070235
:1044F000409308025093090260930A0270930B02E2
:1045000080930C0290930D0291CEA038B105F0F487
:10451000E0910E02F0910F025090100240901102B3
:1045200030901202209013029091140299A32091CE
:1045300015022AA321E030E040E050E060E070E0A6
:1045400080E090E08D01005411098FCFA03CB105AF
:10455000F0F4E0911602F09117025090180240908A
:10456000190230901A0220901B0230911C0239A3CC
:1045700080911D028AA321E030E040E050E060E03D
:1045800070E080E090E08D01005811096ECFE0915D
:104590001E02F0911F0250902002409021023090A4
:1045A0002202209023029091240299A320912502B7
:1045B0002AA321E030E040E050E060E070E080E0DD
:1045C00090E08D01005C110950CFAF3FB10511F0B3
:1045D00008F06DCF8D01005C110921E030E040E072
:1045E00050E060E070E080E090E00E947933209538
:1045F00030954095509560957095809590952E23B7
:104600003F234521542163217221E9A18E23FAA180
:104610009F2320931E0230931F0240932002509349
:1046200021026093220270932302809324029093CC
:104630002502FCCD8D010054110921E030E040E05D
:1046400050E060E070E080E090E00E9479332095D7
:1046500030954095509560957095809590952E2356
:104660003F234521542163217221E9A18E23FAA120
:104670009F2320930E0230930F0240931002509319
:1046800011026093120270931302809314029093AC
:104690001502CCCD8D010058110921E030E040E039
:1046A00050E060E070E080E090E00E947933209577
:1046B00030954095509560957095809590952E23F6
:1046C0003F234521542163217221A9A18A23BAA144
:1046D0009B232093160230931702409318025093A5
:1046E000190260931A0270931B0280931C0290932C
:1046F0001D029CCDAF3FB10511F008F0E8CCA0340D
:10470000B10550F5A0900602B0900702C0900802D3
:10471000D0900902E0900A02F0900B02F0910C0296
:10472000E0910D0221E030E040E050E060E070E018
:1047300080E090E00A2F0E947933A222B322C422A3
:10474000D522E622F722082F0F23192F1E230E94BD
:10475000923309F0BCCC6ACDA038B105E0F4A0904A
:104760000E02B0900F02C0901002D0901102E090A3
:104770001202F0901302F0911402E09115028D01E3
:104780000054110921E030E040E050E060E070E0CA
:1047900080E090E0D0CFA03CB105A0F4A09016023C
:1047A000B0901702C0901802D0901902E0901A023F
:1047B000F0901B02F0911C02E0911D028D01005847
:1047C0001109E0CFA0901E02B0901F02C0902002FD
:1047D000D0902102E0902202F0902302F091240276
:1047E000E09125028D01005C1109CCCF8091ED0391
:1047F000882381F0ABA187E0A11186E08983F301D2
:1048000080818A8381818B838EEF8C83CE01019698
:104810000E944C06FFEA8F16FDE59F0609F0C1C015
:10482000D30112968C918823C9F18091C90291E03D
:10483000980F9770887F953008F4892B8093C90270
:104840008091C9028770BFEF8B9FC001112495959D
:1048500087959595879599279093890080938800EF
:1048600090938B0080938A0090938D0080938C00AE
:104870004091C9025091CA026091CB027091CC0262
:104880008FE090E00E948E356091DB027091DC0237
:104890008091DD029091DE020E941217C4019755AB
:1048A0008F3F910511F008F063C1209116013091FE
:1048B00017012817390724F49093170180931601E4
:1048C000F301228136E1389F7001399FF00C1124E9
:1048D0008701075D1E4FD80150962C935097928107
:1048E00016968C911697992309F434C11A969C92C6
:1048F0008E9219978F5F16968C930E944816F80136
:10490000968785878091BA02878380912A03909148
:104910003E03892B80870190F081E02D309741F094
:10492000D80154966D917C91C701815D9E4F099588
:10493000909229038092280380912703882309F409
:10494000DEC100913E031091BA020E9448168854BD
:10495000944F9093FF028093FE02F301828188239B
:1049600009F4CDC1102B1D7909F0AAC18114F5E518
:104970009F0608F08AC1811423E5920608F020C141
:10498000811430E5930608F016C1811480E498067E
:1049900008F099C196EE8916910409F411C1C40179
:1049A00098C1F401E05BFD45E631F10508F076CFF2
:1049B000EA5EF94CD30112968C910C9464338823EF
:1049C00009F434CC80E294E00E94AC1D8CE194E0C8
:1049D0000E94AC1D1092290281E026C0882309F4B0
:1049E00025CC80E194E00E94AC1D8CE094E0F0CFF7
:1049F000882309F453CF82EF93E00E94AC1D4ECF81
:104A0000882309F44BCF88ED93E0F7CF882309F48E
:104A10000DCC8EEB93E00E94AC1D8AEB93E00E94DC
:104A2000AC1D1092290282E00E942D18FFCB882332
:104A300009F434CF8AE993E0E0CF882309F4F6CB78
:104A400086E893E00E94AC1D82E893E0E8CF8823DB
:104A500009F424CF80E693E0D0CF882309F4E6CB95
:104A60008CE593E00E94AC1D88E593E0B1CF8823EC
:104A700009F4DCCB84E593E00E94AC1D80E593E073
:104A8000A7CF882309F4D2CB8CE493E00E94AC1D1D
:104A900088E493E09DCF882309F4C8CB84E493E0B5
:104AA0000E94AC1D80E493E0BACF882309F4BECB0A
:104AB00080E293E00E94AC1DB9CB882309F4B6CB09
:104AC0008CE093E0F7CF882309F4B0CB8CEE92E032
:104AD000F1CF882309F4AACB8CEC92E0EBCF8823AA
:104AE00009F4A4CB88EB92E0E5CF882309F49ECBB0
:104AF00088E992E0DFCF882309F498CB80E892E040
:104B00000E94AC1D8CE792E063CF882309F48ECB22
:104B100080912902811108C088E792E00E94AC1DB3
:104B200081E08093290282CB84E792E00E94AC1D51
:104B3000109229027BCB882309F478CB81E03AC11B
:104B4000882309F473CB8091280291E08927809310
:104B500028026CCB882309F4EFCEF80181898823E1
:104B600009F4EACEC701815D9E4F0E94A313E4CEF3
:104B7000FEEA8F16FDE59F0609F0DECED301129600
:104B80008C91882309F452CB80912703882319F054
:104B90000E94ED134BCB10923E030E94380C0E94F2
:104BA00048168854944F9093FF028093FE0281E050
:104BB000809327033BCB8114A2E59A0608F0EFCE41
:104BC000D30112968C91882309F4F4C310926E03DA
:104BD000BCE58B16BDE59B0609F473C108F0D6C091
:104BE0008114FCE59F0609F420C12FED82162CE507
:104BF000920609F459C1F301828100811181882351
:104C000009F463C1C8010E94560CF82E682FC80130
:104C10000E94D40CB8018F2D0E94950A0E94B00A00
:104C20008C01A82ED3011296FC9012971596BC9079
:104C3000B2943FE0B322809199028770C1F0FF20C7
:104C4000A9F0812F807F803421F080E2800F8830AE
:104C500070F08091390382FF0AC082E00E947318CD
:104C6000809199028770DD24D3948111D12CC12EBB
:104C7000C2942FE0C222BBE0BC1508F487C1EC2D22
:104C8000F0E0E45DF94C0C9464338114B9E59B06C3
:104C900060F48114E8E59E0608F092CFF4E18F16E7
:104CA000F5E59F0609F07BCE8BCFC40190568115A8
:104CB000904208F074CED30115968C91807F39F420
:104CC0000E94ED131CC0F3018581807FC1F0C401F7
:104CD000992710922A038832910548F48E31910564
:104CE00060F4049768F382E080932A0306C08D3253
:104CF0009105C9F3F0F48A9719F70E942F1324EF56
:104D000082162CE5920699F1D8F489ED88168CE587
:104D1000980649F19AED89169CE59906A1F1A8ED4E
:104D20008A16ACE59A0609F04BCF26E241EE61EE19
:104D300016C08C34910509F38D329240F1F2C0CF48
:104D4000B6EF8B16BCE59B06D1F0A8F027E245EE46
:104D500066EEF7EF8F16FCE59F0609F031CFC30131
:104D60000E944F1D63CA27E245EE65EEF8CF26E2AA
:104D700041EE60EEF4CF27E245EE64EEF0CF26E29E
:104D800041EE62EEECCF28E241E0EFCF3EE5831644
:104D90003DE5930609F48BC008F495C099EA89169D
:104DA0009DE5990609F027CF0E94E51B816080935D
:104DB000E70386950E94EA1639CA4EEE56E168EF7F
:104DC00076E10E948C0832CA48EF56E16EEE76E139
:104DD000F8CF48ED52E16EEC72E1F3CF44EB52E1D3
:104DE00061EC72E1EECF4AE952E167EA72E1E9CFA4
:104DF00047EA52E16AE972E1E4CF44EF52E162EE40
:104E000072E1DFCF65E082E00E9403170FCA68E01D
:104E100086E0FACF64E18FE0F7CF67E185E1F4CF78
:104E200062E289E1F1CF83E2C5CF10923E030E9496
:104E3000D818AFEFB4E3ECE0A150B040E040E1F7A8
:104E400000C00000F89481E08093E00080E280934D
:104E5000D8001092C9008FE19EE40197F1F700C0DD
:104E600000001DBA109268001CBC10BE1FBA109240
:104E70007A0010926E0010926F00109271001092E2
:104E800072001092C9001092BC0014B817B81AB87A
:104E90001DB810BA1092BC0015B818B81BB81EB8CF
:104EA00011BA0C94003FC2C90E9412147DCF8091A8
:104EB000390382FB882780F991E089270E948F18A7
:104EC0009ACE81E0FBCF80E0F9CFC8010E949F0C11
:104ED000F82EA0CEE12FEF70EE2E107F19F0E294A5
:104EE00090EFE922FF20B9F0EE2069F080E2800F18
:104EF000883010F0A11009C080913E03E82AE092AA
:104F00003E030E942F13802F3FC080912A03E82A7E
:104F1000E0922A03F6CF802F0E94FD1BEE20B1F114
:104F2000005E8E2D083010F0A11003C00E94450CC9
:104F300002C00E943E0C0E942F1328C0F12FFF7068
:104F4000EF2E107F103219F0E29480EFE822AA20B1
:104F500059F021E0A21609F472C0FF2009F47AC0CA
:104F6000BB2009F472C0CFCF2091390322FD44C089
:104F7000FF20D9F1EE2039F080913E03E82AE0923B
:104F80003E030E942F1380E00E948E1CAC2DA8507F
:104F9000BB0B149710F40E947F08DD20A9F08091CC
:104FA000990280FD11C0F301128285958595859542
:104FB0000E94AB18C3010E9422208091990285951E
:104FC000859585950E944F1885E0F301DE011196C5
:104FD00001900D928A95E1F709811A81C8010E941A
:104FE0009F0CB8010E94950A43C880E00E94FD1BF7
:104FF000EE2061F28E2D9ACFFF20A1F09091BA029F
:105000008E2D892BB11003C00E940814BFCF31E050
:10501000B312FACF22FFBACF891709F4B7CF809322
:10502000BA02B4CFB11006C00E94380C8E2D0E9477
:105030000114ACCF81E0B81609F4A8CFF5CFFF205A
:1050400031F091E09B1508F4A1CF8E2DDDCFB1108A
:105050009DCFECCFBB2051F3A9E3AA1209C0BFEF4B
:10506000E7EEF3E0B150E040F040E1F700C00000AF
:10507000802F0E94FD1B8ACF812F86958695837095
:1050800061F0813009F082CFC8019370F11002C045
:1050900090E080E00E94530879CFC8019370F1102E
:1050A00002C090E080E00E94690870CF802FFF204E
:1050B00029F00E94F6090E94A71768CF0E943909BB
:1050C000FACF812F837009F066C0F1105FCF802F77
:1050D000829586958770880F880F602F6F70862E57
:1050E000912CB12CA12C082E04C0880C991CAA1C50
:1050F000BB1C0A94D2F740E050E0BA0104FF0FC095
:105100004FE050E060E070E004C0440F551F661FA0
:10511000771F8A95D2F74095509560957095812FAD
:10512000869586958370823019F1D8F40091BB0280
:105130001091BC022091BD023091BE02813069F015
:10514000482959296A297B29CB01BA016023712397
:10515000822393230E94CD1819CF802A912AA22A54
:10516000B32ACB01BA01682979298A299B29F2CF70
:10517000482959296A297B290091BB021091BC0258
:105180002091BD023091BE02CB01BA016027712788
:1051900082279327DFCF8695FF2011F0812F817022
:1051A000882309F4F3CE802F829586958770880F27
:1051B000880F602F6F70862E912CB12CA12C082E99
:1051C00004C0880C991CAA1CBB1C0A94D2F740E0AE
:1051D00050E0BA0104FF0FC04FE050E060E070E023
:1051E00004C0440F551F661F771F8A95D2F740955C
:1051F000509560957095812F869586958370823045
:1052000019F1D8F40091DB021091DC022091DD024B
:105210003091DE02813069F0482959296A297B29B9
:10522000CB01BA0160237123822393230E94EA17E2
:10523000ADCE802A912AA22AB32ACB01BA016829CD
:1052400079298A299B29F2CF482959296A297B295A
:105250000091DB021091DC022091DD023091DE0230
:10526000CB01BA016027712782279327DFCF1F70F8
:10527000FF2029F0812F0E94AB18802FC5CE802FF0
:105280000E940114812F0E944F1880CE802F22EFA0
:10529000A21669F12A1570F030EFA316D1F091EF44
:1052A000A91691F0FF2009F45AC0B1102CCE812F1D
:1052B0008F7121C0A3EFAA1609F1B4EFAB12F2CFA0
:1052C0008091390382FD2DC0812F8F71FF20D9F28B
:1052D00012C0FF2039F0B11059CE812F8F710E947A
:1052E0002D1854CEE1E0EB1508F450CEF6CF812F07
:1052F0008F71F110C8CF0E94AB1848CE60E070E00B
:10530000CB01FF2009F492CF1F7161E070E080E0D3
:1053100090E004C0660F771F881F991F1A95D2F777
:1053200085CFFF2089F01F71812F0E94AB188091DB
:10533000390382FF07C0F8E01F9FC001112483607A
:1053400080939902812FD7CF81E00E94731821E0CA
:105350002B1508F01BCE82E00E94731817CEBB20DD
:1053600059F0893309F084CE3FEF87EE93E0315056
:1053700080409040E1F77ACE812F8F7184CF83E017
:1053800089831092ED030C94C82085E0F301DE01BF
:10539000119601900D928A95E1F7D30112962C9106
:1053A00089819A8121110C943C200E949F0C182F16
:1053B0000C94442080913E038272BDEC8B16BCE5B8
:1053C0009B0609F41ACD08F056C0F7EC8F16FCE5E1
:1053D0009F0609F4FECC30F534EC83163CE59306C9
:1053E00009F4EBCC70F4A3EC8A16ACE59A0609F04C
:1053F00002CC8091E70380FFD9CC0E9406130C9465
:105400001621B5EC8B16BCE59B0609F4DDCC4EEC01
:1054100052E168ED72E1E6EC8E16ECE59E0609F4C9
:10542000D0CCE9CBFAEC8F16FCE59F0609F4DBCC77
:1054300088F438EC83163CE5930609F4CFCC41ECB4
:1054400052E164EB72E199EC89169CE5990609F446
:10545000B8CCD1CBABEC8A16ACE59A0609F4C8CC33
:1054600042EE52E164EF72E1BCEC8B16BCE59B06A8
:1054700009F4A7CCC0CBE2ED8E16ECE59E0609F44C
:10548000C9CCB8F42FEC82162CE5920609F4BACCFC
:1054900008F454CB80ED88168CE5980609F4B7CC57
:1054A0006EE089E091ED89169CE5990609F4ACCC93
:1054B000A2CBA5ED8A16ACE59A0609F4B1CC70F43E
:1054C000E3ED8E16ECE59E0609F4A7CC88E1F4ED39
:1054D0008F16FCE59F0609F46DCC8DCB26ED821668
:1054E0002CE5920609F49FCC3FE583163DE5930633
:1054F00011F40C9416217FCB1F93CF93DF938091EF
:105500006602807F09F049C080916302882309F414
:1055100044C080919802D0916702609161027091BD
:105520006202A0916402B0916502C62FC72316E003
:10553000D81799F190E0109711F0CF3F19F4019628
:105540008770F6CF189F9001199F300D1124F90133
:10555000E859FD4F41814713F2CF40814613EFCF09
:1055600042814111ECCF438154814A1B5B0B453A88
:10557000510528F7809166028F70806180936602E2
:10558000F901E359FD4F80818F708061808381E64E
:1055900092E00E9422200E944C0CDF91CF911F913B
:1055A0000895A1E1B0E0E7EDFAE20C9413338C0129
:1055B00085E0F801DE011D9601900D928A95E1F7D4
:1055C000F801E28081E6A82E82E0B82E60916402A4
:1055D000709165026115710509F426C1909161020F
:1055E00040916202892F84238F3F09F41DC12081DD
:1055F0003181C380D480F0906302F601E61BF70B83
:10560000FF2009F4DCC080916602582F507FE53AF4
:10561000F10508F09FC051116BC0FE2C431314C05C
:10562000921312C0E11010C08F70806180936602E7
:10563000C5010E94222080916602F80185838F2D8A
:105640006196EAE00C942F33C114D10429F0822F23
:1056500083238F3F09F003C180E0F82FF170DF2E24
:1056600080FF3CC0809198024091670256E084130D
:1056700015C02D873E878D859E850E94920C292F0F
:1056800022952F702230F0F0243018F59F70F1F041
:10569000F8019581907FD1F4D12C1EC090E0589FE5
:1056A000F001599FF00D1124E859FD4F6181361327
:1056B00006C06081261303C06281E6120FC0019606
:1056C0008770D5CF9F7011F0882331F3805E8830CA
:1056D00018F3C8010E942220FD2CB1CFEE2009F45E
:1056E000AECF80916602816080936602F12CA7CFD5
:1056F000431306C0921304C0F801EE2009F479C0E8
:10570000C8010E940C0D882309F1EE20F9F0809168
:105710006602803270F02091610230916202388717
:105720002F831986DB86CA868C87CE0107960E9456
:10573000222086E0F801A1E6B2E001900D928A9560
:10574000E1F70E947C2AFF24F39479CFC8010E94DC
:105750002220F9CF51110AC081E692E00E94222056
:1057600086E0F50111928A95E9F7C0CF43130FC087
:1057700092130DC0E1100BC0F8018583C8010E948F
:10578000222086E0F50111928A95E9F758CFC801E9
:105790000E940C0D8823D1F2EE20C1F280916602A6
:1057A000803238F220916102309162023A8329837B
:1057B0001B82DD82CC828E83CE010196B8CFE53A82
:1057C000F105F8F6FE2CEE2009F243131FC09213E8
:1057D0001DC08091660280FD10C0982F907F69F0F7
:1057E000F8018583903F31F0982F907F905F8F7004
:1057F000892B8583C8010E94222086E0F801A1E65A
:10580000B2E001900D928A95E1F719CFC8010E948C
:105810000C0D81118ECF80916602816080936602AB
:10582000C8010E9422200BCFEE2009F48FCFC801BF
:105830000E940C0DF82E882309F488CF86E0F80129
:10584000A1E6B2E001900D928A95E1F780916102A4
:10585000909162020E94920C0E947C2AF0CE81E01C
:105860008E25FBCEA7E1B0E0E8E3FCE20C941A330E
:105870004B8B5C8B6D8B7E8B8F8B611110922A030F
:105880001A8A198A85E0FE017396DE011D96019041
:105890000D928A95E1F786E0FE013D96DE011796AE
:1058A00001900D928A95E1F7CE0107960E94D12AC8
:1058B000882359F016E0809198029091670289132D
:1058C00045C06796E3E00C94363386E0FE013796D8
:1058D000DE01119601900D928A95E1F78A859B85EC
:1058E000892B41F38F81988589238F3F19F320916C
:1058F000670230E0C90101968770992740919802AC
:105900004817190681F410923E030E94D81810928D
:1059100067021092980286E0E1E6F2E0DF011D9254
:105920008A95E9F7C7CF96E0929FD001939FB00D7B
:105930001124A859BD4FFE01319601900D929A9500
:10594000E1F7809367020E944C0CB4CF819FC001A5
:10595000112488599D4F0E94D12A882309F4B1CF80
:105960008091980290E00196877099278093980221
:10597000A2CF1F921FB61F9211248F939F93AF93B4
:10598000BF9380913103811113C0809132039091B4
:105990003303A0913403B09135034196A11DB11D8D
:1059A0008093320390933303A0933403B093350371
:1059B000BF91AF919F918F911F901FBE1F9018951F
:1059C000CDB7DEB7CC57D1090FB6F894DEBF0FBE06
:1059D000CDBF85B7806885BF85B7806885BF84B730
:1059E000877F84BF0FB6F894A89580916000886186
:1059F00080936000109260000FBE80E890E00FB6C8
:105A0000F89480936100909361000FBE80E59AE066
:105A10009093DF018093DE010E94D0050E94F5067D
:105A20008091E20084608093E20078948091EE039C
:105A30008823A1F01091E9001F709091EC00892F4C
:105A4000817090FD80E8182B1092E9008091E800A9
:105A500083FD0E94EC181F701093E90082E084BD62
:105A600093E095BD9AEF97BD80936E000E948E14CF
:105A700090E090931A01809319010E94B70D0E9443
:105A8000C60DEDECF2E08BED92E0A1EEB2E01192EA
:105A90001D928E179F07D9F78EE090E00E94033485
:105AA0008093C7029093C802FC010E961192E817EA
:105AB000F907E1F789EA8093800089E0809381000B
:105AC00024982C983F988AB18F7C8AB96E98479A0F
:105AD0008BB180638BB9769A8FE090E00E9460353D
