:100000000C943F050C945C050C945C050C945C0509
:100010000C945C050C945C050C945C050C945C05DC
:100020000C945C050C945C050C9491140C94EF1AE0
:100030000C9487280C945C050C945C050C945C056E
:100040000C945C050C945C050C945C050C945C05AC
:100050000C945C050C946A150C945C050C945C057E
:100060000C945C050C945C050C945C050C945C058C
:100070000C945C050C945C050C945C050C945C057C
:100080000C945C050C945C050C945C050C945C056C
:100090000C945C050C945C050C945C050C945C055C
:1000A0000C945C050C945C050C945C05050109023C
:1000B000A10185020901A1000509190129081500FE
:1000C0002501950875018102050109300931158165
:1000D000257F95027508810609381581257F9501D0
:1000E00075088106050C0A38021581257F95017572
:1000F000088106C0C005010980A101850319012AF4
:10010000B700150126B700950175108100C0050CD8
:100110000901A101850419012AA002150126A002E6
:10012000950175108100C005010906A1018506052C
:100130000719E029E71500250195087501810205D9
:1001400007190029EF1500250195F07501810205B9
:10015000081901290595057501910295017503910D
:1001600001C00660FF0961A1010962150026FF00B8
:100170009520750881020963150026FF00952075FA
:10018000089102C005010906A101050719E029E748
:1001900015002501950875018102950175088101F9
:1001A0000507190029FF150026FF0095067508812F
:1001B000000508190129059505750191029501753C
:1001C000039101C0000000000000000000000000DA
:1001D000000000000000000000000000000000001F
:1001E00000000000000000007E0F00D4FFFFFFC7EA
:1001F0000000007800000000000000002A2B28000A
:1002000000000000000000000000000000000029C5
:10021000000000002C1E3420212224342627252E05
:10022000362D3738271E1F2021222324252633333D
:10023000362E37381F0405060708090A0B0C0D0E69
:100240000F101112131415161718191A1B1C1D2F35
:100250003130232D350405060708090A0B0C0D0E55
:100260000F101112131415161718191A1B1C1D2F15
:100270003130354C01014C0001014C0001014D00B1
:1002800001014A0001014A01043130307C0101289A
:1002900001043130307C01015201043130307C01E5
:1002A00002E00101190103E00001014A01043830B4
:1002B0007C010128010438307C0101520001014A0F
:1002C00001043130307C0102E101014D0103E10103
:1002D000043130307C0102E00101060103E000013D
:1002E000014A010438307C0102E101014D0103E1C2
:1002F000010438307C01012A0001014A0104313037
:10030000307C0102E101014D0103E1010431303093
:100310007C01012A0001014D01043130307C0101D2
:100320002801043130307C0102E00101190103E0B1
:100330000001014D010438307C010128000102E177
:1003400001014D0103E1010438307C01012A002B39
:10035000042B012961E100E00000001E00140004EC
:10036000001D00640036021F001A0016001B00006A
:10037000572B002000080007000600E2002C002197
:100380000015000900190001582F02220017000A69
:1003900000050000002602230046000000B05D00BA
:1003A000002F00240014500000AE5D000030002536
:1003B000001C000B00110000002702260018000D91
:1003C0000010000258300227000C000E00360034E6
:1003D000002A002D0012000F0037001F0228002EF7
:1003E000001300330038003200370203530007E3E4
:1003F00000E1004C0000000100AC00010001000120
:100400000000003A001A01BB5D010001004B003BF7
:10041000004F011601BC5D010001003C000F014CC2
:1004200001B25D010001003D001C01010049000115
:100430000001003E000100015750010000FB003F99
:10044000000100000001000000FA0040000100006F
:100450000001000000F90041000601500001000009
:1004600000FC0042001D0151000100010001004399
:1004700000BA5D5200010001002A014400B35D4F43
:10048000000100010001004500B45DAE000901C398
:100490005C4E000100AB0001000100010000000102
:1004A00000AC0001000100010000001E011A014D16
:1004B000000100FD004B001F014F011601BD5DFE54
:1004C00000010020010F01B55DB65DFF00F10021C4
:1004D0000115010100490001000100220101000293
:1004E0005750010000FB00230146000000010000FE
:1004F00000FA0024010100000001000000F90025BD
:1005000001B75DEF0001000000FC0026011D01EEB7
:1005100000010001000100A8004A00ED00010001F7
:1005200000F200AA00B85DF000010001000100A97E
:1005300000B95DAE00090101004E000100AB0001F1
:10054000000100010000000100010001000100099C
:100550005D000059004C0001000100010001005A3B
:1005600000F10016011B01010001005B000F05F204
:1005700000FD00010001005C0015010501FE000105
:1005800000CB5C5D0001000100FF000000FB005E8D
:10059000000100000001000000FA005F00010000FF
:1005A0000001000000F90060000601EF00AC00004F
:1005B00000FC0061001D01EE00AA000100CA5C629F
:1005C000000100ED00A9000100010001000100F0A0
:1005D00000AB0001000100530019010100A800AFA9
:1005E0005D010001000100C35C0100005C0000012E
:1005F00000010001000100010000000100010001F4
:1006000000010001000100010001000100010001E2
:10061000000100010001000100010001002B0001A8
:10062000000100010001002C000100010001000197
:1006300000010000000100010001000000010000B5
:100640000001000100105000000100000001000145
:100650000001000100010000000100010001000193
:100660000001001150010001000100010001000122
:100670000001000100010001000100010001000172
:100680000001000100010001000100010001000162
:100690000001000100000000047F3F1F6432146469
:1006A0003214783C1E1E140A0500010101010101EB
:1006B0000101010202020202020202020303030319
:1006C00003030303040404040404040505050505E9
:1006D00006060606060707070707080808080909A7
:1006E00009090A0A0A0B0B0B0C0C0C0D0D0D0E0E52
:1006F0000E0F0F0F101011111112121313141415E5
:100700001516161717181819191A1A1B1B1C1D1D58
:100710001E1E1F20202122222324242526262728AE
:1007200029292A2B2C2D2D2E2F30313232333435DE
:10073000363738393A3B3C3D3E3F404142434445E1
:10074000464748494A4C4D4E4F50515354555658C0
:10075000595A5B5D5E5F616264656668696B6C6D6A
:100760006F7072737577787A7B7D7E8082838587E0
:10077000888A8C8E8F91939596989A9C9EA0A2A31E
:10078000A5A7A9ABADAFB1B3B5B7BABCBEC0C2C423
:10079000C6C9CBCDCFD1D4D6D8DBDDDFE2E4E7E9E3
:1007A000EBEEF0F3F5F8FAFDFFFFAA7F55402223A8
:1007B000252628292A2C2D2F3032333536383A3B3E
:1007C0003D3E4042434547494A4C4E505153555790
:1007D000595A5C5E6062646668696B6D6F717375AF
:1007E00077797B7D7F81838587898A8C8E909294AF
:1007F00096989A9C9E9FA1A3A5A7A8AAACAEAFB1BC
:10080000B3B4B6B8B9BBBCBEBFC1C2C3C5C6C7C905
:10081000CACBCCCDCED0D1D2D2D3D4D5D6D7D7D8BF
:10082000D9D9DADADBDBDBDCDCDCDCDCDDDDDDDD11
:10083000DCDCDCDCDCDBDBDBDADAD9D9D8D7D7D619
:10084000D5D4D3D2D2D1D0CECDCCCBCAC9C7C6C5D0
:10085000C3C2C1BFBEBCBBB9B8B6B4B3B1AFAEAC16
:10086000AAA8A7A5A3A19F9E9C9A98969492908EC1
:100870008C8A89878583817F7D7B79777573716F9A
:100880006D6B6968666462605E5C5A595755535176
:10089000504E4C4A4947454342403E3D3B3A38362C
:1008A000353332302F2D2C2A2928262523220A00E1
:1008B000000000000306B200080001000000A800CC
:1008C000080002000300A0001400030057494E5521
:1008D00053420000000000000000000084000400FB
:1008E00007002A0044006500760069006300650087
:1008F00049006E00740065007200660061006300CC
:100900006500470055004900440073000000500096
:100910007B003900440042003700460031004600A9
:1009200044002D0037004500370041002D00340001
:100930003000300038002D0039003300360042000E
:100940002D003600420041003600430031003900DE
:10095000410033003000380063007D0000000000DB
:100960000E0301646F63732E716D6B2E666D00094B
:10097000027200040100A0FA090400000103010151
:100980000009211101000122400007058103080030
:100990000109040100020300000009211101000106
:1009A000222200070582032000010705030320001F
:1009B00001090402000103000000092111010001E6
:1009C00022B600070584032000010904030002FF8A
:1009D00000000007058503400005070506034000E9
:1009E000051201100200000008973275490100014C
:1009F00002000122034500720067006F0044006F8F
:100A0000007800200045005A00200053006800696B
:100A1000006E006500000028035A005300410020CA
:100A20000054006500630068006E006F006C006F8A
:100A3000006700790020004C006100620073000034
:100A40000004030904050F3900021C100500DF60D3
:100A5000DDD88945C74C9CD2659D9E648A9F000065
:100A60000306B20045001810050038B60834A9097D
:100A7000A0478BFDA0768815B665000142001124C1
:100A80001FBECFEFDAE0DEBFCDBF23E0AEEDB1E0B9
:100A900001C01D92A539B207E1F711E0A0E0B1E075
:100AA000E8EBF3E602C005900D92AE3DB107D9F731
:100AB0000E94AE280C94AF310C940000E8EDF0E0F9
:100AC00080818E7F80831092E2001092DA00109273
:100AD000E100A0EEB0E08C9181608C9380818F77F3
:100AE000808319BCA7EDB0E08C918E7F8C938081C0
:100AF0008F7E808310925C0308952091E4003091F2
:100B0000E50095E6A9012091EC00822F817020FF7D
:100B100006C08091E80080FF06C080E00895209123
:100B2000E80022FD1AC080919003882389F0853067
:100B300089F08091EB0085FD0FC02091E400309199
:100B4000E50042175307F9F29150E1F684E0089569
:100B500082E0089583E0089581E00895EF92FF9286
:100B60000F931F93CF937C018B010E947D05C82FAB
:100B7000882371F08C2FCF911F910F91FF90EF90F0
:100B80000895F70181917F018093F10001501109CF
:100B90000115110579F38091E80085FDF2CF809170
:100BA000E8008E778093E8000E947D05882381F31A
:100BB000C82FE0CFCF93FC0180919003843031F5B2
:100BC000C091E900CF702091EC00922F917020FD30
:100BD00090E8C92B82E08093E9008091E80080FFD3
:100BE00012C050E040E060E270E0CF010E94AE052C
:100BF000882321F010928E0310928F038091E800D9
:100C00008E778093E800CF70C093E900CF9108956C
:100C1000EF92FF920F931F93CF937C018B010E9461
:100C20007D05C82F811117C08091E80085FD0BC09C
:100C30008091E8008B778093E8000E947D058823EF
:100C400099F3C82F08C08091F100F70181937F01CB
:100C50000150110949F78C2FCF911F910F91FF90EF
:100C6000EF9008958091830387FF13C08091E8007F
:100C700082FF06C08091E8008B778093E80004C073
:100C8000809190038111F2CF089580919003882381
:100C9000D9F38091E80080FFF8CF8091E8008E774B
:100CA000ECCF982F9093E900242F762F50E08917EE
:100CB00031F07091EC002091ED005091F00021FD99
:100CC00007C09F5F973071F78093E90081E0089536
:100CD0003091EB003E7F3093EB003091ED003D7F93
:100CE0003093ED003091EB0031603093EB00709366
:100CF000EC002093ED005093F0002091EE0027FDD2
:100D0000E0CF80E00895B0E0A0E0E9E8F6E00C94E0
:100D1000E32EC8EDD0E088818F7E8883E7EDF0E098
:100D200080818160808384E082BF81E080935C0366
:100D300088818E7F888302EE10E0F8011082109285
:100D4000DA0081EEC82ED12CF601108288818F77CF
:100D5000888388818068888388818F7D888319BC97
:100D600010929003109282031092810310928003DC
:100D700090EEE92EF12CF70180818B7F80838881B2
:100D80008160888342E060E080E00E945106F601C5
:100D900080818E7F8083F801808181608083808163
:100DA00088608083F70180818E7F80838881806165
:100DB0008883CDB7DEB7E8E00C94FF2EFC0180916C
:100DC000890390918A0386179707A0F06115710532
:100DD00029F48091E8008E778093E80090E0611517
:100DE000710551F4911108C08091E80082FF35C06F
:100DF00080E00895BC01F2CF809190038823C9F16F
:100E00008530C9F18091E80083FD31C08091E80010
:100E100082FDEACF8091E80080FFE1CF8091F3006E
:100E20002091F200382F6115710519F02830310535
:100E300058F091E02830310509F090E08091E80009
:100E40008E778093E800CBCF84918093F100319628
:100E5000615071092F5F3F4FE6CF80919003882347
:100E600041F0853041F08091E80083FFBDCF81E003
:100E7000089582E0089583E00895FC01809189033C
:100E800090918A0386179707A0F06115710529F4E0
:100E90009091E8009E779093E80090E061157105CD
:100EA00051F4911108C08091E80082FF34C080E0C5
:100EB0000895BC01F2CF809190038823C1F1853061
:100EC000C1F18091E80083FD30C08091E80082FD8F
:100ED000EACF8091E80080FFE1CF8091F30020917C
:100EE000F200382F6115710519F02830310558F0DE
:100EF00091E02830310509F090E02091E8002E774C
:100F00002093E800CBCF81918093F100615071096B
:100F10002F5F3F4FE7CF80919003882341F08530CA
:100F200041F08091E80083FFBECF81E0089582E028
:100F3000089583E00895089580915F0308952091B6
:100F40009003243099F425E02093E90070E050E00C
:100F500040E00E94AE05882321F0109255031092C4
:100F600056038091E8008E778093E80008952091E1
:100F70006B012223C9F02091570327FF15C0E62FEC
:100F8000E695E695E695EE31D8F4E80FF92FF11DD8
:100F9000677021E030E001C0220F6A95EAF72095E2
:100FA0008281282322830895FC013296089621919C
:100FB000621303C0DF0111971C92E817F907B9F714
:100FC000089520914E0330914F032817390771F08F
:100FD00090934F0380934E03E0914C03F0914D03A7
:100FE000309721F00084F185E02D09950895209136
:100FF0004A0330914B032817390771F090934B0344
:1010000080934A03E0914C03F0914D03309721F017
:101010000680F781E02D09950895E0914C03F09149
:101020004D03309729F00190F081E02D0995089546
:1010300080E00895FA01811101C0FB01099508952E
:10104000089580914103982F9E7F29F481708260DA
:101050008093410308958A34E8F381708864F8CF5F
:10106000AF92BF92DF92EF92FF920F931F93CF93B5
:10107000DF93082F162FE901E42FF0E0E755F94F31
:10108000611111C0E4915E2F4E2F4983E8835A838A
:101090001B82DF91CF911F910F91FF90EF90DF9016
:1010A000BF90AF900895E62EF12C4491D42EE42FFA
:1010B000F0E026E0829FC00111242FEF30E0B9015B
:1010C0000E94C52E802F90E0880F991F55E5569FEE
:1010D000D001579FB00D11248A1B9B0B982F990F9D
:1010E000890F5901AE18BF08AE9ED001AF9EB00D5A
:1010F000BE9EB00D11245B2F189F80011124012F7B
:1011000011275901A01AB10AAE9E8001AF9E100DA1
:10111000BE9E100D11245901A81AB108AE9CC00141
:10112000AF9C900DBE9C900D1124892F9927281BF0
:10113000390B2E9FC0012F9F900D3E9F900D1124C3
:10114000E92F62307105A1F050F46115710509F4C1
:101150009CCF6130710581F0EB2F512F96CF643019
:10116000710569F080F06630710509F48ECFF4CF17
:10117000E42F4B2F592F89CFE42F412F86CFEB2F10
:10118000542F492F82CF4B2F5D2DE12F7ECF4091E1
:10119000F4028D3E59F48091F50287FF0DC0109244
:1011A000F50241110BC01092EC0208C08E3E81F492
:1011B0008091F50218169CF3442381F08091F60289
:1011C0009091F702892B09F05AC01092EB02089512
:1011D0008F3E49F447FFF0CF1092F4028091F50260
:1011E0008111ECCFE0CF803F19F41416ACF3E4CFBB
:1011F0009091F602893F29F41916F4F61092F6023E
:10120000DBCF8A3F19F497FFD7CFF8CF9091F70241
:101210008B3F29F497FFD0CF1092F702CDCF8C3FB0
:1012200019F41916CCF3C8CF9FE0980F983090F4BA
:10123000815F990B21E030E0B90102C0660F771F92
:101240008A95E2F7CB0180959091F30289238093F0
:10125000F302B2CF8D3F31F48091ED028E7F809307
:10126000ED02AACF8E3F21F48091ED028D7FF7CF62
:101270008F3F09F0A1CF8091ED028B7FF0CF0895D1
:101280008091ED0280FD1AC081FD14C082FD14C062
:101290008091EB02882391F08C3370F425E0829FDB
:1012A000C00111246CE370E00E941E2F862F672B73
:1012B00029F0089582E0089585E0089581E0089579
:1012C0008091ED0280FD16C081FD16C082FD18C020
:1012D0008091EC02882391F08C3390F428E2829F75
:1012E000C00111246CE370E00E941E2F862F672B33
:1012F00049F008958AE0089584E1089588E008950A
:1013000088E2089581E008958D3E31F40E946009DD
:1013100081958093F50208958E3E19F40E9460092C
:10132000F8CF8F3E31F40E94600981958093F402DA
:101330000895803F19F40E946009F8CF893F29F48D
:101340000E9440098093F60208958A3F21F40E948A
:1013500040098195F7CF8B3F31F40E944009819578
:101360008093F70208958C3F19F40E944009F8CF4A
:101370009FE0980F983070F4815F990B21E030E086
:1013800001C0220F8A95EAF78091F302822B8093A5
:10139000F30208958D3F31F48091ED0281608093D6
:1013A000ED0208958E3F21F48091ED028260F7CF27
:1013B0008F3FB9F78091ED028460F1CF80E008950E
:1013C0009091570392FF06C0282F28712830F9F416
:1013D000877F846093FF06C0282F28712831F1F49D
:1013E000877E84612091580320FF06C0382F387112
:1013F0003830D9F4877F816021FF06C0282F2871FB
:101400002831D1F4877E816194FD877E0895282F4D
:1014100024712430F9F68B7F8860DCCF282F24716B
:10142000243101F78B7E8861DDCF382F3171313067
:1014300019F78E7F8860E0CF282F2171213121F7A5
:101440008E7E8861E1CF972F7E30A8F4663098F4C5
:1014500070E026E0929F600D711D1124FB0194E560
:10146000899FE00DF11D1124EE0FFF1FE15BFC4F82
:1014700085919491089580E090E00895CF93DF9353
:10148000EC0182389105A9F1D8F58133910509F471
:1014900096C048F58932910509F48AC08A9709F403
:1014A00095C0C11521E5D20708F0BCC0C11530E5D3
:1014B000D30708F014C1C83ED10508F09CC0C03E57
:1014C000D10560F5C83AD10508F087C0C53AD10505
:1014D00008F0FDC0C130D10509F12097F9F0C43002
:1014E000D105E0F440C08533910509F45AC0C9978D
:1014F000C1F680915703837089F0C0EED0E00EC032
:10150000833E910599F170F4803E910501F1823E90
:10151000910539F68091570382FD21C0CE01DF91FC
:10152000CF910895863E910561F1873E910571F155
:10153000843E910509F0B5CF8091580381FFEECF2D
:1015400080915703C7EED0E084FD0DC0E7CF8091B6
:10155000570380FD12C19091580390FFDFCFC3EE77
:10156000D0E084FFDBCFD0E0C0E0D8CF809157033C
:1015700082FD06C19091580390FDBFCF84FFCECF6E
:10158000F2CF8091570383FDDDCFC8CF8091570301
:1015900083FDF9C09091580391FFF0CFC4EED0E0E5
:1015A000BDCF8091570385FFB9CFC9E2D0E0B6CF58
:1015B0008091570385FFB2CFC5E3D0E0AFCF8091D4
:1015C000570386FFABCFCAE2D0E0A8CF8091570384
:1015D00086FFA4CFC1E3D0E0A1CFCF3BD10518F661
:1015E000C85AD0E0CC0FDD1FC558DE4F0990D88116
:1015F000C02DD46493CFC11540E2D40758F4C1156F
:1016000081E0D80708F08ACFCD3ED10508F4ABCFF2
:10161000D06584CFC11590E4D90708F4A4CFDF705A
:10162000D06A7CCFC11525E5D20700F5C11534E598
:10163000D30708F08AC0C11543E5D40708F071C08C
:10164000C11582E5D80708F467C0CE0183709927D9
:1016500021E030E002C0220F331F8A95E2F7C695E1
:10166000C69580E2C89FE001112452C0C11599E5DA
:10167000D907A8F4C11528E5D20708F06BC0C11539
:1016800036E5D30708F06FCF8C2F0E94E009C82FF2
:10169000D0E0DC2FCC27CC27DF71D0623FCFC11543
:1016A0004AE5D40708F45BC0CE01905681159042FC
:1016B00008F059CF8D2F8F710E94E00990E0982F8C
:1016C000882788279F719C012C2BE901E6CFC55AFA
:1016D000D0E0C858DE4FC881D0E0D0641FCFCE0123
:1016E000E4E096958795EA95E1F783702C2F26958F
:1016F0002695237040E2249F90011124382B8C2FD3
:101700008370C1E0D0E002C0CC0FDD1F8A95E2F704
:10171000C22BD32BDC6802CFDC2FCC27C16FD06A61
:10172000FDCECE018370992721E030E002C0220F68
:10173000331F8A95E2F7C695C69590E2C99FE001EE
:101740001124C22BD32BDA68E9CEDC2FCC27C46F4F
:10175000D06AE4CEDC2FCC27C06FD06ADFCE8C2FCE
:101760008F700E94E00934E0D695C7953A95E1F76D
:10177000CF709C2FEC01D069D1CEC9E3D0E0CECEA2
:10178000C2EED0E0CBCEC6EED0E0C8CE80919802BB
:1017900081111092980208958095909149039823A1
:1017A000909349030895809590915D0398239093B9
:1017B0005D0308958091760290914502981301C0CF
:1017C00008958F5F8770FACFB0E0A0E0EAEEFBE00B
:1017D0000C94E22E8C01C090B902D090BA02E09035
:1017E000BB02F090BC028091990290919A02A09164
:1017F0009B02B0919C02C82AD92AEA2AFB2ACFE18F
:10180000D0E0BC2ED701C6010C2E04C0B695A7951A
:10181000979587950A94D2F780FD09C0219788F79C
:10182000B12C8B2DCDB7DEB7E9E00C94FE2EB801BC
:101830008C2F0E94230A0E943E0A019779F3F1CF70
:10184000CF93DF93EC010E94E40BBE010E94230AB8
:101850000E943E0ADF91CF910895292F9E3080F596
:10186000863070F590E036E0239F800D911D1124A5
:10187000682F677023E0969587952A95E1F725E014
:10188000289FF001299FF00D1124E85FFD4F50E0E3
:1018900040E080E0219130E0062E02C03695279589
:1018A0000A94E2F721703327042E01C0220F0A9414
:1018B000EAF7822B4F5F5F4F4530510559F7089586
:1018C00080E00895292F9E30A0F5863090F590E0B5
:1018D00036E0239F800D911D1124282F277041E0B1
:1018E00001C0440F2A95EAF723E0969587952A953B
:1018F000E1F725E0289FF001299FF00D1124E85F12
:10190000FD4F30E020E070E05191DF011197CB01F5
:10191000022E02C0969587950A94E2F78170819510
:101920008527842385278C932F5F3F4F25303105F2
:1019300059F70895FC01808191810E94200C9295B5
:101940009F70963091F058F4925F9F70923058F4E7
:10195000803F19F030F4883E30F481E008959A5FBA
:10196000F4CF843FD1F380E00895883EB0F3813F07
:10197000D1F7F3CFCF92DF92EF92FF926C01EE247A
:10198000FF2420E0C114D104E104F10419F0C701DF
:10199000B60120E1C72ED82EE92EFF24C114D104B0
:1019A000E104F10419F0285FC701B6016B017C0165
:1019B00054E0F694E794D794C7945A95D1F7C1149C
:1019C000D104E104F10419F02C5FC701B6016B01E9
:1019D0007C0142E0F694E794D794C7944A95D1F7F6
:1019E000C114D104E104F10419F02E5FC701B6015E
:1019F0009695879577956795672B682B692B09F0E6
:101A00002F5F822FFF90EF90DF90CF9008959C0181
:101A10009A9581159F4130F4832F817031FF03C067
:101A20008260089580E00895FC018081813041F456
:101A30009185911114C09285992389F082E00895CF
:101A4000823041F48185811107C08285811106C0F1
:101A500083E0089586E0089585E0089584E0089580
:101A600027982F98089526982E98089525982D98B0
:101A7000089556985E980895279A2F9A0895269A61
:101A80002E9A0895259A2D9A08952098289821989D
:101A9000299822982A9823982B9852985A985398C4
:101AA0005B983E98469808958098889A8198899A7C
:101AB00084988C9A85988D9A86988E9A87988F9A12
:101AC00008958093590370935B0360935A03809148
:101AD00090038430F9F48093E9008FEF9091E8004F
:101AE000815095FD06C095ED9A95F1F700008111A2
:101AF000F5CF8091E80085FF0DC050E040E063E045
:101B000070E089E593E00E94AE058091E8008E7751
:101B10008093E8000895BC0184E00E94610D08955F
:101B2000BC0183E00E94610D08959C0184E08093D4
:101B3000E9009FEF8091E800915085FD06C085ED9A
:101B40008A95F1F700009111F5CF8091E80085FFAB
:101B50000CC050E040E066E070E0C9010E94AE05B4
:101B60008091E8008E778093E8000895CF93DF930B
:101B7000EC0180916B018823B1F18091570387FFBD
:101B800032C060E284E08093E9008FEF9091E8003A
:101B9000815095FD06C095ED9A95F1F700008111F1
:101BA000F5CF8091E80085FF1BC080916B0170E04C
:101BB00050E040E0811104C050E040E068E070E097
:101BC000CE010E94AE058091E8008E778093E800F8
:101BD00080E2FE01A0E6B3E001900D928A95E1F764
:101BE000DF91CF91089568E081E0CDCFEF92FF9231
:101BF0000F931F93CF93DF930E94390D0E94360DF0
:101C00000E94330D0E94300D88E8E82EF12C8FEFF2
:101C100090E0F701918380830AE810E0F801918356
:101C20008083CCE8D0E0998388830E94420DFFEF47
:101C300020E782E0F15020408040E1F700C0000042
:101C40000E943F0D9FEFE0E7F2E09150E040F0404E
:101C5000E1F700C000000E943C0D2FEF80E792E00A
:101C6000215080409040E1F700C000000E94360DF6
:101C7000EFEFF0E722E0E150F0402040E1F700C054
:101C800000000E94330D8FEF90E7E2E0815090401A
:101C9000E040E1F700C000000E94300D8091A702F3
:101CA0008770FFEF8F9FC0011124959587959595BB
:101CB00087959927F70191838083F8019183808329
:101CC000998388830E94390D0E94360D0E94330D3E
:101CD0000E94300DCDB7DEB7E6E00C94012FCF9314
:101CE000DF938091410380FD0BC0E5E0F3E01182BA
:101CF000108212821382349653E0E134F507B9F76B
:101D0000C5E0D3E0FE01928120813181892F29171E
:101D100008F4822F381708F4832F8383381B31830C
:101D2000281B2083981B9283349683E0E134F807C4
:101D300051F78091F9028823B1F0809119019091B7
:101D40001A01892B81F480911801882361F064E6DF
:101D500070E084E80E94002E892B09F42DC01092B7
:101D600018010E94C12E579A3BB13F772BB12068D2
:101D70004FB7F89485E093E0FC015191CF0168E002
:101D80002BB9000000C057FF3BB9550F000000C041
:101D900000C000C03BB900C06A9591F7F3E0813400
:101DA0009F0751F74FBF8FE594E00197F1F700C00F
:101DB0000000DF91CF91089564E670E088810E9471
:101DC0006E2E64E670E089810E946E2E64E670E0FB
:101DD0008A810E946E2E64E670E08B810E946E2ED6
:101DE000249693E0C134D90739F7BBCFEF92FF9225
:101DF0000F931F93CF93DF938C01C5E0D3E0F12CB9
:101E0000E12CF80194816091430380914203F7E053
:101E1000EF16F104ECF49923E9F09E01409144039C
:101E20000E9430082FEFE21AF20A24968FE0E8169B
:101E3000F10439F70E946F0EF801848190E0019659
:101E4000817099278483CDB7DEB7E6E00C94012F2B
:101E5000992319F39E0140E0E3CFB0E0A0E0E3E373
:101E6000FFE00C94DF2EEC014C81042F10E0980170
:101E7000D8010E94A0319B01AC010E946B314B0143
:101E80005C01E0E2F0E0E01BF10BA5E5B0E0AC01A5
:101E90009B010E946B316B017C019F01DF010E945D
:101EA000382F9B01AC010E9476319B01AC01280DBB
:101EB000391D4A1D5B1DC701B6010E947E31F22EFD
:101EC000822F90E039E23F1598F143E0249F900182
:101ED000112435952795122F109595E0C92E93E082
:101EE000D92E00E085E5E82EEF188E2D01FD8F2D0F
:101EF0009601412F609143030E9430080F5F54E028
:101F0000C50ED11C0F3089F70E946F0E9C8181E0B5
:101F1000992319F0903219F48FEF80932801809162
:101F20002801890F8C83CDB7DEB7ECE00C94FB2E33
:101F300025E530E0A901481B590BCA019A01220F7F
:101F4000331F280F391F37FFC4CF2F5F3F4FC1CF3B
:101F50000F931F93CF93DF93C5E0D3E0FE0111826F
:101F6000108212821382349683E0E134F807B9F7C5
:101F700010E000E080910303082E000C990B081775
:101F800019078CF180912701082E000C990B8017FE
:101F900091074CF19E01409144036091430380916D
:101FA00042030E9430080F5F1F4F24960F30110527
:101FB00009F70E946F0E8091260190910303980FFC
:101FC0009093030320912701280F209327011216D5
:101FD00014F49E301CF0819580932601DF91CF91FF
:101FE0001F910F910895198218821A821B82DBCFEC
:101FF000B0E0A0E0EEEFFFE00C94E22EFC01828165
:10200000DD24DA9480FD02C0DD24D39405E013E0E2
:10201000D0E0C0E02FE0B22EF801118210821282CF
:10202000138294E0E92EF12CC12C809102038C0DD7
:102030008031C4F16B2D0E94102F892F082E000CC7
:10204000990B8C179D0791F4809144038E9DA001FC
:102050008F9D500D1124559547955595479598019D
:1020600060914303809142030E943008CD0CF1E05F
:10207000EF1AF108D1F621960C5F1F4FCF30D10532
:1020800059F60E946F0E8091020391E0D91210C0A0
:1020900081110CC08EE080930203CDB7DEB7E9E07A
:1020A0000C94FE2E87FFCACF815FC8CF8150F3CF3B
:1020B00090E00196BE010E941E2FEDCFEF92FF929D
:1020C0001F93CF93DF93EC0185E0E82E83E0F82E99
:1020D00010E08C8197014091440360914303810F8C
:1020E0000E9430081F5E84E0E80EF11C1F3F89F754
:1020F0000E946F0E9A818C8190FF08C08F5F8C8345
:10210000DF91CF911F91FF90EF9008958150F7CF0D
:102110009091410390FF0DC0E5E0F3E0818360837F
:1021200042831382349693E0E134F907B9F70E94B1
:102130006F0E0895A4E0B0E0E0EAF0E10C94E72E21
:102140008C018091040381110AC09E012F5F3F4FD3
:102150004FEF6FEF0E9430088A8180930403F801EB
:102160006481613069F08091040340E0662361F08E
:1021700040E0623011F44091040380E060E004C06C
:102180006091040340E080E00E948810F80184819F
:1021900090E0019663E070E00E941E2F84832496F5
:1021A000E4E00C94032FA4E0B0E0E9EDF0E10C943E
:1021B000E92E9091410390FF0AC09E012F5F3F4F8F
:1021C0000E9430084B8169818A810E948810249680
:1021D000E2E00C94052FCF93DF93EC01E1E4F3E010
:1021E000438162818C810E94D3108C818F5F8C83AC
:1021F000DF91CF910895CF93DF93EC01EC81F0E074
:10220000E255F84F4491E1E4F3E0628181810E945C
:10221000D3108C818F5F8C83DF91CF910895CF9302
:10222000C82F873078F58091190190911A01892B78
:1022300039F564E670E080E40E94002E90931A0164
:1022400080931901892BD1F464E670E082E10E9449
:102250006E2E90931A0180931901892B79F481E0F5
:1022600090E001C0880FCA95EAF764E670E08095B7
:102270000E946E2E90931A01809319010E94C12E24
:10228000CF9108958A30B1F038F4883069F0893000
:1022900071F0209A2898F4CF8C3091F070F08D3046
:1022A000C1F73E9A4698ECCF219A2998E9CF229A15
:1022B0002A98E6CF239A2B98E3CF529A5A98E0CFE8
:1022C000539A5B98DDCFCF92DF92EF92FF926B0132
:1022D0007C010E942108B701A60188E090E00E94DD
:1022E0003A31FF90EF90DF90CF900895A4E0B0E0F6
:1022F000ECE7F1E10C94DC2EF82E762EE42E622E23
:102300009091410390FF29C0E92FE695AE2FB0E0F0
:10231000A755BE4F8C91809300039E7F923009F5A4
:102320009E012F5F3F4F8F2D0E9430084B816981A6
:102330008A810E948810F092420370924303E092D7
:102340004403662051F060914103709142038091F3
:102350004303909144030E9463112496EFE00C9490
:10236000F82E823019F4E0904403E5CF863019F45A
:10237000F0904203E0CF8930D9F38931E1F6E95199
:102380008E2F8170582EE695F0E0E755F84FE491D6
:102390000E2F10E085E0C82E83E0D82EB12CA12CA2
:1023A0009FE0892E912CC501B4010E94C52E8F2D6E
:1023B000511013C0860F96014E2D672D0E943008D4
:1023C000A00EB11E84E0C80ED11C81E4C81683E0C3
:1023D000D80649F70E946F0EAECF861BECCFE1E422
:1023E000F3E043812CE0421B08F440E021E06281ED
:1023F00081810E9476110895E1E4F3E043812CE0AD
:10240000420F08F44FEF21E0628181810E94761132
:102410000895E1E4F3E062812FEF621B08F460E0CD
:1024200021E0438181810E9476110895E1E4F3E087
:1024300062812FEF620F08F46FEF21E04381818109
:102440000E9476110895E1E4F3E0818121E0438167
:1024500062818C500E9476110895E1E4F3E081815D
:1024600021E043816281845F0E947611089580910A
:102470004503882319F081508093450360914103FF
:102480007091420380914303909144030E94631131
:10249000089580914503833018F48F5F809345033E
:1024A00060914103709142038091430390914403F2
:1024B0000E9463110895E1E4F3E080818E7F8083C0
:1024C00060817181828193810E9463111092010366
:1024D0002FEF80E792E0215080409040E1F700C06C
:1024E00000000E946F0E0895E1E4F3E083E0808332
:1024F00011828FEF82838383148260817181828154
:1025000093810E946311089580915D039091490326
:10251000892B8093E001909198029923A1F0892B57
:102520008093E00180916B018823E1F18091570352
:1025300087FF38C08EE1E2EEF1E090E08150A0F537
:1025400091110E94C60B40E250E068E772E080EE15
:1025500091E00E94E730892B21F180E2E0EEF1E08A
:10256000A8E7B2E001900D928A95E1F7E0914C0363
:10257000F0914D033097A9F080916B01882359F0B9
:102580008091570387FF07C08091E0018093E101AC
:1025900086E08093E0010280F381E02D80EE91E0FF
:1025A0000995089586E0C7CF2191222339F29F5FD4
:1025B000C5CFCF93DF93EC0181E0898B80915D03E0
:1025C0009F81892B80935D03809149039885892B96
:1025D000809349030E948412EA81FB81309729F09D
:1025E0006C897D89CE0106960995DF91CF9108957A
:1025F000EF92FF920F931F93CF93DF93EC018A85A5
:10260000811134C0EB80FC8087E5F81A26E12E9D0D
:10261000C0012F9D900D1124DC01A75DBE4F1496C3
:10262000ED91FC911597309731F054966D917C9116
:10263000815D9E4F099586E18E9D80018F9D100DD5
:102640001124075D1E4FF80187810E94D30BF8010A
:1026500080850E94CC0B0E948412188219861B86EA
:102660001E821D821092480310924703CDB7DEB739
:10267000E6E00C94012F882321F00E94CC0B0E94ED
:102680008412089580914603882329F082E20E94F3
:102690003B13109246030895882339F09091490323
:1026A000982B909349030E9484120895882321F067
:1026B0000E94D30B0E9484120895882339F09091D0
:1026C0005D03982B90935D030E948412089568EE39
:1026D0007EEF90E080E00E94463160E082E090E092
:1026E0000E94283160E083E090E00E94283110923F
:1026F000990210929A0210929B0210929C0260E042
:1027000084E090E00E94283164E082E290E00E9440
:10271000283160E085E090E00E94283160E086E0AA
:1027200090E00E9428316FEF87E090E00E9428310E
:1027300040E050E0BA0188E090E00E943A3160E069
:102740008DE090E00E94283140E050E0BA0188E13D
:1027500090E00E943A3160E087E190E00E942831E9
:1027600040E050E0BA018CE190E00E943A3170E024
:1027700060E080E290E00E94463140E050E0BA0123
:1027800088E190E00E943A311092A7021092A802CC
:102790001092A9021092AA0284E08093A7024091AD
:1027A000A7025091A8026091A9027091AA028FE03D
:1027B00090E00E943A3140E050E0BA0183E190E0BD
:1027C0000E943A31089580E290E090931A0180933C
:1027D00019018091F90281110EC00E94FA2D81E049
:1027E0008093F9022FEF83ED90E3215080409040D9
:1027F000E1F700C0000064E670E080E40E94002E73
:1028000090931A0180931901892B09F04EC064E658
:1028100070E080E00E946E2E90931A01809319015F
:10282000892B09F042C064E670E080E00E946E2EC1
:1028300090931A0180931901892BB9F564E670E031
:102840008FE30E946E2E90931A0180931901892BB9
:1028500061F50E94C12E64E670E080E40E94002EC3
:1028600090931A0180931901892BF9F464E670E0C2
:102870008CE00E946E2E90931A0180931901892B8F
:10288000A1F464E670E080E00E946E2E90931A013D
:1028900080931901892B49F464E670E08FE30E946C
:1028A0006E2E90931A01809319010E94C12E80917F
:1028B00019010895CF93873050F5809119019091B7
:1028C0001A01C0E0892B71F464E670E081E40E9493
:1028D000002E90931A0180931901892B31F0C0E0EA
:1028E0000E94C12E8C2FCF91089584E690E00E9423
:1028F0009D2E97FF05C090931A0180931901EFCF89
:10290000C82FC09510921A0110921901E9CFCFB1CA
:102910008FB1869586958C73C3708C2BC82FC0950C
:10292000E1CF1F920F920FB60F9211242F933F9376
:102930004F935F936F937F938F939F93AF93BF93C7
:10294000EF93FF938091E10082FF09C08091E20044
:1029500082FF05C08091E1008B7F8093E100809130
:10296000DA0080FF24C08091D80080FF20C08091D1
:10297000DA008E7F8093DA008091D90080FF9DC0BD
:1029800080E189BD82E189BD09B400FEFDCF81E00F
:102990008093900380915C03811109C00E945E05C1
:1029A0000E9483068091E20084608093E20080911F
:1029B000E10080FF17C08091E20080FF13C080918A
:1029C000E2008E7F8093E2008091E200806180933C
:1029D000E2008091D80080628093D80019BC85E025
:1029E000809390038091E10084FF2BC08091E200EE
:1029F00084FF27C080E189BD82E189BD89B5982F18
:102A0000917080FFFBCF8091D8008F7D8093D8009C
:102A10008091E1008F7E8093E1008091E2008F7EC3
:102A20008093E2008091E20081608093E2008091D7
:102A30008203882309F447C084E080939003809147
:102A400090038091E10083FF27C08091E20083FF23
:102A500023C08091E100877F8093E10082E0809332
:102A60009003109282038091E1008E7F8093E100B9
:102A70008091E2008E7F8093E2008091E20080618D
:102A80008093E20042E060E080E00E945106809185
:102A9000F00088608093F000FF91EF91BF91AF91BB
:102AA0009F918F917F916F915F914F913F912F9166
:102AB0000F900FBE0F901F90189519BC10929003A5
:102AC00010925C0374CF8091E30087FD93E09093B4
:102AD0009003B5CF78941F921FB61F9211248F9345
:102AE0009F93AF93BF938091510390915203A09114
:102AF0005303B09154030196A11DB11D809351035E
:102B000090935203A0935303B0935403BF91AF919A
:102B10009F918F911F901FBE1F9018959C014FB7DA
:102B2000F8948091510390915203A0915303B09176
:102B300054034FBF821B930B08952FB7F8948091D5
:102B4000510390915203A0915303B09154032FBFAE
:102B5000089560914103669570E04BE050E08BE191
:102B600091E00E94DA30892B19F481E0809301030F
:102B70000E949D159093FB028093FA020895909114
:102B8000410390FF2CC0917081112AC092609093F4
:102B90004103662351F0609141037091420380919B
:102BA0004303909144030E94631160914103669531
:102BB00070E04BE050E08BE191E00E94DA30892B2D
:102BC000B1F01092010381E08093FD0220E040917A
:102BD000440360914303809142030E94761108955B
:102BE000853210F09864D3CF880F982BD0CF0E94F5
:102BF000A915E9CF60E00E94BF150895E1E4F3E074
:102C000080818160808386950E94FA150895809165
:102C1000F802811135C090E080E00E941231883EB8
:102C20009E4F21F00E9467130E94741288E090E08A
:102C30000E940C31609341037093420380934303DD
:102C4000909344036E7F71F40E94741288E090E0C8
:102C50000E940C31609341037093420380934303BD
:102C6000909344030E942108109201038091410334
:102C700080FF03C086950E94FA1581E08093F802D8
:102C8000089561E00E94BF150895CF92DF92EF9200
:102C9000FF92CF93DF936B017C010E94BA0CD82F77
:102CA0000E94390D0E94360D0E94330D0E94300D96
:102CB000C0910702EFEFED0FE73008F06BC0F0E0D6
:102CC000EF54FE4C0C94322F0E94420DC1112CC0C7
:102CD0000E94FE1581E00E94FA1520E04FEF6BEE96
:102CE00087E720C00E943F0DF1CF0E943C0DC1112B
:102CF0001BC00E94FE1581E00E94FA1520E04FEFF4
:102D00006FEF86E50FC00E94420D0E943F0DC1117A
:102D10000BC00E94FE1581E00E94FA1520E04FEFE3
:102D20006FEF85ED0E947611C701B601DF91CF915B
:102D3000FF90EF90DF90CF9008950E94420D0E9487
:102D40003C0DC111F1CF88E090E00E940C316093FE
:102D5000410370934203809343039093440360FFC5
:102D60001DC0862F81608093410386950E94411685
:102D70008091410386950E94411621E040914403D1
:102D80006091430380914203CDCF0E94420D0E9487
:102D90003F0DD5CFDD2309F4BACFD3CF0E945B120C
:102DA000C3CF809141038695815009F484E261E0AC
:102DB0000E94BF1508958091410386958F5F8532EB
:102DC00008F081E061E00E94BF15089590914103F1
:102DD00090FF08C09695981728F0961718F40E944F
:102DE000DB1608950E94411608950E949D159C01CE
:102DF0009091F4028091F502982B21F03093F1022A
:102E00002093F0029091F6028091F702982B21F026
:102E10003093EF022093EE02E0914C03F0914D03CA
:102E2000309749F082E08093F2020480F581E02D32
:102E300082EF92E00995089590E080E00E94F70704
:102E400090E080E00E94E107109249030E94841202
:102E500086E0E2EFF2E0DF011D928A95E9F7109239
:102E6000EC021092EB021092ED020E94F51608950A
:102E7000CF92DF92EF92FF92CF93DF93CDB7DEB781
:102E8000A0970FB6F894DEBF0FBECDBF0E944516C7
:102E90006B017C0180918F038823B1F02FEF80E7D5
:102EA00092E0215080409040E1F700C0000085E0B2
:102EB0008983C701B6010E94BA0C8A838EEF8B8387
:102EC000CE0101960E94DA05C092B902D092BA02F0
:102ED000E092BB02F092BC020E941C17A0960FB6B3
:102EE000F894DEBF0FBECDBFDF91CF91FF90EF9082
:102EF000DF90CF9008950F931F9341E050E060E082
:102F000070E004C0440F551F661F771F8A95D2F7E3
:102F10008091B9029091BA02A091BB02B091BC021B
:102F20008A019B01082719272A273B27C901B801D5
:102F30000E9438171F910F9108950F931F9341E03E
:102F400050E060E070E004C0440F551F661F771F1B
:102F50008A95D2F7CB01BA016095709580959095CE
:102F60000091B9021091BA022091BB023091BC02CB
:102F700060237123822393230E9438171F910F919E
:102F80000895909177028095892380937702282F66
:102F9000277091F4282F082E000C330B921713067C
:102FA00059F09091580392FF07C0859585958595B6
:102FB0000E949D17109277020895CF93C0915803F5
:102FC000C2FB992790F9981791F080FBC2F9C09342
:102FD00058036091570384E090E00E9428316C2FE1
:102FE00082E290E00E94283182E00E94C117CF91D6
:102FF00008950F931F9341E050E060E070E004C03B
:10300000440F551F661F771F8A95D2F78091B9022A
:103010009091BA02A091BB02B091BC028A019B01BF
:10302000082B192B2A2B3B2BC901B8010E943817FA
:103030001F910F9108956093990270939A02809363
:103040009B0290939C020E941C17089580916B0133
:10305000E2EEF1E0882361F08091570387FF08C01A
:103060008EE1DF011D928A95E9F70E941C170895F1
:1030700086E0F7CFAAE2B0E0E0E4F8E10C94E82EB5
:1030800083E893E02091F100FC012193CF01F3E06C
:103090008B389F07B9F780918403893009F444C0C5
:1030A00018F5823009F4BCC0833009F46FC0813058
:1030B00031F580918303813A11F58091E800877F93
:1030C0008093E8008091870390918803892B41F5D4
:1030D00060E280E693E070E00E943D078091E800A6
:1030E0008B778093E8000BC08B3009F46CC008F438
:1030F00086C0823409F4A5C0853409F4BFC080912C
:10310000E80083FF5AC280918303909184039A3030
:1031100008F053C2E92FF0E0E854FE4C0C94322F33
:1031200060E090E080E0D7CF80918303813239F76F
:103130008091870390918803009711F00297F9F628
:103140008091E800877F8093E8008091E80082FF0B
:1031500018C09091F3008091F200029731F48091B1
:10316000F100813011F0863021F48091F1008093DC
:103170005F038091E8008B778093E8000E9432061D
:10318000BECF809190038111E0CFB9CF80918303AE
:10319000813A09F0B4CF8091870390918803892BFD
:1031A00009F0ADCF8091E800877F8093E80080919F
:1031B000E80080FFFCCF80916B018093F10080914B
:1031C000E8008E77D9CF80918303813209F097CFC1
:1031D0008091870390918803892B09F090CF80918B
:1031E000E800877F8093E8000E9432068091850383
:1031F00080936B0110925D030E94261880CF80910E
:103200008303813209F07BCF8091E800877F809330
:10321000E8000E9432068091860380935E036FCFA0
:1032200080918303813A09F06ACF8091E800877F1B
:103230008093E8008091E80080FFFCCF80915E03DE
:10324000BCCF80918303803C09F059CF80918703E4
:1032500090918803029739F58091850390918603B8
:10326000892B09F58091E800877F8093E8006EE064
:1032700070E080E699E00E94DE0680CF80918303B3
:10328000803C09F03CCF8091870390918803079799
:1032900051F48091E800877F8093E80062EB70E052
:1032A0008EEA98E0E8CF8091EB0080628093EB009B
:1032B00026CF803899F0823809F07FC1809187034A
:1032C0008F70873008F079C18093E9008091EB001E
:1032D00085FB882780F91092E90006C08091800361
:1032E00090918103911182609091E800977F909373
:1032F000E8008093F1001092F1008091E8008E7751
:1033000058C1882309F446C1823009F056C1809122
:103310008503811149C1809187038F702FEF280F9A
:10332000263008F04AC18093E9002091EB0020FF8D
:103330003BC1933031F48091EB0080628093EB00CD
:1033400033C19091EB0090619093EB0021E030E06D
:1033500001C0220F8A95EAF72093EA001092EA0052
:103360008091EB008860EACF811127C1109185031D
:103370001F778091E3008078812B8093E300809118
:10338000E800877F8093E8000E9432068091E80081
:1033900080FFFCCF8091E30080688093E30082E0AF
:1033A000111183E08093900308C18058823008F0A7
:1033B00004C180918503909186038C3D23E09207A0
:1033C000A1F583E08A838AE289834FB7F894DE010E
:1033D000139620E03EE051E2E32FF0E050935700D7
:1033E000E49120FF03C0E295EF703F5FEF708E2FF6
:1033F00090E0EA30C0F0C7968D939D932F5F243103
:1034000059F74FBF8091E800877F8093E8006AE218
:1034100070E0CE0101960E943D078091E8008B7715
:103420008093E800CAC0C096E7CF2091870330910F
:103430008803492F55274330510551F1A0F44130FD
:10344000510509F459C062E770E08FE699E0423017
:10345000510509F0B2C02091E800277F2093E800D1
:103460000E94DE06DACF4132510539F14232510570
:1034700091F14F30510509F0A0C0E7E4FAE0649102
:1034800070E085E49AE06115710509F496C0E3CF18
:1034900099278130910571F0009731F0029709F07A
:1034A0008CC0E3EFF9E002C0E1E4FAE0649170E07F
:1034B000CF01E9CFE7E1FAE0F9CF2330310508F099
:1034C0007CC0220F331FF901E952FE4F80819181A8
:1034D00069E070E0C0CF2330310508F06EC0F9011B
:1034E000EE0FFF1FEF52FE4F8081918122533E4F1E
:1034F000F901608170E0C7CF62E170E081EE99E090
:10350000AACF803809F059C08091E800877F809366
:10351000E800809182038093F100EFCE81114DC0CD
:1035200010918503123008F048C08091E800877F31
:103530008093E800109382030E943206112311F059
:1035400084E005C08091E30087FDFACF81E080939D
:10355000900342E061EC81E00E94510642E261EC9E
:1035600084E00E94510642E261EC82E00E94510632
:1035700042E260EC83E00E94510642E361EC85E0A8
:103580000E94510642E360EC86E00E945106809161
:10359000900313C080918503813079F481E09330EA
:1035A00009F080E0809381031092E9008091E800A7
:1035B000877F8093E8000E9432068091E80083FFB5
:1035C0000AC08091E800877F8093E8008091EB003B
:1035D00080628093EB00AA96E3E00C94042F1F9284
:1035E0000F920FB60F9211242F933F934F935F9337
:1035F0006F937F938F939F93AF93BF93CF93DF93FB
:10360000EF93FF93D091E900DF708091EC00C82F19
:10361000C17080FDC0E81092E9008091F000877FC2
:103620008093F00078940E943A181092E9008091FB
:10363000F00088608093F000CD2BCF70C093E9003C
:10364000FF91EF91DF91CF91BF91AF919F918F91BA
:103650007F916F915F914F913F912F910F900FBE8E
:103660000F901F90189510925D030E9426182FEF5F
:1036700084E39CE0215080409040E1F700C00000CE
:1036800088E19AE00FB6F894A895809360000FBE89
:1036900090936000FFCF882391F19CEF980F913AAF
:1036A00040F4682F80EE91E00E94B7070E948412D8
:1036B000089590E2980F983050F4877091E001C01F
:1036C000990F8A95EAF7892F0E94D30BEFCF9BE5DC
:1036D000980F933028F490E080E00E94F707089557
:1036E00098E5980F973128F490E080E00E94E10778
:1036F00008958D3E20F00E94C7080E94F516089597
:10370000CF93DF93EC010E944B1BCE010E94070D6B
:10371000C05ED109289728F40E945613DF91CF91FB
:1037200008950E943B13FACF8FE39CE90197F1F7CC
:1037300000C0000080910502833059F0853011F0FF
:10374000813021F48DE491E00E94801B10920502EB
:1037500008958AE491E0F8CF8FE39CE90197F1F7AF
:1037600000C0000080910302833059F0853011F0D1
:10377000813021F48DE491E00E94801B10920302BD
:1037800008958AE491E0F8CF8FE39CE90197F1F77F
:1037900000C0000080910102833059F0853011F0A3
:1037A000813021F485E390E00E94801B1092010299
:1037B000089582E392E0F8CFCF93C82F882309F4CD
:1037C00042C08CEF8C0F813A08F065C080916B018C
:1037D0008823D9F18091570387FF37C0EC2FE695F6
:1037E000E695E695F0E0E052FE4F828190E04C2FA6
:1037F000477021E030E002C0220F331F4A95E2F704
:1038000082239323892B61F06C2F80EE91E00E943C
:10381000B7070E94841223C08091570387FF23C0FB
:10382000EC2FE695E695E695F0E0E052FE4FC77086
:1038300021E030E001C0220FCA95EAF78281822B95
:1038400082830E948412CF910895E2EEF1E088EE27
:1038500091E02191C217C1F28E179F07D1F7809195
:103860006B018111D9CFA2EEB1E0EFEF80E09D9125
:10387000C91739F3EF3F19F4911101C0E82F8F5F99
:103880008630A9F7EF3FE9F20E2E000CFF0BE05255
:10389000FE4FC283D6CF80E28C0F883068F4C770A9
:1038A00021E030E001C0220FCA95EAF780915D0364
:1038B000822B80935D03C5CFEBE5EC0FE33040F442
:1038C000F0E0E858FE4F808190E00E94F707BBCF00
:1038D000E8E5EC0FE73150F4F0E0EE0FFF1FE5589C
:1038E000FE4F808191810E94E107ADCFCD3E08F46B
:1038F000AACF8C2F0E9484090E94F516A4CF1F9393
:10390000CF93DF93182FD0E0C0E0893311F4C0E5E6
:10391000D0E0812F0E94DC1B209739F4812F0E9478
:103920004B1BDF91CF911F9108958FE99FE0019785
:10393000F1F700C000002197EFCF0F931F93CF93B3
:10394000DF93C62FD42F022FFC0182818823A9F098
:1039500060938D030E949D1590938C0380938B033D
:10396000C77081E001C0880FCA95EAF70E945D1315
:10397000DF91CF911F910F91089580918D0368136E
:1039800032C080918B0390918C030E948E15853AF2
:10399000910548F510E21D0FCD17B9F080E28C0FAC
:1039A000883040F4C77081E001C0880FCA95EAF7FB
:1039B0000E945613183048F481E09D2F977001C083
:1039C000880F9A95EAF70E945D13802F0E947F1C52
:1039D000183070F6D77081E001C0880FDA95EAF7E9
:1039E0000E945613C5CFC77081E001C0880FCA95E9
:1039F000EAF7F6CFB0E0A0E0E0E0FDE10C94E12EC4
:103A0000EC018AE0A82EFE012491222309F497C03C
:103A1000213009F03EC031968491813031F42296F4
:103A2000FE0184910E947F1C07C0823039F42296E7
:103A3000FE0184910E94DC1B2196E5CF833031F496
:103A40002296FE0184910E944B1BF6CF843009F030
:103A500074C02296FE01249190E080E0FE01319630
:103A60002053330B2A30310548F0019728F3EFE952
:103A7000FFE03197F1F700C00000F7CFA89EA0014A
:103A8000A99E500D1124C901840F951F2491EF01A7
:103A9000E5CFE22FF0E0EC50FE4FB490822F8695F8
:103AA0008695869590E0FC01EC51FE4FE4902770DE
:103AB000F12C022E02C0F594E7940A94E2F731E06B
:103AC000E322FF24FC01EC52FE4FC490D12C022EC5
:103AD00002C0D594C7940A94E2F7E1E0CE22DD2437
:103AE000FC01EC53FE4F049110E002C015950795C0
:103AF0002A95E2F701701127E114F10419F081EE23
:103B00000E94DC1BC114D10419F086EE0E94DC1B5C
:103B10008B2D0E947F1CC114D10419F086EE0E94E7
:103B20004B1BE114F10419F081EE0E944B1B0115AF
:103B3000110509F481CF8CE275CFEF017DCFCDB7B0
:103B4000DEB7EAE00C94FD2ECF93DF93EC010E94E8
:103B5000070D9E01205E31092830310540F40E9496
:103B60005D138C2F0E94DC1BDF91CF9108950E9482
:103B70004C13F7CFCF93DF93EC010E94A41DC93300
:103B8000D10549F42FEF87EE93E02150804090401B
:103B9000E1F700C00000CE010E94801BDF91CF91B1
:103BA0000895CF93DF93EC018881833061F48DE435
:103BB00091E00E94BA1D8DE491E00E94BA1D8DE44F
:103BC00091E00E94BA1D8881843020F08DE491E05C
:103BD0000E94BA1DDF91CF9108950E94D11D0895D2
:103BE000CF93DF93EC018881833061F485E390E02B
:103BF0000E94BA1D85E390E00E94BA1D85E390E023
:103C00000E94BA1D8881843020F085E390E00E94F4
:103C1000BA1DDF91CF9108950E94140D8093050283
:103C2000833039F0853051F0813039F48DE491E002
:103C300002C08AE491E00E94A41D08958DE491E001
:103C40000E94BA1DF3CF0E94140D809303028330AB
:103C500039F0853051F0813039F48DE491E002C0C3
:103C60008AE491E00E94A41D08958DE491E00E94F1
:103C7000BA1DF3CF0E94140D80930102833039F0F6
:103C8000853051F0813039F485E390E002C082E361
:103C900092E00E94A41D089585E390E00E94BA1D61
:103CA000F3CFB0E0A0E0E7E5FEE10C94E22E8091D6
:103CB000190190911A01892BB9F080919D028F5FB3
:103CC00080939D02811110C00E94E31390E09093B5
:103CD0001A0180931901892B39F40E94F60D81E0B5
:103CE000809318010E9407160BEA12E07801B12CAC
:103CF000D0E087E0C82ECD0E8D2F0E940F118C2DA5
:103D00000E940F118D2F0E945A148F73F70190811A
:103D1000D12C891719F08083DD24D3948C2D0E9437
:103D20005A148F73F7019781891709F444C0878368
:103D300081E08D29B82A0E94450DDF5FFFEFEF1A61
:103D4000FF0AD730B1F6D091A102DD2309F47AC081
:103D50000E949D1520919F023091A002AC01421B50
:103D6000530B9A019093A00280939F024F3F5105FD
:103D700009F018F5452BE1F01092A10210929E0275
:103D8000E091A502F091A602AF01425F5F4F90E083
:103D900030E08081882321F0281790F010829D2F39
:103DA0003196E417F507A9F73093A10290939E028C
:103DB000B11057C04AC080E0BCCF2FEF30E0DCCF5D
:103DC000821B80833D2FECCF9170892B09F47CC03E
:103DD0008091A3029091A4028130984780F01092C4
:103DE0008E036091B9027091BA028091BB029091EA
:103DF000BC020E9445161092A4021092A302809168
:103E0000A3029091A40201969093A4028093A3022E
:103E10008B2DCDB7DEB7E9E00C94FE2E0E943F0D4E
:103E20005AC0892BA9F31092A4021092A3026091A8
:103E3000B9027091BA028091BB029091BC020E94BB
:103E40004516E6CFDB2DB11006C080919E02882377
:103E500049F1D11106C00E949D159093A002809354
:103E60009F02A091A502B091A6028091A102EFEB62
:103E7000F2E02DEC32E04EE15191E80199918E0192
:103E8000591751F05C91511107C04C93BF0161501B
:103E90007109EB01988381E011962E173F0761F7B6
:103EA0008093A1028091A3029091A40220918E039D
:103EB000222309F4B6CF009709F086CF0E94360D71
:103EC0000E94330D0E94300DD091A202DD2309F42F
:103ED000A5CF0E94330D81E0D827D093A20278CFDE
:103EE000A0E2B0E0E6E7FFE10C94DB2E7C01DC0110
:103EF00013968D919C911497892B39F08C91119682
:103F00009C9189238F3F09F026C6A096E0E10C948E
:103F1000F72E0E94E40B182F682F89819A810E9446
:103F2000620C69817A81812F0E94230A8C01F7013A
:103F30008281811175C0B0908E03BB2009F4B1C09D
:103F4000D70112968C911297811157C0E091060209
:103F5000E33098F481E08E0F80930602F0E0EE0FDC
:103F6000FF1FE152FD4F8D919C919183808382E0F0
:103F70008983CE0101960E94DA05BFEFE3EDF0E3FD
:103F8000B150E040F040E1F700C00000809106022F
:103F9000833099F510928E03109206029091E00200
:103FA0008091E6029813D2C59091DF028091E502DC
:103FB0009813CCC59091E2028091E8029813C6C58F
:103FC0009091E1028091E7029813C0C59091EA02B6
:103FD0008091E4029813BAC59091E9028091E302BE
:103FE0009813B4C584E0898381E080938F038EEFBA
:103FF0008A83CE0101960E94DA058091770287704C
:1040000009F483CFD70112968C91882309F47DCFD0
:104010008091580382FF79CF82E00E94C11775CF4B
:104020008091160190911701019609F484CF69E2FD
:10403000C62E61E0D62EB12CA12C992493948091A8
:104040001601909117018A159B050CF474CFD601C7
:1040500016968C9116978823E9F019968D919C916C
:104060008017910739F48091470390914803801796
:10407000910781F0F6019786148703878189811162
:1040800003C0C6010E94D912C60106960E94F8120A
:1040900010924903FFEFAF1ABF0A26E1C20ED11CEE
:1040A000CECF80918F03882391F0D70112968C9107
:1040B0008111D4C087E08983F70180818A8381815F
:1040C0008B838EEF8C83CE0101960E94DA050F3A26
:1040D000FDE51F0709F0C4C0D70112968C91882313
:1040E000C9F18091A70291E0980F9770887F953071
:1040F00008F4892B8093A7028091A7028770BFEFF5
:104100008B9FC00111249595879595958795992743
:10411000909389008093880090938B0080938A000D
:1041200090938D0080938C004091A7025091A8023B
:104130006091A9027091AA028FE090E00E943A314A
:104140006091B9027091BA028091BB029091BC0259
:104150000E944516C80197558F3F910511F008F050
:10416000FCC020911601309117012817390724F45B
:104170009093170180931601F701228136E1389F51
:104180004001399F900C1124C401875D9E4F6C0142
:10419000DC0150962C935097928116968C9116972D
:1041A000992309F4CCC01A961C930E9319978F5F2C
:1041B00016968C930E949D15F601968785878091AF
:1041C000980287838091490390915D03892B8087B2
:1041D0000190F081E02D309741F0D60154966D9119
:1041E0007C91C401815D9E4F099510934803009313
:1041F000470380914603882309F471C1C0905D0391
:10420000D09098020E949D158854944F9093DD029F
:104210008093DC02F7018281882309F460C18D2D2F
:104220008C298D7909F03CC10115F5E51F0708F0CF
:104230001DC1011523E5120708F0B6C0011530E5D0
:10424000130708F0ACC0011580E4180708F02BC173
:10425000063E110509F4A8C0C8012BC186E02BCF8A
:10426000F801E05BFD45EE30F10508F073CFEE5349
:10427000FE4CD70112968C910C94322F882309F4AE
:10428000BCCE8DE393E00E94FA1C81E00E947B1774
:10429000B4CE882309F4B1CE81E393E0F4CF882330
:1042A00009F458CF85E193E00E94FA1C53CF88238C
:1042B00009F450CF89EF92E0F7CF882309F49DCE1F
:1042C0008FED92E00E94FA1C82E0E0CF882309F48F
:1042D00041CF8DEB92E0E8CF882309F48ECE89EAB6
:1042E00092E0F0CF882309F435CF84E892E0DCCF68
:1042F000882309F482CE80E892E0C5CF882309F4B0
:104300007CCE8CE792E0BFCF882309F476CE88E795
:1043100092E0B9CF882309F470CE84E792E0D2CF3F
:10432000882309F46ACE81E02CC1882309F465CE84
:104330008091070291E08927809307025ECE88234F
:1043400009F457CFF6018189882309F452CFC401BB
:10435000815D9E4F0E94F8124CCF0E3AFDE51F077B
:1043600009F047CFD70112968C91882309F445CEE6
:1043700080914603882319F00E9442133ECE10928A
:104380005D030E94C60B0E949D158854944F909324
:10439000DD028093DC0281E0809346032ECE01157E
:1043A00092E5190708F058CFD70112968C9188230F
:1043B00009F4E4C310928D030C35BDE51B0709F425
:1043C00067C108F0CDC00115FCE51F0709F414C151
:1043D0000F3D1C4509F44FC1F70182810081118115
:1043E000882309F459C1C8010E94E40BD82E682F14
:1043F000C8010E94620CB8018D2D0E94230A0E9400
:104400003E0A8C01882ED7011296DC9012971596E1
:104410009C9092943FE09322809177028770C1F044
:10442000DD20A9F0812F807F803421F080E2800F91
:10443000883070F08091580382FF0AC082E00E94A9
:10444000C117809177028770BB24B3948111B12C7E
:10445000A12EA2942FE0A222BBE0BA1508F47DC1E0
:10446000EA2DF0E0E053FE4C0C94322F0115A9E543
:104470001A0758F40115B8E51B0708F095CF043169
:10448000E5E51E0709F0E8CE8FCFC80190568115EB
:10449000904208F0E1CED70115968C91807F39F4D7
:1044A0000E9442131CC0F7018581807FC1F0C801C2
:1044B0009927109249038832910548F48E3191056D
:1044C00060F4049768F382E08093490306C08D325C
:1044D0009105C9F3D0F48A9719F70E948412043F1A
:1044E0002CE5120771F1C0F4093D8CE5180729F19C
:1044F0000A3D9CE5190789F1083DACE51A0709F06A
:1045000053CF26E241EE61EE14C08C34910529F3BD
:104510008D32924011F3C4CF063FBCE51B07C9F0B2
:10452000A0F027E245EE66EE073FFCE51F0709F025
:104530003BCFC7010E949D1C60CD27E245EE65EE92
:10454000F8CF26E241EE60EEF4CF27E245EE64EECE
:10455000F0CF26E241EE62EEECCF28E241E0EFCF71
:104560000E353DE5130709F489C008F493C0093AF4
:104570001D4509F031CF0E94331B816080934103B8
:1045800086950E94411639CD41ED56E16BED76E1FD
:104590000E941A0832CD4BED56E161ED76E1F8CF7D
:1045A0004DE252E163E272E1F3CF49E052E166E1AC
:1045B00072E1EECF4FEE51E16CEF71E1E9CF4CEFDC
:1045C00051E16FEE71E1E4CF49E452E167E372E15A
:1045D000DFCF65E082E00E94E6160FCD68E086E05E
:1045E000FACF64E18FE0F7CF67E185E1F4CF62E2D3
:1045F00089E1F1CF83E2C5CF10925D030E942618B6
:10460000AFEFB4E3ECE0A150B040E040E1F700C010
:104610000000F89481E08093E00080E28093D8006D
:104620001092C9008FE19EE40197F1F700C00000ED
:104630001DBA109268001CBC10BE1FBA10927A00FE
:1046400010926E0010926F00109271001092720022
:104650001092C9001092BC0014B817B81AB81DB84F
:1046600010BA1092BC0015B818B81BB81EB811BA11
:104670000C94003FC2CC0E9467137DCF80915803F9
:1046800082FB882780F991E089270E94DD17A4CE5C
:1046900081E0FBCF80E0F9CFC8010E942D0CD82E1D
:1046A000AACEE12FEF70CE2E107F19F0C29490EFBA
:1046B000C922DD20B9F0CC2069F080E2800F88307B
:1046C00010F0811009C080915D03C82AC0925D037B
:1046D0000E948412802F3FC080914903C82AC09253
:1046E0004903F6CF802F0E944B1BCC20B1F1005E16
:1046F0008C2D083010F0811003C00E94D30B02C033
:104700000E94CC0B0E94841228C0F12FFF70CF2E84
:10471000107F103219F0C29480EFC822882059F01F
:1047200021E0821609F472C0DD2009F47AC09920D4
:1047300009F472C0CFCF2091580322FD44C0DD2080
:10474000D9F1CC2039F080915D03C82AC0925D0375
:104750000E94841280E00E94DC1BAA2DA850BB0B93
:10476000149710F40E940D08BB20A9F080917702E5
:1047700080FD11C0F70112828595859585950E946F
:10478000F917C7010E94701F809177028595859562
:1047900085950E949D1785E0F701DE011196019035
:1047A0000D928A95E1F709811A81C8010E942D0CAA
:1047B000B8010E94230AA9CB80E00E944B1BCC20A9
:1047C00061F28C2D9ACFDD20A1F0909198028C2D72
:1047D000892B911003C00E945D13BFCF31E093126B
:1047E000FACF22FFBACF981709F4B7CF8093980277
:1047F000B4CF911006C00E94C60B8C2D0E94561398
:10480000ACCF81E0981609F4A8CFF5CFDD2031F0C8
:1048100091E0991508F4A1CF8C2DDDCF91109DCF9B
:10482000ECCF992051F3A9E38A1209C0BFEFE7EE5C
:10483000F3E0B150E040F040E1F700C00000802F0D
:104840000E944B1B8ACF812F86958695837061F0DD
:10485000813009F082CFC8019370D11002C090E07E
:1048600080E00E94E10779CFC8019370D11002C0A7
:1048700090E080E00E94F70770CF802FDD2029F0C4
:104880000E9484090E94F51668CF0E94C708FACFDB
:10489000812F837009F066C0D1105FCF802F829581
:1048A00086958770880F880F602F6F70462E512C69
:1048B000712C612C082E04C0440C551C661C771CFE
:1048C0000A94D2F740E050E0BA0104FF0FC04FE075
:1048D00050E060E070E004C0440F551F661F771F72
:1048E0008A95D2F74095509560957095812F869561
:1048F00086958370823019F1D8F400919902109155
:104900009A0220919B0230919C02813069F04429E7
:10491000552966297729CB01BA01602371238223A7
:1049200093230E941B1819CF402A512A622A732A06
:10493000CB01BA016429752986299729F2CF442928
:104940005529662977290091990210919A022091A0
:104950009B0230919C02CB01BA016027712782270C
:104960009327DFCF8695DD2011F0812F817088237A
:1049700009F4F3CE802F829586958770880F880F73
:10498000602F6F70462E512C712C612C082E04C0A4
:10499000440C551C661C771C0A94D2F740E050E08A
:1049A000BA0104FF0FC04FE050E060E070E004C0C7
:1049B000440F551F661F771F8A95D2F74095509573
:1049C00060957095812F869586958370823019F158
:1049D000D8F40091B9021091BA022091BB02309133
:1049E000BC02813069F04429552966297729CB0119
:1049F000BA0160237123822393230E943817ADCE1E
:104A0000402A512A622A732ACB01BA0164297529E6
:104A100086299729F2CF44295529662977290091BB
:104A2000B9021091BA022091BB023091BC02CB01B5
:104A3000BA016027712782279327DFCF1F70DD20FF
:104A400029F0812F0E94F917802FC5CE802F0E9458
:104A50005613812F0E949D1780CE802F22EF821641
:104A600069F1281570F030EF8316D1F091EF8916B7
:104A700091F0DD2009F45AC091102CCE812F8F7156
:104A800021C0A3EF8A1609F1B4EF8B12F2CF809107
:104A9000580382FD2DC0812F8F71DD20D9F212C005
:104AA000DD2039F0911059CE812F8F710E947B1734
:104AB00054CEE1E0E91508F450CEF6CF812F8F7186
:104AC000D110C8CF0E94F91748CE60E070E0CB014A
:104AD000DD2009F492CF1F7161E070E080E090E08A
:104AE00004C0660F771F881F991F1A95D2F785CFCC
:104AF000DD2089F01F71812F0E94F91780915803E2
:104B000082FF07C0F8E01F9FC001112483608093DB
:104B10007702812FD7CF81E00E94C11721E02915AC
:104B200008F01BCE82E00E94C11717CE992059F0E1
:104B3000893309F084CE3FEF87EE93E03150804017
:104B40009040E1F77ACE812F8F7184CF83E0898303
:104B500010928F034CCA85E0F701DE011196019097
:104B60000D928A95E1F7D70112962C9189819A814D
:104B70002111CFC90E942D0C182FD3C980915D033C
:104B800082720D3CBCE51B0709F41ECD08F04BC03A
:104B9000073CFCE51F0709F403CD08F5043C3CE5A0
:104BA000130709F4F1CC60F4033CACE51A0709F0F3
:104BB00013CC8091410380FFE0CC0E945B121DCAA0
:104BC000053CBCE51B0709F4E6CC43E252E16DE28B
:104BD00072E1063CECE51E0709F4DACCFDCB0A3C99
:104BE000FCE51F0709F4E6CC78F4083C3CE5130724
:104BF00009F4DBCC46E152E169E072E1093C9CE555
:104C0000190709F4C5CCE8CB0B3CACE51A0709F44D
:104C1000D6CC47E352E169E472E10C3CBCE51B07EA
:104C200009F4B6CCD9CB023DECE51E0709F4D9CC8A
:104C3000A0F40F3C2CE5120709F4CBCC08F473CB9D
:104C4000003D8CE5180709F4C9CC6EE089E0013D10
:104C50009CE5190709F4BFCCBFCB053DACE51A07AD
:104C600009F4C5CC60F4033DECE51E0709F4BCCCA7
:104C700088E1043DFCE51F0709F483CCADCB063D7C
:104C80002CE5120709F4B6CC0F353DE5130709F4FE
:104C9000B4C9A2CB1F93CF93DF9380914402807F4E
:104CA00009F049C080914102882309F444C08091F1
:104CB0007602D091450260913F0270914002A0912E
:104CC0004202B0914302C62FC72316E0D81799F1CC
:104CD00090E0109711F0CF3F19F401968770F6CF4E
:104CE000189F9001199F300D1124F901EA5BFD4FC7
:104CF00041814713F2CF40814613EFCF42814111EA
:104D0000ECCF438154814A1B5B0B453A510528F790
:104D1000809144028F70806180934402F901E55BC9
:104D2000FD4F80818F70806180838FE392E00E94CD
:104D3000701F0E94DA0BDF91CF911F910895A1E1BE
:104D4000B0E0E5EAF6E20C94E12E8C0185E0F80192
:104D5000DE011D9601900D928A95E1F7F801E2803F
:104D60008FE3A82E82E0B82E609142027091430238
:104D70006115710509F426C190913F0240914002EE
:104D8000892F84238F3F09F41DC120813181C38085
:104D9000D480F0904102F601E61BF70BFF2009F4E6
:104DA000DCC080914402582F507FE53AF10508F0AD
:104DB0009FC051116BC0FE2C431314C0921312C03C
:104DC000E11010C08F70806180934402C5010E9481
:104DD000701F80914402F80185838F2D6196EAE06F
:104DE0000C94FD2EC114D10429F0822F83238F3F10
:104DF00009F003C180E0F82FF170DF2E80FF3CC086
:104E0000809176024091450256E0841315C02D87AB
:104E10003E878D859E850E94200C292F22952F701C
:104E20002230F0F0243018F59F70F1F0F8019581F0
:104E3000907FD1F4D12C1EC090E0589FF001599F73
:104E4000F00D1124EA5BFD4F6181361306C06081CD
:104E5000261303C06281E6120FC001968770D5CF7A
:104E60009F7011F0882331F3805E883018F3C801F9
:104E70000E94701FFD2CB1CFEE2009F4AECF8091BF
:104E80004402816080934402F12CA7CF431306C0F3
:104E9000921304C0F801EE2009F479C0C8010E9401
:104EA0009A0C882309F1EE20F9F0809144028032B7
:104EB00070F020913F023091400238872F8319868D
:104EC000DB86CA868C87CE0107960E94701F86E01B
:104ED000F801AFE3B2E001900D928A95E1F70E94EC
:104EE0004A26FF24F39479CFC8010E94701FF9CF9E
:104EF00051110AC08FE392E00E94701F86E0F50115
:104F000011928A95E9F7C0CF43130FC092130DC0D9
:104F1000E1100BC0F8018583C8010E94701F86E074
:104F2000F50111928A95E9F758CFC8010E949A0CB1
:104F30008823D1F2EE20C1F280914402803238F20F
:104F400020913F02309140023A8329831B82DD8207
:104F5000CC828E83CE010196B8CFE53AF105F8F602
:104F6000FE2CEE2009F243131FC092131DC0809146
:104F7000440280FD10C0982F907F69F0F80185836E
:104F8000903F31F0982F907F905F8F70892B8583B1
:104F9000C8010E94701F86E0F801AFE3B2E0019003
:104FA0000D928A95E1F719CFC8010E949A0C8111E0
:104FB0008ECF80914402816080934402C8010E9498
:104FC000701F0BCFEE2009F48FCFC8010E949A0CFE
:104FD000F82E882309F488CF86E0F801AFE3B2E029
:104FE00001900D928A95E1F780913F0290914002E5
:104FF0000E94200C0E944A26F0CE81E08E25FBCE36
:10500000A7E1B0E0E6E0F8E20C94E82E4B8B5C8B75
:105010006D8B7E8B8F8B6111109249031A8A198ACE
:1050200085E0FE017396DE011D9601900D928A9532
:10503000E1F786E0FE013D96DE01179601900D92A4
:105040008A95E1F7CE0107960E949F26882359F0A2
:1050500016E08091760290914502891345C06796CB
:10506000E3E00C94042F86E0FE013796DE011196F2
:1050700001900D928A95E1F78A859B85892B41F3F2
:105080008F81988589238F3F19F32091450230E065
:10509000C901019687709927409176024817190631
:1050A00081F410925D030E9426181092450210921E
:1050B000760286E0EFE3F2E0DF011D928A95E9F7E0
:1050C000C7CF96E0929FD001939FB00D1124AA5BA9
:1050D000BD4FFE01319601900D929A95E1F78093B4
:1050E00045020E94DA0BB4CF819FC00111248A5B74
:1050F0009D4F0E949F26882309F4B1CF80917602AC
:1051000090E001968770992780937602A2CF1F9234
:105110001FB61F9211248F939F93AF93BF938091DB
:105120005003811113C08091510390915203A091BB
:105130005303B09154034196A11DB11D80935103B7
:1051400090935203A0935303B0935403BF91AF9134
:105150009F918F911F901FBE1F901895CDB7DEB7FE
:10516000CC57D1090FB6F894DEBF0FBECDBF85B7BF
:10517000806885BF85B7806885BF84B7877F84BF17
:105180000FB6F894A89580916000886180936000C4
:10519000109260000FBE80E890E00FB6F894809304
:1051A0006100909361000FBE8EED99E09093DF0156
:1051B0008093DE010E945E050E9483068091E200DA
:1051C00084608093E2007894809190038823A1F01A
:1051D0001091E9001F709091EC00892F817090FD73
:1051E00080E8182B1092E9008091E80083FD0E946E
:1051F0003A181F701093E90082E084BD93E095BDDA
:105200009AEF97BD80936E000E94E31390E0909315
:105210001A01809319010E94450D0E94540DEBEA7A
:10522000F2E089EB92E0AFEBB2E011921D928E17A3
:105230009F07D9F78EE090E00E94AF2F8093A502E0
:105240009093A602FC010E961192E817F907E1F778
:1052500089EA8093800089E08093810024982C98CB
:105260003F988AB18F7C8AB96E98479A8BB18063D8
:105270008BB9769A8FE090E00E940C316093A70280
:105280007093A8028093A9029093AA0267702FEFEF
:10529000629FB0011124759567957595679577277D
:1052A000709389006093880070938B0060938A00EC
:1052B00070938D0060938C000E94F60D90E080E06A
:1052C0000E941231883E9E4F11F00E94671382E0C7
:1052D00090E00E9404318093CD0284E090E00E942F
:1052E0000431182F82E290E00E940431982F812F20
:1052F000909358038093570383E090E00E94043119
:10530000682F70E090E080E00E941B186091B90265
:105310007091BA028091BB029091BC020E94451626
:105320000E940716609157036068609357031091BD
:10533000580384E090E00E942831612F82E290E0DF
:105340000E9428316091B9027091BA028091BB022B
:105350009091BC020E9445168AE091E090934D0323
:1053600080934C0388E1682E712C9DECE92E92E02D
:10537000F92E21E4C22ED12CCC0EDD1E82E0C80E07
:10538000D11C809190038530D1F400E4B02EAA2482
:10539000A39400E112E180919003853009F4FBC1F0
:1053A00010925D030E9426180E940D081092BE0202
:1053B0008091BD0281110E94FE150E94A9150E94D4
:1053C000511E882359F08FB7F894409151035091A2
:1053D000520360915303709154038FBFEEECF2E0DF
:1053E000AFEBB2E010E000E0302F8D919191981773
:1053F00009F43AC2292F282790E0BB24B3944B2DFF
:10540000422309F42CC2E4969FAFE497E5963FAFA0
:10541000E5978B2191E009F490E0E6969FAFE6973F
:105420000E949D158160782FE8969FAF8EAFE89718
:10543000E4964FADE497E5965FADE597E6966FADE0
:10544000E697E8968FADE8970E940028F801E253AE
:10545000FD4F8081B826B08280911601909117018E
:10546000B12CB6E1AB2E019609F058C280914603EB
:10547000882369F00E949D152091DC023091DD02A5
:10548000821B930B8F3F9F4710F40E944213809121
:1054900001038823D1F180910003E0914103E69557
:1054A000E81BE093FC02823009F042C2F0E0EB55C9
:1054B000F94FE4910E2F10E0ABEFAA2EA0E1BA2E27
:1054C0008091FD02882361F01092FD020E949D15DB
:1054D0009093FB028093FA021092FF021092FE0258
:1054E0000E949D15E091FA02F091FB028E1B9F0B2A
:1054F0008F3F9F4750F4E00FF11FF093FB02E093C2
:10550000FA028AEF92E0F501099586E0E2EFF2E017
:10551000DE01119601900D928A95E1F71092F40246
:105520001092F5021092F6021092F7021B810C8184
:10553000812F802B09F448C08091F0029091F102F4
:105540000E948E159C019091EC02992309F44EC3A0
:105550002A313105C8F19F3F19F09F5F9093EC020B
:10556000112359F00E9460099FEF11160CF491E08D
:10557000899F802D11248093F402002359F00E940A
:1055800060099FEF10160CF491E0899F802D112483
:105590008093F5023091F4023323B1F02091F502AB
:1055A000222391F045EB3403C0011124992309F41F
:1055B00019C29093F40245EB240390011124332384
:1055C00009F414C23093F5021D810E81812F802BC6
:1055D00009F448C08091EE029091EF020E948E156E
:1055E0009C019091EB02992309F4FBC22A31310509
:1055F000C8F19F3F19F09F5F9093EB02112359F080
:105600000E9440099FEF11160CF491E0899F802DB4
:1056100011248093F602002359F00E9440099FEF65
:1056200010160CF491E0899F802D11248093F702CD
:105630003091F6023323B1F02091F702222391F04A
:1056400045EB3403C0011124992309F4D3C190938D
:10565000F60245EB240390011124332309F4CEC153
:105660003093F70246E050E0BE016F5F7F4F82EF5C
:1056700092E00E94E730892B61F48091F4029091CE
:10568000F502892B9091F602892B9091F702892BD4
:1056900011F00E94F51686E0FE013196A2EFB2E00D
:1056A00001900D928A95E1F70E940D089091DE021B
:1056B00089138093DE0280919003843061F583E04A
:1056C0008093E9008091E80082FF25C08091E80086
:1056D00090E085FF0AC050E040E060E270E0CE015B
:1056E0008F5B9F4F0E94080691E08091E8008B77C6
:1056F0008093E800992379F022968FAD229781302C
:1057000009F4C2C1882309F4B2C1823009F47AC114
:10571000843009F417C280919003843009F031CEAF
:1057200086E08093E9008091E80082FF2ACE809194
:10573000E80090E085FF09C050E040E060E470E0E0
:10574000CE0101960E94080691E08091E8008B77D7
:105750008093E800992309F414CE8981811102C253
:1057600080915603882309F418C21092560381E0F1
:105770008093550322961FAE229723961FAE239740
:105780008EEF24968FAF249763E0CE018F5B9F4FFF
:105790000E949F07F6CD80919003843009F43DC0AC
:1057A000109201038091BE02811116C0A092BE0228
:1057B00080914103982F91709093BD028E7F8093CA
:1057C00041039FEFE0E7F2E09150E040F040E1F765
:1057D00000C000000E946F0E109250030FB6F894A4
:1057E000A895609260000FBEB092600083B7817F81
:1057F000846083BF83B7816083BF7894889583B7C3
:105800008E7F83BF0FB6F894A89580916000886161
:1058100080936000109260000FBE80918103882306
:1058200009F4B9CD0E94E31390E090931A0180939C
:1058300019010E94450D0E94540DEFEBF2E0119208
:10584000EE16FF06E1F70E94511EEFEBF2E08191A8
:105850008111AFC122E0ED3CF207C9F79CCD9F5FFB
:10586000BB0C963009F0CBCD0F5F1F4F0E301105EA
:1058700009F0BACD8FEFE9968FAFE997EA968FAF2F
:10588000EA97EB961FAEEB970E949D158160782FEB
:10589000ED969FAF8EAFED97E9964FADE997EA96FB
:1058A0005FADEA97EB966FADEB97ED968FADED9709
:1058B0000E940028D1CDA89EF001A99EF00D1124D0
:1058C000E75DFE4F828893888114910419F415EAEC
:1058D000812E912CA89E8001A99E100D1124075D98
:1058E0001E4FF80186818823C1F0858596850E9428
:1058F0008E158816990688F4BA9C40011124F80187
:105900008189811105C0C401875D9E4F0E94D91213
:10591000C401815D9E4F0E94F812B3948B2D90E0DC
:1059200020911601309117012817390724F69ECDD2
:10593000863059F4F0E0EE55F94FE4910E2F10E067
:10594000FBEEAF2EF0E1BF2EBBCD893061F4E695C2
:10595000F0E0E156F94FE4910E2F10E0EEE5AE2EA7
:10596000E0E1BE2EADCD8F3061F4E695F0E0E45677
:10597000F94FE4910E2F10E078EFA72E7FE0B72EBD
:105980009FCD853159F4F0E0E756F94FE4910E2FA1
:1059900010E068EAA62E6FE0B62E92CD08E210E085
:1059A0003DE2A32E3FE0B32E883109F489CD833246
:1059B00049F4E7E9F6E0059114915AE9A52E50E182
:1059C000B52E7ECD04EF11E046EFA42E4EE0B42EAE
:1059D000843209F475CD00ED17E020E2A22E28E014
:1059E000B22E6ECD81E08093F402E5CD81E080930C
:1059F000F502EACD81E08093F6022BCE81E0809320
:105A0000F70230CE24968FAD249723969FAD23972F
:105A10009093DF028093E00226968FAD269725961D
:105A20009FAD25979093E1028093E20228968FAD77
:105A3000289727969FAD27979093E3028093E402DF
:105A400042E150E063E270E0CE018F599F4F0E9427
:105A5000F43084E0898381E080938F038EEF8A8322
:105A600010928E03CE0101960E94DA0554CE19825F
:105A70008CE0ECE6F1E0DE01129601900D928A9541
:105A8000E1F78EEF8D87EECF05EE12E086E0A82ECF
:105A9000B12C9EE0892E912C0E949F2FB5010E946F
:105AA0001E2F482E0E949F2FB4010E941E2F582E99
:105AB000B20180E00E94230A0497C59768F7F801B5
:105AC000408251820E5F1F4FF2E00B3E1F0721F70D
:105AD00081E089839091E5029A839091E6029B830D
