:100000000C943D050C945A050C945A050C945A0511
:100010000C945A050C945A050C945A050C945A05E4
:100020000C945A050C945A050C9429150C944619F5
:100030000C943B2D0C945A050C945A050C945A05BB
:100040000C945A050C945A050C945A050C945A05B4
:100050000C945A050C9400160C945A050C945A05ED
:100060000C945A050C945A050C945A050C945A0594
:100070000C945A050C945A050C945A050C945A0584
:100080000C945A050C945A050C945A050C945A0574
:100090000C945A050C945A050C945A050C945A0564
:1000A0000C945A050C945A050C945A0505010980C4
:1000B000A101850319012AB700150126B700950192
:1000C00075108100C0050C0901A101850419012AE0
:1000D000A002150126A002950175108100C005013E
:1000E0000906A1018505050719E029E71500250185
:1000F0009508750181020507190029EF15002501F2
:1001000095F075018102050819012905950575010C
:100110009102950175039101C005010902A1010930
:1001200001A100050919012905150025019505758D
:10013000018102950175038101050109300931151D
:1001400081257F95027508810609381581257F95DF
:100150000175088106050C0A38021581257F950175
:1001600075088106C0C005010906A101050719E04F
:1001700029E715002501950875018102950175088B
:1001800081010507190029FF150026FF0095067556
:100190000881000508190129059505750191029549
:1001A0000175039101C00000000000000000000084
:1001B000000000000000000000007E0F00D4FFFFE0
:1001C000FFC70000007800000000000000002A2B9C
:1001D00028000000000000000000000000000000F7
:1001E0000029000000002C1E342021222434262760
:1001F000252E362D3738271E1F2021222324252681
:100200003333362E37381F0405060708090A0B0C4E
:100210000D0E0F101112131415161718191A1B1C96
:100220001D2F3130232D350405060708090A0B0C54
:100230000D0E0F101112131415161718191A1B1C76
:100240001D2F3130354C0001010101010101010177
:100250000202020202020202020303030303030377
:100260000304040404040404050505050506060644
:100270000606070707070708080808090909090A01
:100280000A0A0B0B0B0C0C0C0D0D0D0E0E0E0F0FA6
:100290000F10101111111212131314141515161634
:1002A0001717181819191A1A1B1B1C1D1D1E1E1FA3
:1002B0002020212222232424252626272829292AF2
:1002C0002B2C2D2D2E2F303132323334353637381A
:1002D000393A3B3C3D3E3F40414243444546474816
:1002E000494A4C4D4E4F50515354555658595A5BEC
:1002F0005D5E5F616264656668696B6C6D6F70728C
:10030000737577787A7B7D7E8082838587888A8CF7
:100310008E8F91939596989A9C9EA0A2A3A5A7A92B
:10032000ABADAFB1B3B5B7BABCBEC0C2C4C6C9CB22
:10033000CDCFD1D4D6D8DBDDDFE2E4E7E9EBEEF0D8
:10034000F3F5F8FAFDFFFFAA7F5540222325262862
:10035000292A2C2D2F3032333536383A3B3D3E405A
:1003600042434547494A4C4E5051535557595A5CA0
:100370005E6062646668696B6D6F71737577797BB7
:100380007D7F81838587898A8C8E90929496989AB6
:100390009C9E9FA1A3A5A7A8AAACAEAFB1B3B4B6CB
:1003A000B8B9BBBCBEBFC1C2C3C5C6C7C9CACBCC26
:1003B000CDCED0D1D2D2D3D4D5D6D7D7D8D9D9DAF9
:1003C000DADBDBDBDCDCDCDCDCDDDDDDDDDCDCDC6E
:1003D000DCDCDBDBDBDADAD9D9D8D7D7D6D5D4D396
:1003E000D2D2D1D0CECDCCCBCAC9C7C6C5C3C2C16B
:1003F000BFBEBCBBB9B8B6B4B3B1AFAEACAAA8A7C8
:10040000A5A3A19F9E9C9A98969492908E8C8A897F
:10041000878583817F7D7B79777573716F6D6B695C
:1004200068666462605E5C5A5957555351504E4C31
:100430004A4947454342403E3D3B3A3836353332E0
:10044000302F2D2C2A29282625232201014C00019A
:10045000014C0001014D0001014A0001014A010463
:100460003130307C01012801043130307C010152EF
:1004700001043130307C0102E00101190103E00088
:1004800001014A010438307C010128010438307C24
:100490000101520001014A01043130307C0102E1C6
:1004A00001014D0103E101043130307C0102E00122
:1004B00001060103E00001014A010438307C010219
:1004C000E101014D0103E1010438307C01012A0002
:1004D00001014A01043130307C0102E101014D018A
:1004E00003E101043130307C01012A0001014D019A
:1004F000043130307C01012801043130307C0102AC
:10050000E00101190103E00001014D010438307CD4
:10051000010128000102E101014D0103E10104385C
:10052000307C01012A000102E00102E101014F01DA
:1005300003E10103E0010436307C01012A002B04B1
:100540002B012961E100E00000001E0014000400FE
:100550001D00640036021F001A0016001B00005721
:100560002B002000080007000600E2002C002100FC
:1005700015000900190001582F02220017000A0077
:10058000050000002602230046000000C35C0000B6
:100590002F0024001450000001000000300025004E
:1005A0001C000B00110000002702260018000D009F
:1005B00010000258300227000C000E0036003400F4
:1005C0002A002D0012000F0037001F0228002E0005
:1005D0001300330038003200370203530007E300F2
:1005E000E1004C0000000100AC000100010001002E
:1005F00000003A001A01375D010001004B003B008A
:100600004F011601385D010001003C000F012D5D16
:100610002E5D010001003D001C01010049000100A8
:1006200001003E000100015750010000FB003F00A7
:100630000100000001000000FA004000010000007D
:1006400001000000F9004100060150000100000017
:10065000FC0042001D0151000100010001004300A7
:10066000365D5200010001002A0144002F5D4F0059
:100670000100010001004500305DAE0009010100EC
:100680004E000100AB00010001000100000001006C
:10069000AC0001000100010000001E011A014D0024
:1006A0000100FD004B001F014F011601395DFE00E6
:1006B000010020010F01315D325DFF00F4002101D6
:1006C000150101004900010001002201010002574B
:1006D00050010000FB002301460000000100000063
:1006E000FA0024010100000001000000F9002501CA
:1006F000335DF20001000000FC0026011D01F10045
:10070000010001000100A8004A00F0000100010002
:10071000F500AA00345DF300010001000100A9000A
:10072000355DAE00090101004E000100AB00010083
:100730000100010000000100010001000100095D4D
:10074000000059004C0001000100010001005A00A6
:10075000F40016011B01010001005B000F05F5000C
:10076000FD00010001005C0015010501FE00010013
:10077000CB5C5D0001000100FF000000FB005E009B
:100780000100000001000000FA005F00010000000D
:1007900001000000F90060000601F200AC0000005A
:1007A000FC0061001D01F100AA000100CA5C6200AA
:1007B0000100F000A9000100010001000100F300A8
:1007C000AB0001000100530019010100A8002A5DDF
:1007D000010001000100C35C0100005C0000010099
:1007E0000100010001000100000001000100010002
:1007F00001000100010001000100010001000100F1
:100800000100010001000100010001002B000100B6
:100810000100010001002C000100010001000100A5
:1008200001000000010001000100000001000000C3
:100830000100010010500000010000000100010053
:1008400001000100010000000100010001000100A1
:100850000100115001000100010001000100010030
:100860000100010001000100010001000100010080
:100870000100010001000100010001000100010070
:1008800001000100000032190A00047F3F1F64329A
:1008900014643214783C1E1E140A050A000000007D
:1008A000000306B200080001000000A800080002D2
:1008B000000300A0001400030057494E55534200A6
:1008C0000000000000000000008400040007002A6F
:1008D0000044006500760069006300650049006E11
:1008E00000740065007200660061006300650047E7
:1008F000005500490044007300000050007B00399F
:100900000044004200370046003100460044002DFC
:100910000037004500370041002D00340030003022
:100920000038002D0039003300360042002D00361B
:1009300000420041003600430031003900410033DD
:10094000003000380063007D00000000001B030140
:10095000636F6E6669677572652E6572676F646F27
:10096000782D657A2E636F6D0009026B000401001B
:10097000A0FA09040000010301010009211101008E
:10098000012240000705810308000A090401000153
:1009900003010200092111010001224D0007058217
:1009A0000308000A090402000103000000092111E4
:1009B000010001226D000705830320000A090403DA
:1009C0000002FF000000070584034000050705053D
:1009D000034000051201100200000008973275491B
:1009E00001000102000122034500720067006F0050
:1009F00044006F007800200045005A00200053009A
:100A0000680069006E006500000030035A00530062
:100A10004100200054006500630068006E006F0014
:100A20006C006F006700790020004C0061006200DC
:100A30007300200049006E006300000004030904F5
:100A4000050F3900021C100500DF60DDD88945C79D
:100A50004C9CD2659D9E648A9F00000306B20045AF
:100A6000001810050038B60834A909A0478BFDA06E
:100A7000768815B665000142000011241FBECFEF35
:100A8000DAE0DEBFCDBF23E0A0EEB1E001C01D92F1
:100A9000AE3AB207E1F711E0A0E0B1E0E2E0F2E641
:100AA00002C005900D92A03EB107D9F70E94A02880
:100AB0000C94B1300C940000E8EDF0E080818E7F62
:100AC00080831092E2001092DA001092E100A0EE12
:100AD000B0E08C9181608C9380818F77808319BC8A
:100AE000A7EDB0E08C918E7F8C9380818F7E808388
:100AF0001092780308952091E4003091E50095E686
:100B0000A9012091EC00822F817020FF06C0809106
:100B1000E80080FF06C080E008952091E80022FDF3
:100B20001AC080919D03882389F0853089F08091D7
:100B3000EB0085FD0FC02091E4003091E5004217E5
:100B40005307F9F29150E1F684E0089582E00895A8
:100B500083E0089581E00895EF92FF920F931F9331
:100B6000CF937C018B010E947B05C82F882371F0F5
:100B70008C2FCF911F910F91FF90EF900895F70167
:100B800081917F018093F100015011090115110538
:100B900079F38091E80085FDF2CF8091E8008E77AF
:100BA0008093E8000E947B05882381F3C82FE0CF63
:100BB00080919F0387FF13C08091E80082FF06C0E9
:100BC0008091E8008B778093E80004C080919D03BA
:100BD0008111F2CF089580919D038823D9F38091EC
:100BE000E80080FFF8CF8091E8008E77ECCF982F57
:100BF0009093E900242F762F50E0891731F07091FF
:100C0000EC002091ED005091F00021FD07C09F5FA6
:100C1000973071F78093E90081E008953091EB00FF
:100C20003E7F3093EB003091ED003D7F3093ED003F
:100C30003091EB0031603093EB007093EC00209327
:100C4000ED005093F0002091EE0027FDE0CF80E012
:100C50000895CF92DF92EF92FF920F931F93CF935D
:100C6000DF93C8EDD0E088818F7E8883E7EDF0E0E8
:100C700080818160808384E082BF81E080937803FB
:100C800088818E7F888302EE10E0F8011082109236
:100C9000DA0081EEC82ED12CF601108288818F7780
:100CA000888388818068888388818F7D888319BC48
:100CB00010929D0310929E0310929C0310929B032E
:100CC00090EEE92EF12CF70180818B7F8083888163
:100CD0008160888342E060E080E00E94F705F601D1
:100CE00080818E7F8083F801808181608083808114
:100CF00088608083F70180818E7F80838881806116
:100D00008883DF91CF911F910F91FF90EF90DF903B
:100D1000CF900895FC018091A5039091A6038617BA
:100D20009707A0F06115710529F48091E8008E778E
:100D30008093E80090E06115710551F4911108C0AD
:100D40008091E80082FF35C080E00895BC01F2CFB9
:100D500080919D038823C9F18530C9F18091E80015
:100D600083FD31C08091E80082FDEACF8091E800E8
:100D700080FFE1CF8091F3002091F200382F6115C0
:100D8000710519F02830310558F091E0283031050F
:100D900009F090E08091E8008E778093E800CBCF57
:100DA00084918093F1003196615071092F5F3F4F1C
:100DB000E6CF80919D03882341F0853041F08091FA
:100DC000E80083FFBDCF81E0089582E0089583E0CD
:100DD0000895FC018091A5039091A60386179707BB
:100DE000A0F06115710529F49091E8009E77909329
:100DF000E80090E06115710551F4911108C08091EF
:100E0000E80082FF34C080E00895BC01F2CF8091F9
:100E10009D038823C1F18530C1F18091E80083FDF5
:100E200030C08091E80082FDEACF8091E80080FF29
:100E3000E1CF8091F3002091F200382F6115710508
:100E400019F02830310558F091E02830310509F0CB
:100E500090E02091E8002E772093E800CBCF81919D
:100E60008093F100615071092F5F3F4FE7CF809170
:100E70009D03882341F0853041F08091E80083FF95
:100E8000BECF81E0089582E0089583E0089508953B
:100E900080917A03089520919D03243091F420934A
:100EA000E90070E050E040E00E94AC05882321F0AA
:100EB00010927603109277038091E8008E778093EA
:100EC000E800089590915D03803F59F480915E039E
:100ED00087FF0DC010925E0391110BC01092590351
:100EE00008C0813F81F480915E0318169CF399231A
:100EF00081F080915F0390916003892B09F064C0B9
:100F0000109256030895823F49F497FFF0CF109254
:100F10005D0380915E038111ECCFE0CF833F19F434
:100F20001916ACF3E4CF20915F03893F29F4121620
:100F3000F4F610925F03DBCF8A3F19F427FFD7CF77
:100F4000F8CF209160038B3F29F427FFD0CF109278
:100F50006003CDCF8C3F19F41216CCF3C8CF843F79
:100F600031F480915C038E7F80935C03C0CF853F1A
:100F700021F480915C038D7FF7CF863F21F480912F
:100F80005C038B7FF1CF873F21F480915C03877FE7
:100F9000EBCF883F21F480915C038F7EE5CF8D3FBE
:100FA00031F480911E038E7F80931E03A0CF8E3F6D
:100FB00021F480911E038D7FF7CF8F3F09F097CFEB
:100FC00080911E038B7FF0CF089580911E0380FDDA
:100FD0001AC081FD14C082FD14C08091560388237D
:100FE00091F08C3370F425E0829FC00111246CE3F2
:100FF00070E00E94492E862F672B29F0089582E029
:10100000089585E0089581E0089580911E0380FD94
:1010100016C081FD16C082FD18C080915903882337
:1010200091F08C3390F429E1829FC00111246CE38C
:1010300070E00E94492E862F672B49F0089586E0C4
:1010400008958CE0089585E0089589E1089581E090
:101050000895803F31F40E940508819580935E03D6
:101060000895813F19F40E940508F8CF823F31F4BA
:101070000E940508819580935D030895833F19F4CC
:101080000E940508F8CF893F29F40E94E507809364
:101090005F0308958A3F21F40E94E5078195F7CF09
:1010A0008B3F31F40E94E50781958093600308959A
:1010B0008C3F19F40E94E507F8CF843F31F480910A
:1010C0005C03816080935C030895853F21F48091E7
:1010D0005C038260F7CF863F21F480915C038460DB
:1010E000F1CF873F21F480915C038860EBCF883F8C
:1010F00021F480915C038061E5CF8D3F31F48091D4
:101100001E03816080931E0308958E3F21F4809119
:101110001E038260F7CF8F3FB9F780911E03846072
:10112000F1CF9C014FB7F89480911A0390911B0363
:10113000A0911C03B0911D034FBF821B930B089518
:10114000209168012223C9F02091340327FF15C0A4
:10115000E62FE695E695E695EE31D8F4E80FF92FFF
:10116000F11D677021E030E001C0220F6A95EAF7B7
:1011700020958281282322830895FC0132960896C7
:101180002191621303C0DF0111971C92E817F90740
:10119000B9F70895209168012223C1F0209134030A
:1011A00027FF14C0E62FE695E695E695EE31F8F4B4
:1011B000E80FF92FF11D677021E030E001C0220F28
:1011C0006A95EAF78281822B82830895FC01329628
:1011D0002FEF30E04191641751F02F3F19F4411186
:1011E00001C0232F3F5F3630A9F72F3F09F4089540
:1011F000820F911D27FD9A95FC0162830895CF927D
:10120000DF92EF92FF926C01EE24FF2420E0C114E4
:10121000D104E104F10419F0C701B60120E1C72EA1
:10122000D82EE92EFF24C114D104E104F10419F0F1
:10123000285FC701B6016B017C0154E0F694E79486
:10124000D794C7945A95D1F7C114D104E104F1049D
:1012500019F02C5FC701B6016B017C0142E0F694E6
:10126000E794D794C7944A95D1F7C114D104E10407
:10127000F10419F02E5FC701B60196958795779511
:101280006795672B682B692B09F02F5F822FFF90E2
:10129000EF90DF90CF900895809115038111109207
:1012A0001503089580959091140398239093140347
:1012B00008958091140390911303892B9091120348
:1012C000892B8093E001909115039923A1F0892B3C
:1012D0008093E00180916801882341F1809134037B
:1012E00087FF24C08EE1E2EEF1E090E0815000F54E
:1012F00091110E944C09E0913603F0913703309729
:10130000E1F080916801882359F08091340387FFD0
:1013100007C08091E0018093E10185E08093E001C6
:101320000280F381E02D80EE91E0099486E0DBCF2E
:1013300021912223D9F29F5FD9CF0895E92FEE0F93
:10134000E90FEE0F8E0F982F9770869586958695EC
:1013500025E0829FF0011124E652FD4F50E040E06D
:1013600080E0219130E0092E02C0369527950A943D
:10137000E2F721703327042E01C0220F0A94EAF706
:10138000822B4F5F5F4F4530510559F70895E92F84
:10139000EE0FE90FEE0F8E0F982F977041E001C00E
:1013A000440F9A95EAF786958695869595E0899FEC
:1013B000F0011124E652FD4F30E020E070E0519141
:1013C000DF011197CB01022E02C0969587950A94F2
:1013D000E2F7817081958527842385278C932F5F81
:1013E0003F4F2530310559F708958091D9029091EA
:1013F000A802981301C008958F5F8770FACF8823E1
:1014000041F08095909113038923809313030C94EA
:1014100059090895882339F090911303982B9093DC
:1014200013030C9459090895882321F00E9452094E
:101430000C9459090895882339F090911403982B3E
:10144000909314030C945909089520919C023091B3
:101450009D022817390771F090939D0280939C029A
:10146000E0913603F0913703309721F00084F18545
:10147000E02D0994089520919A0230919B0228173B
:10148000390771F090939B0280939A02E0913603A2
:10149000F0913703309721F00680F781E02D099411
:1014A0000895E0913603F0913703309721F00190D1
:1014B000F081E02D099480E00895CF93DF93EC0153
:1014C00081E0898B809114039F81892B8093140381
:1014D000809113039885892B809313030E945909E7
:1014E000EA81FB81309739F06C897D89CE010696BF
:1014F000DF91CF910994DF91CF910895EF92FF9200
:101500000F931F93CF93DF93EC018A85811139C02C
:10151000EB80FC8087E5F81A26E12E9DC0012F9D07
:10152000900D1124DC01A85EBE4F1496ED91FC9144
:101530001597309731F054966D917C91825E9E4F55
:10154000099586E18E9D80018F9D100D1124085E06
:101550001E4FF80187810E945209F8018085982F5B
:101560009095809113038923809313030E94590956
:10157000188219861B861E821D821092A00210926C
:101580009F02DF91CF911F910F91FF90EF900895EF
:10159000FA01811101C0FB01099480914F03982F3A
:1015A0009E7F29F48170826080934F030895863571
:1015B000E8F381708465F8CFAF92BF92DF92EF922B
:1015C000FF920F931F93CF93DF93082F162FE901FC
:1015D000E42FF0E0EA5BFD4F611111C0E4915E2F52
:1015E0004E2F4983E8835A831B82DF91CF911F914D
:1015F0000F91FF90EF90DF90BF90AF900895E62E8F
:10160000F12C4491D42EE42FF0E026E0829FC0011B
:1016100011242FEF30E0B9010E94352E802F90E089
:10162000880F991F55E5569FD001579FB00D112483
:101630008A1B9B0B982F990F890F5901AE18BF0871
:10164000AE9ED001AF9EB00DBE9EB00D11245B2F9B
:10165000189F80011124012F11275901A01AB10AE6
:10166000AE9E8001AF9E100DBE9E100D112459013B
:10167000A81AB108AE9CC001AF9C900DBE9C900D05
:101680001124892F9927281B390B2E9FC0012F9FCA
:10169000900D3E9F900D1124E92F62307105A1F04D
:1016A00050F46115710509F49CCF6130710581F02A
:1016B000EB2F512F96CF6430710569F080F06630C2
:1016C000710509F48ECFF4CFE42F4B2F592F89CF1A
:1016D000E42F412F86CFEB2F542F492F82CF4B2F52
:1016E0005D2DE12F7ECF9091340392FF06C0282F0D
:1016F00028712830F9F4877F846093FF06C0282F73
:1017000028712831F1F4877E84612091350320FF10
:1017100006C0382F38713830D9F4877F816021FFB7
:1017200006C0282F28712831D1F4877E816194FD6D
:10173000877E0895282F24712430F9F68B7F8860E6
:10174000DCCF282F2471243101F78B7E8861DDCF17
:10175000382F3171313019F78E7F8860E0CF282F14
:101760002171213121F78E7E8861E1CFCF93DF9304
:10177000972F70E026E0929F600D711D1124FB01F0
:1017800034E5839FE00DF11D1124EE0FFF1FE25C95
:10179000FA4FC591D491CE01C238D105B9F1E8F51F
:1017A000C133D10509F499C050F5C932D10509F406
:1017B0008DC0CA32D10509F497C0C11521E5D20701
:1017C00008F0BFC0C11530E5D30708F016C1C83E08
:1017D000D10508F09DC0C13ED10568F5C83AD105D4
:1017E00008F089C0C53AD10508F0FFC0C130D10565
:1017F00011F1209709F443C02497E8F440C0C533A1
:10180000D10509F45CC0C933D105B9F62091340380
:10181000237089F080EE90E00EC0C33ED10591F1B7
:1018200068F4C03ED105F9F0C23ED10531F62091F1
:10183000340322FD20C0DF91CF910895C63ED1052B
:1018400061F1C73ED10581F1C43ED10509F0B5CFA4
:101850002091350321FFEFCF8091340384FD0FC029
:1018600087EE90E0E8CF2091340320FD12C1309143
:10187000350330FFE0CF83EE90E024FFDCCF90E033
:1018800080E0D9CF2091340322FD06C13091350389
:1018900030FDC0CF24FFCFCFF2CF2091340323FF00
:1018A000CACF24FDECCFDCCF2091340323FDF7C059
:1018B0003091350331FFEECF84EE90E0BCCF209124
:1018C000340325FFB8CF89E290E0B5CF20913403EF
:1018D00025FFB1CF85E390E0AECF2091340326FF02
:1018E000AACF8AE290E0A7CF2091340326FFA3CFAE
:1018F00081E390E0A0CFCF3BD10508F6C85AD0E0F5
:10190000CC0FDD1FCD55DE4F88819981946493CF34
:10191000C11520E2D20760F4C11531E0D30708F009
:101920008ACFCE019065C03FD10508F084CFA7CF04
:10193000C11580E4D80708F4A2CFCE019F70906A49
:101940007ACFC11595E5D90710F5C11524E5D20761
:1019500008F088C0C11533E5D30708F06FC0C11582
:1019600082E5D80708F465C09E012370332781E023
:1019700090E002C0880F991F2A95E2F7C695C69598
:1019800020E2C29FE00111248C2B9D2B50C0C11579
:1019900099E5D907A0F4C11528E5D20708F067C07A
:1019A000C11536E5D30708F06ACF8C2F0E94730B60
:1019B00090E0982F882788279F7190623CCFC115AF
:1019C0008AE5D80708F458C0CE0190568115904298
:1019D00008F055CF8D2F8F710E94730B90E0982FD8
:1019E000882788279F718C2BE8CFC55AD0E0C05636
:1019F000DE4F888190E090641ECF9E01E4E0369532
:101A00002795EA95E1F723708C2F8695869583704C
:101A100030E2839FC0011124922BC37021E030E09B
:101A200002C0220F331FCA95E2F7822B932B9C68CA
:101A300002CF9C2F8827816F906AFDCE9E01237074
:101A4000332781E090E002C0880F991F2A95E2F7C2
:101A5000C695C69530E2C39FE00111248C2B9D2BC7
:101A60009A68E9CE9C2F8827846F906AE4CE9C2FD9
:101A70008827806F906ADFCE8C2F8F700E94730B47
:101A800034E0D695C7953A95E1F7CF709C2F9069D1
:101A9000D2CE89E390E0CFCE82EE90E0CCCE86EE3F
:101AA00090E0C9CEBF92CF92DF92EF92FF920F9358
:101AB0001F93CF93DF938C01C0907103D09072037A
:101AC000E0907303F09074038091160390911703D4
:101AD000A0911803B0911903C82AD92AEA2AFB2A2F
:101AE000CFE1D0E0BC2ED701C6010C2E04C0B695C4
:101AF000A795979587950A94D2F780FD0EC02197F8
:101B000088F7B12C8B2DDF91CF911F910F91FF9012
:101B1000EF90DF90CF90BF900895B8018C2F0E9476
:101B2000B60B019761F3EECFCF93DF93EC010E94E8
:101B3000520DBE01DF91CF910C94B60B0E94940D13
:101B4000292F2F7092959F7092509E3078F4E92F34
:101B5000F0E0ED54FF4C0C945D2E803F19F020F422
:101B6000883E20F481E00895843FE1F380E0089509
:101B7000883EC0F3813FD1F7F5CF822F86958695B9
:101B8000869508959C019A9581159F4130F4832F85
:101B9000817031FD8260FB0109940895FC01808110
:101BA000813041F49185911114C09285992389F077
:101BB00082E00895823041F48185811107C08285D9
:101BC000811106C083E0089586E0089585E00895B8
:101BD00084E0089527982F98089526982E980895C0
:101BE00025982D98089556985E980895279A2F9ACB
:101BF0000895269A2E9A0895259A2D9A0895209848
:101C000028982198299822982A9823982B985298B6
:101C10005A9853985B983E98469808958098889A69
:101C20008198899A84988C9A85988D9A86988E9AAC
:101C300087988F9A0895CF93DF9300D00F92CDB7F6
:101C4000DEB790919D03943019F589837B836A8375
:101C500083E08093E9008FEF9091E800815095FD3B
:101C600006C095ED9A95F1F700008111F5CF8091AE
:101C7000E80085FF0DC050E040E063E070E0CE0179
:101C800001960E94AC058091E8008E778093E80071
:101C90000F900F900F90DF91CF910895BC0184E0D9
:101CA0000C941B0EBC0183E00C941B0E9C0182E083
:101CB0008093E9009FEF8091E800915085FD06C078
:101CC00085ED8A95F1F700009111F5CF8091E8003C
:101CD00085FF0CC050E040E065E070E0C9010E9463
:101CE000AC058091E8008E778093E8000895CF934B
:101CF000DF93EC01809168018823B1F18091340376
:101D000087FF32C060E283E08093E9008FEF90911B
:101D1000E800815095FD06C095ED9A95F1F7000019
:101D20008111F5CF8091E80085FF1BC0809168018B
:101D300070E050E040E0811104C050E040E068E015
:101D400070E0CE010E94AC058091E8008E77809310
:101D5000E80080E2FE01ABE7B3E001900D928A95C6
:101D6000E1F7DF91CF91089568E081E0CDCFEF9268
:101D7000FF920F931F93CF93DF930E94F30D0E9466
:101D8000F00D0E94ED0D0E94EA0D88E8E82EF12C7E
:101D90008FEF90E0F701918380830AE810E0F8016B
:101DA00091838083CCE8D0E0998388830E94FC0DE6
:101DB000FFEF20E782E0F15020408040E1F700C0D3
:101DC00000000E94F90D9FEFE0E7F2E09150E04043
:101DD000F040E1F700C000000E94F60D2FEF80E711
:101DE00092E0215080409040E1F700C000000E9446
:101DF000F00DEFEFF0E722E0E150F0402040E1F796
:101E000000C000000E94ED0D8FEF90E7E2E08150EE
:101E10009040E040E1F700C000000E94EA0D809190
:101E200021038770FFEF8F9FC0011124959587953F
:101E3000959587959927F70191838083F801918380
:101E40008083998388830E94F30D0E94F00D0E9485
:101E5000ED0DDF91CF911F910F91FF90EF900C94BA
:101E6000EA0DCF9384E090E00E940630C82F81E213
:101E700090E00E940630982F8C2FCF910895CF923A
:101E8000DF92EF92FF926B017C010E94CD0AB701B5
:101E9000A60188E090E0FF90EF90DF90CF900C9447
:101EA0002C3080915303882319F081508093530381
:101EB00060914F03709150038091510390915203B0
:101EC0000C943F0F80915303833018F48F5F8093FD
:101ED000530360914F03709150038091510390918F
:101EE00052030C943F0FEFE4F3E083E08083118210
:101EF0008FEF8283838314826081718182819381D9
:101F00000C943F0F6FEE7EEF90E080E00E9438303F
:101F100060E082E090E00E941A3060E083E090E0B0
:101F20000E941A3010921603109217031092180391
:101F30001092190360E084E090E00E941A3060E0A3
:101F400081E290E00E941A3060E085E090E00E941B
:101F50001A3060E086E090E00E941A306FEF87E070
:101F600090E00E941A3040E050E0BA0188E090E032
:101F70000E942C3060E08DE090E00E941A3040E03A
:101F800050E0BA0188E190E00E942C3060E087E1E7
:101F900090E00E941A3040E050E0BA018CE190E0FD
:101FA0000E942C3060E080E290E00E941A3040E015
:101FB00050E0BA0188E190E00E942C301092210399
:101FC00010922203109223031092240384E0806174
:101FD00080932103409121035091220360912303B8
:101FE000709124038FE090E00E942C3040E050E09C
:101FF000BA0183E190E00C942C30CF93C82F873046
:1020000070F580915C0190915D01892B89F564E602
:1020100070E080E40E94682D90935D0180935C01E4
:10202000892BD1F464E670E082E10E94C42D909384
:102030005D0180935C01892B79F481E090E001C01F
:10204000880FCA95EAF764E670E080950E94C42D77
:1020500090935D0180935C01CF910C94172E8A3090
:10206000B9F040F4883071F0893079F0209A2898DE
:10207000CF9108958C3091F070F08D30B9F73E9A81
:102080004698F6CF219A2998F3CF229A2A98F0CF32
:10209000239A2B98EDCF529A5A98EACF539A5B988D
:1020A000E7CFCF93DF9380914F0380FD0BC0E3E137
:1020B000F2E01182108212821382349652E0EF34E1
:1020C000F507B9F7C3E1D2E0FE01928120813181A9
:1020D000892F291708F4822F381708F4832F838358
:1020E000381B3183281B2083981B9283349682E00F
:1020F000EF34F80751F70E94622D64E670E084E83F
:102100000E94682D64E670E088810E94C42D64E618
:1021100070E089810E94C42D64E670E08A810E948B
:10212000C42D64E670E08B810E94C42D249692E059
:10213000CF34D90739F70E94172E579A3BB13F7712
:102140002BB120684FB7F89483E192E0FC015191E4
:10215000CF0168E02BB9000000C057FF3BB9550F15
:10216000000000C000C000C03BB900C06A9591F7F4
:10217000F2E08F349F0751F74FBF8FE594E001974E
:10218000F1F700C00000DF91CF9108958F929F92E8
:10219000AF92BF92CF92DF92EF92FF920F931F9375
:1021A000CF93DF93FC01B280948081E08483CFE4FD
:1021B000D2E003E112E08BE4A82E88248394EE247D
:1021C000EA94F12C2BE4C22ED12C91101DC01B825D
:1021D0001A8298014A81698188810E94DC0A2596C9
:1021E0000C5F1F4F82E0CA39D80779F7DF91CF9192
:1021F0001F910F91FF90EF90DF90CF90BF90AF9025
:102200009F908F900C9451102B81222309F1215023
:102210002B833C818A2D821B311101C0822F90912A
:102220005203899FC0011124B6010E94352E6A8392
:10223000211104C0332311F01C82AB8222E02B1544
:1022400040F2809150038883809151038983C1CFEC
:102250000E94BE2E823091400CF0BBCF82E08B15E5
:10226000C0F40E94BE2EB7010E94492E888322E04E
:102270002B1590F40E94BE2E209151032695622FBB
:1022800070E00E94492E280F29831A82AB828C822B
:10229000A0CF80915003EACF20915103F5CFEF9268
:1022A000FF921F93CF93DF93EC0183E1E82E82E04E
:1022B000F82E10E08C8197014091520360915103F8
:1022C000810F0E94DC0A1F5E84E0E80EF11C1F3FB4
:1022D00089F70E9451109A818C8190FF08C08F5F0E
:1022E0008C83DF91CF911F91FF90EF9008958150E3
:1022F000F7CFBF92CF92DF92EF92FF920F931F938F
:10230000CF93DF93FC018281DD24DA9480FD02C04B
:10231000DD24D39403E112E0D0E0C0E02FE0B22E40
:10232000F801118210821282138294E0E92EF12CBE
:10233000C12C809110028C0D80310CF43DC06B2DAE
:102340000E94272E892F082E000C990B8C179D07B1
:1023500091F4809152038E9DA0018F9D500D112408
:1023600055954795559547959801609151038091F2
:1023700050030E94DC0ACD0CF1E0EF1AF108C9F617
:1023800021960C5F1F4FCF30D10551F60E9451109E
:102390008091100291E0D91215C0811111C08EE018
:1023A00080931002DF91CF911F910F91FF90EF90DA
:1023B000DF90CF90BF90089587FFC5CF815FC3CFD7
:1023C0008150EECF90E00196BE010E94492EE8CFE9
:1023D0000F931F93CF93DF93C3E1D2E0FE011182ED
:1023E000108212821382349682E0EF34F807B9F734
:1023F00010E000E080911102082E000C990B0817E4
:1024000019078CF180911601082E000C990B80178A
:1024100091074CF19E0140915203609151038091CC
:1024200050030E94DC0A0F5F1F4F24960F301105E6
:1024300009F70E9451108091150190911102980F97
:102440009093110220911601280F20931601121665
:1024500014F49E301CF0819580931501DF91CF918B
:102460001F910F910895198218821A821B82DBCF67
:102470008F929F92AF92BF92CF92DF92EF92FF9294
:102480000F931F93CF93DF93EC014C81042F10E047
:102490009801D8010E94A2309B01AC010E946D30CE
:1024A0004B015C01E0E2F0E0E01BF10BA5E5B0E0E0
:1024B000AC019B010E946D306B017C019F01DF012B
:1024C0000E94632E9B01AC010E9478309B01AC01FD
:1024D000280D391D4A1D5B1DC701B6010E948030C1
:1024E000F22E822F90E039E23F15D8F143E0249F8D
:1024F0009001112435952795122F109593E1C92E3F
:1025000092E0D92E00E085E5E82EEF188E2D01FD32
:102510008F2D9601412F609151030E94DC0A0F5FBD
:1025200054E0C50ED11C0F3089F70E9451109C81D8
:1025300081E0992319F0903219F48FEF80931701FD
:1025400080911701890F8C83DF91CF911F910F919B
:10255000FF90EF90DF90CF90BF90AF909F908F90C3
:10256000089525E530E0A901481B590BCA019A01DD
:10257000220F331F280F391F37FFBCCF2F5F3F4F6C
:10258000B9CFEF92FF920F931F93CF93DF938C01FC
:10259000C3E1D2E0F12CE12CF80194816091510368
:1025A00080915003F7E0EF16F104FCF49923F9F061
:1025B0009E01409152030E94DC0A2FEFE21AF20AB8
:1025C00024968FE0E816F10439F70E945110F801C3
:1025D000848190E00196817099278483DF91CF9167
:1025E0001F910F91FF90EF900895992309F39E0199
:1025F00040E0E1CF90914F0390FF0DC0E3E1F2E0A6
:102600008183608342831382349692E0EF34F9072A
:10261000B9F70C94511008950F931F93CF93DF9344
:1026200000D000D0CDB7DEB78C01809112028111AD
:102630000AC09E012F5F3F4F4FEF6FEF0E94DC0AF1
:102640008A8180931202F8016481613069F080917F
:10265000120240E0662361F040E0623011F44091E4
:10266000120280E060E004C06091120240E080E06D
:102670000E94FA12F801848190E0019663E070E014
:102680000E94492E84830F900F900F900F90DF913E
:10269000CF911F910F910895CF93DF9300D000D079
:1026A000CDB7DEB790914F0390FF0AC09E012F5F18
:1026B0003F4F0E94DC0A4B8169818A810E94FA1295
:1026C0000F900F900F900F90DF91CF910895CF93BF
:1026D000DF93EC01EC81F0E0E55BFC4F4491EFE42B
:1026E000F3E0628181810E944C138C818F5F8C8327
:1026F000DF91CF910895CF93DF93EC01EFE4F3E006
:10270000438162818C810E944C138C818F5F8C830A
:10271000DF91CF9108955F926F927F928F929F92F7
:10272000AF92BF92CF92DF92EF92FF920F931F93DF
:10273000CF93DF9300D000D0CDB7DEB7182F762E21
:10274000042F622E90914F0390FF29C0E92FE69548
:10275000AE2FB0E0AB58BE4F8C91809354039E7F58
:10276000923089F59E012F5F3F4F812F0E94DC0A36
:102770004B8169818A810E94FA12109350037092F2
:10278000510300935203662051F060914F03709102
:10279000500380915103909152030E943F0F0F907C
:1027A0000F900F900F90DF91CF911F910F91FF909D
:1027B000EF90DF90CF90BF90AF909F908F907F90E1
:1027C0006F905F900895823019F400915203D5CF35
:1027D000863019F410915003D0CF8930D9F3893164
:1027E00061F6E9518E2F8170582EE695F0E0EA5B94
:1027F000FC4FA590B490BB2483E1E82E82E0F82E34
:10280000D12CC12C9FE0892E912CC601B4010E94CD
:10281000352E812F511013C0860F9701402F672D41
:102820000E94DC0ACA0CDB1C84E0E80EF11C8FE479
:10283000E81682E0F80649F70E9451109ECF861BE9
:10284000ECCFEFE4F3E043812CE0421B08F440E0DE
:1028500021E0628181810C948B13EFE4F3E04381EA
:102860002CE0420F08F44FEF21E0628181810C944B
:102870008B13EFE4F3E062812FEF621B08F460E05A
:1028800021E0438181810C948B13EFE4F3E06281BA
:102890002FEF620F08F46FEF21E0438181810C94E8
:1028A0008B13EFE4F3E0818121E0438162818C505E
:1028B0000C948B13EFE4F3E0818121E0438162818A
:1028C000845F0C948B13EFE4F3E080818E7F808330
:1028D00060817181828193810E943F0F1092550324
:1028E0002FEF80E792E0215080409040E1F700C058
:1028F00000000C94511080E290E090935D01809371
:102900005C018091000281110EC00E94622D81E065
:10291000809300022FEF83ED90E3215080409040A0
:10292000E1F700C0000064E670E080E40E94682DDA
:1029300090935D0180935C01892B09F04EC064E6A1
:1029400070E080E00E94C42D90935D0180935C0153
:10295000892B09F042C064E670E080E00E94C42D3B
:1029600090935D0180935C01892BB9F564E670E07A
:102970008FE30E94C42D90935D0180935C01892BAD
:1029800061F50E94172E64E670E080E40E94682DD5
:1029900090935D0180935C01892BF9F464E670E00B
:1029A0008CE00E94C42D90935D0180935C01892B83
:1029B000A1F464E670E080E00E94C42D90935D0174
:1029C00080935C01892B49F464E670E08FE30E94F8
:1029D000C42D90935D0180935C010E94172E80911D
:1029E0005C010895CF93873050F580915C01909100
:1029F0005D01C0E0892B71F464E670E081E40E941F
:102A0000682D90935D0180935C01892B31F0C0E0CB
:102A10000E94172E8C2FCF91089584E690E00E949B
:102A2000F32D97FF05C090935D0180935C01EFCF7C
:102A3000C82FC09510925D0110925C01E9CFCFB113
:102A40008FB1869586958C73C3708C2BC82FC095DB
:102A5000E1CF1F920F920FB60F9211242F933F9345
:102A60004F935F936F937F938F939F93AF93BF9396
:102A7000EF93FF938091E10082FF09C08091E20013
:102A800082FF05C08091E1008B7F8093E1008091FF
:102A9000DA0080FF24C08091D80080FF20C08091A0
:102AA000DA008E7F8093DA008091D90080FF9BC08E
:102AB00080E189BD82E189BD09B400FEFDCF81E0DE
:102AC00080939D0380917803811109C00E945C0569
:102AD0000E9429068091E20084608093E200809148
:102AE000E10080FF17C08091E20080FF13C0809159
:102AF000E2008E7F8093E2008091E200806180930B
:102B0000E2008091D80080628093D80019BC85E0F3
:102B100080939D038091E10084FF29C08091E200B1
:102B200084FF25C080E189BD82E189BD89B5982FE8
:102B3000917080FFFBCF8091D8008F7D8093D8006B
:102B40008091E1008F7E8093E1008091E2008F7E92
:102B50008093E2008091E20081608093E2008091A6
:102B60009E03882309F445C084E080939D038091EF
:102B7000E10083FF27C08091E20083FF23C08091A2
:102B8000E100877F8093E10082E080939D031092B3
:102B90009E038091E1008E7F8093E1008091E200AE
:102BA0008E7F8093E2008091E20080618093E2005A
:102BB00042E060E080E00E94F7058091F0008860CC
:102BC0008093F000FF91EF91BF91AF919F918F9112
:102BD0007F916F915F914F913F912F910F900FBE19
:102BE0000F901F90189519BC10929D0310927803B6
:102BF00076CF8091E30087FD93E090939D03B7CF5C
:102C000078941F921FB61F9211248F939F93AF93B6
:102C1000BF9380911A0390911B03A0911C03B09164
:102C20001D030196A11DB11D80931A0390931B03F0
:102C3000A0931C03B0931D03BF91AF919F918F91FF
:102C40001F901FBE1F9018952FB7F89480911A03FC
:102C500090911B03A0911C03B0911D032FBF0895F9
:102C60000E9424169C0190915D0380915E03982B35
:102C700021F030935B0320935A0390915F0380917E
:102C80006003982B21F03093580320935703E09171
:102C90003603F0913703309731F00480F581E02D51
:102CA0008CE593E009940895109213031092120397
:102CB0000E94590985E0ECE5F3E0DF011D928A9559
:102CC000E9F7109259031092560310921E030E94C6
:102CD000301690E080E00E943B0A90E080E00C9487
:102CE000250A60931603709317038093180390933B
:102CF00019030C9454161092140380916801E2EEAB
:102D0000F1E0882359F08091340387FF07C08EE1FA
:102D1000DF011D928A95E9F70C94541686E0F8CFEE
:102D20001F93CF93DF93CDB7DEB7AA970FB6F89472
:102D3000DEBF0FBECDBF8FE993E02091F100FC0113
:102D40002193CF01F3E0873A9F07B9F78091A00361
:102D5000893009F444C018F5823009F4B9C08330D1
:102D600009F46EC0813031F580919F03813A11F5ED
:102D70008091E800877F8093E8008091A303909181
:102D8000A403892B41F560E28BE793E070E00E9499
:102D9000E9068091E8008B778093E8000BC08B30C8
:102DA00009F46BC008F483C0823409F4A2C08534EE
:102DB00009F4BCC08091E80083FF4EC180919F035D
:102DC0009091A0039A3008F047C1E92FF0E0EF534B
:102DD000FF4C0C945D2E60E090E080E0D7CF8091B6
:102DE0009F03813239F78091A3039091A403009748
:102DF00011F00297F9F68091E800877F8093E80050
:102E00008091E80082FF17C09091F3008091F2005A
:102E1000029729F48091F1008B7F813021F4809119
:102E2000F10080937A038091E8008B778093E8002B
:102E30000E94D805BFCF80919D038111E1CFBACF09
:102E400080919F03813A09F0B5CF8091A3039091BF
:102E5000A403892B09F0AECF8091E800877F80938F
:102E6000E8008091E80080FFFCCF809168018093AA
:102E7000F1008091E8008E77D9CF80919F03813255
:102E800009F098CF8091A3039091A403892B09F0B6
:102E900091CF8091E800877F8093E8000E94D80559
:102EA0008091A103809368010E947B1683CF80915B
:102EB0009F03813209F07ECF8091E800877F809365
:102EC000E8000E94D8058091A2038093790372CF15
:102ED00080919F03813A09F06DCF8091E800877F50
:102EE0008093E8008091E80080FFFCCF8091790317
:102EF000BECF80919F03803C09F05CCF8091A303FB
:102F00009091A403029739F58091A1039091A203B7
:102F1000892B09F58091E800877F8093E8006BE1B9
:102F200070E08DE499E00E948A0682CF80919F0331
:102F3000803C09F03FCF8091A3039091A4030797B1
:102F400051F48091E800877F8093E80062EB70E0A5
:102F50008BE998E0E8CF8091EB0080628093EB00F2
:102F600029CF803899F0823809F076C08091A30388
:102F70008F70873008F070C08093E9008091EB007B
:102F800085FB882780F91092E90006C080919B0399
:102F900090919C03911182609091E800977F9093AB
:102FA000E8008093F1001092F1008091E8008E77A4
:102FB00068C1882309F455C1823009F04DC0809161
:102FC000A103811159C18091A3038F702FEF280FA6
:102FD000263008F041C08093E9002091EB0020FFEB
:102FE0004BC1933031F48091EB0080628093EB0011
:102FF00043C19091EB0090619093EB0021E030E0B1
:1030000001C0220F8A95EAF72093EA001092EA00A5
:103010008091EB008860EACF81111EC01091A1035E
:103020001F778091E3008078812B8093E30080916B
:10303000E800877F8093E8000E94D8058091E8002F
:1030400080FFFCCF8091E30080688093E30082E002
:10305000111183E080939D038091E80083FF0AC0F3
:103060008091E800877F8093E8008091EB00806288
:103070008093EB00AA960FB6F894DEBF0FBECDBFCB
:10308000DF91CF911F9108958058823028F7809169
:10309000A1039091A2038C3D23E09207A1F583E068
:1030A0008A838AE289834FB7F894DE01139620E081
:1030B0003EE051E2E32FF0E050935700E49120FF0F
:1030C00003C0E295EF703F5FEF708E2F90E0EA3023
:1030D000C0F0C7968D939D932F5F243159F74FBF52
:1030E0008091E800877F8093E8006AE270E0CE017B
:1030F00001960E94E9068091E8008B778093E800B2
:10310000ABCFC096E7CF2091A3033091A403492F02
:1031100055274330510551F1A0F44130510509F4D0
:1031200059C06BE670E089E699E04230510509F03C
:1031300093CF2091E800277F2093E8000E948A0621
:10314000DACF4132510539F14232510591F14F3018
:10315000510509F081CFE2E4FAE0649170E080E487
:103160009AE06115710509F477CFE3CF9927813093
:10317000910571F0009731F0029709F06DCFE6EEFE
:10318000F9E002C0ECE3FAE0649170E0CF01E9CF2E
:10319000EAE0FAE0F9CF2330310508F05DCF220FE5
:1031A000331FF901E652FE4F8081918169E070E0A2
:1031B000C0CF2330310508F04FCFF901EE0FFF1FCC
:1031C000EC52FE4F808191812F523E4FF901608178
:1031D00070E0C7CF62E170E084ED99E0AACF80385B
:1031E00009F03ACF8091E800877F8093E8008091D2
:1031F0009E038093F100D9CE81112ECF1091A103AF
:10320000123008F029CF8091E800877F8093E80092
:1032100010939E030E94D805112311F084E005C08D
:103220008091E30087FDFACF81E080939D0342E027
:1032300061EC81E00E94F70542E061EC82E00E94CF
:10324000F70542E261EC83E00E94F70542E361EC9E
:1032500084E00E94F70542E360EC85E00E94F705F8
:10326000FBCE8091A103813009F0F6CE81E093304E
:1032700009F080E080939C031092E9008091E800BF
:10328000877F8093E8000E94D805E6CE1F920F92B8
:103290000FB60F9211242F933F934F935F936F9329
:1032A0007F938F939F93AF93BF93CF93DF93EF93CE
:1032B000FF93D091E900DF708091EC00C82FC170BE
:1032C00080FDC0E81092E9008091F000877F809334
:1032D000F00078940E9490161092E9008091F0001E
:1032E00088608093F000CD2BCF70C093E900FF91F0
:1032F000EF91DF91CF91BF91AF919F918F917F918E
:103300006F915F914F913F912F910F900FBE0F9052
:103310001F901895882379F19CEF980F913A38F413
:10332000682F80EE91E00E94A0080C94590990E269
:10333000980F983050F4877091E001C0990F8A95EA
:10334000EAF7892F0E945209F0CF9BE5980F93303E
:1033500020F490E080E00C943B0A98E5980F9731B8
:1033600020F490E080E00C94250A803F20F00E9439
:1033700062070C9430160895CF93DF93EC010E94FE
:103380008A19CE01805E910964E17AE0089710F015
:103390006FEF79E0CE01DF91CF910C94C20D8FE3F6
:1033A0009CE90197F1F700C000008091060283308C
:1033B00059F0853011F0813021F48DE491E00E94C4
:1033C000BC191092060208958AE491E0F8CF8FE3C9
:1033D0009CE90197F1F700C000008091040283305E
:1033E00059F0853011F0813021F48DE491E00E9494
:1033F000BC191092040208958AE491E0F8CF8FE39B
:103400009CE90197F1F700C000008091020283302F
:1034100059F0853011F0813021F485E390E00E946D
:10342000BC1910920202089582E392E0F8CFCF9384
:10343000C82F882309F46FC08CEF8C0F813AC0F538
:1034400080916801882311F18091340387FF1EC0A9
:10345000EC2FE695E695E695F0E0E052FE4F82818E
:1034600090E04C2F477021E030E002C0220F331F64
:103470004A95E2F782239323892B91F06C2F80EEFB
:1034800091E00E94A0080E9459090AC0E2EEF1E012
:1034900088EE91E02191C21789F38E179F07D1F72B
:1034A0006C2F80EE91E00E94CA08CF910C945909CC
:1034B00080E28C0F883068F4C77021E030E001C0F2
:1034C000220FCA95EAF780911403822B809314038C
:1034D000ECCFEBE5EC0FE33040F4F0E0E056FE4FCC
:1034E000808190E0CF910C943B0AE8E5EC0FE73146
:1034F00050F4F0E0EE0FFF1FED55FE4F80819181FB
:10350000CF910C94250AC03F30F08C2F0E942908DF
:10351000CF910C943016CF910895CF93C82F0E946D
:10352000171AC93349F42FEF87EE93E021508040FA
:103530009040E1F700C000008C2FCF910C948A19C5
:103540000F931F93CF93DF93C62FD42F022FFC012D
:1035500082818823A1F06093A9030E94241690938E
:10356000A8038093A703C77081E001C0880FCA95A4
:10357000EAF7DF91CF911F910F910C941B0A809174
:10358000A903681335C08091A7039091A8030E94F6
:103590009108883C910560F510E21D0FCD17B9F038
:1035A00080E28C0F883040F4C77081E001C0880F42
:1035B000CA95EAF70E94140A183048F481E09D2F5A
:1035C000977001C0880F9A95EAF70E941B0A802F16
:1035D0000E948D1A183098F4D77081E001C0880FCE
:1035E000DA95EAF7DF91CF911F910F910C94140AAD
:1035F000C77081E001C0880FCA95EAF7F3CFDF9169
:10360000CF911F910F910895CF92DF92EF92FF9289
:103610000F931F93CF93DF93EC018AE0C82EFE0136
:103620008491882309F481C0813009F03EC031962D
:103630008491813039F42296FE0184910E948D1A82
:103640002196EDCF823031F42296FE0184910E94C2
:10365000171AF6CF833031F42296FE0184910E942E
:103660008A19EECF843009F05EC02296FE012491C3
:1036700090E080E0FE0131962053330B2A30310573
:1036800048F00197E8F2EFE9FFE03197F1F700C069
:103690000000F7CFC89EA001C99E500D1124C9019A
:1036A000840F951F2491EF01E5CFE82FF0E0EA5356
:1036B000FE4FD490082F06950695069510E0F80168
:1036C000EA54FE4FE4908770F12C082E02C0F59466
:1036D000E7940A94E2F721E0E222FF240A551E4F04
:1036E000F801049110E002C0159507958A95E2F75C
:1036F00001701127E114F10419F081EE0E94171AEC
:103700000115110519F086EE0E94171A8D2D0E94E1
:103710008D1A012B19F086EE0E948A19EF2809F400
:103720008FCF81EE9CCFEF018BCFDF91CF911F9197
:103730000F91FF90EF90DF90CF900895CF93DF939C
:10374000EC01805E91096BE17AE0089710F06AE085
:103750007AE0CE010E94C20D8C2FDF91CF910C94A4
:10376000171ACF93DF93EC010E949E1BCE01DF91CD
:10377000CF910C94BC19CF93DF93EC0188818330F7
:1037800061F48DE491E00E94B11B8DE491E00E9410
:10379000B11B8DE491E00E94B11B8881843030F030
:1037A0008DE491E0DF91CF910C94B11BDF91CF912B
:1037B00008950C94BB1BCF93DF93EC018881833079
:1037C00061F485E390E00E94B11B85E390E00E94E4
:1037D000B11B85E390E00E94B11B8881843030F0FA
:1037E00085E390E0DF91CF910C94B11BDF91CF91F5
:1037F00008950E94CE0D80930602833039F0853003
:1038000049F0813061F48DE491E002C08AE491E0F6
:103810000C949E1B8DE491E00E94B11BF4CF08959F
:103820000E94CE0D80930402833039F0853049F038
:10383000813061F48DE491E002C08AE491E00C945F
:103840009E1B8DE491E00E94B11BF4CF08950E946D
:10385000CE0D80930202833039F0853049F08130FB
:1038600061F485E390E002C082E392E00C949E1B39
:1038700085E390E00E94B11BF4CF089560914F035F
:10388000669570E04BE050E08AE091E00E94F92FED
:10389000892B19F481E0809355030E94241690939C
:1038A0004A0380934903089590914F0390FF36C0D7
:1038B0009170811129C0926090934F03662351F05B
:1038C00060914F0370915003809151039091520386
:1038D0000E943F0F60914F03669570E04BE050E00F
:1038E0008AE091E00E94F92F892BA9F010925503EC
:1038F00081E080934C0320E040915203609151039A
:10390000809150030C948B138B3210F09465D4CFBC
:10391000880F982BD1CF0E943E1CEACF089560E01B
:103920000C94541CEFE4F3E08081816080838695E1
:103930000C948F1C61E00C94541CCF92DF92EF9298
:10394000FF92CF93DF936B017C010E94FF08D82F79
:103950000E94F30D0E94F00D0E94ED0D0E94EA0DF1
:10396000C0919E02EFEFED0FE73008F06BC0F0E082
:10397000E553FF4C0C945D2E0E94FC0DC1112CC030
:103980000E94921C81E00E948F1C20E04FEF6BEEA2
:1039900087E720C00E94F90DF1CF0E94F60DC111FA
:1039A0001BC00E94921C81E00E948F1C20E04FEF00
:1039B0006FEF86E50FC00E94FC0D0E94F90DC1114A
:1039C0000BC00E94921C81E00E948F1C20E04FEFF0
:1039D0006FEF85ED0E948B13C701B601DF91CF9188
:1039E000FF90EF90DF90CF9008950E94FC0D0E9411
:1039F000F60DC111F1CF88E090E00E940E30609387
:103A00004F0370935003809351039093520360FFD0
:103A10001DC0862F816080934F0386950E949A1C5B
:103A200080914F0386950E949A1C21E04091520399
:103A30006091510380915003CDCF0E94FC0D0E94F4
:103A4000F90DD5CFDD2309F4BACFD3CF0E9463148B
:103A5000C3CFCF92DF92EF92FF92CF93DF9300D04C
:103A600000D0CDB7DEB70E949D1C6B017C01809118
:103A70007503882321F080917603811115C0C092CF
:103A80007103D0927203E0927303F09274030E9468
:103A900054160F900F900F900F90DF91CF91FF90E1
:103AA000EF90DF90CF900895198282E08A83C7015A
:103AB000B6010E94FF088B838EEF8C8364E0CE01F9
:103AC00001960E944B07DBCF0F931F9341E050E01C
:103AD00060E070E004C0440F551F661F771F8A9591
:103AE000D2F78091710390917203A0917303B0910A
:103AF00074038A019B01082719272A273B27C9013C
:103B0000B8011F910F910C94291D0F931F9341E051
:103B100050E060E070E004C0440F551F661F771F3F
:103B20008A95D2F7CB01BA016095709580959095F2
:103B3000009171031091720320917303309174030B
:103B400060237123822393231F910F910C94291DCD
:103B5000909111038095892380931103282F27705A
:103B600071F4282F082E000C330B9217130639F02E
:103B70008595859585950E94851D10921103089560
:103B80000F931F9341E050E060E070E004C0440FE9
:103B9000551F661F771F8A95D2F780917103909108
:103BA0007203A0917303B09174038A019B01082BE7
:103BB000192B2A2B3B2BC901B8011F910F910C9493
:103BC000291D80914F038695815009F48AE261E0B6
:103BD0000C94541C80914F0386958F5F8B3208F0B4
:103BE00081E061E00C94541C90914F0390FF07C05A
:103BF0009695981720F0961710F40C94EA1D0C94E3
:103C00009A1C4F925F926F927F928F929F92AF9287
:103C1000BF92CF92DF92EF92FF920F931F93CF93B9
:103C2000DF9300D000D00F92CDB7DEB77C01DC016E
:103C300013968D919C911497892B41F01C911196AC
:103C4000DC90812F8D218F3F09F065C60F900F907A
:103C50000F900F900F90DF91CF911F910F91FF90D8
:103C6000EF90DF90CF90BF90AF909F908F907F901C
:103C70006F905F904F9008950E94520D082F682F0B
:103C800089819A810E94C709E12FF0E0B6E0DB9EAE
:103C9000E00DF11D112424E5029FE00DF11D11241A
:103CA000EE0FFF1FE25CFA4F05911491D7011296B7
:103CB0008C918111E4C080917503811121C10A3278
:103CC000BDE51B0709F039C1F70182818823C9F1DD
:103CD0008091210391E0980F9770887F953008F4C8
:103CE000892B80932103809121038770FFEF8F9FA1
:103CF000C00111249595879595958795992790935F
:103D000089008093880090938B0080938A00909321
:103D10008D0080938C00409121035091220360918B
:103D20002303709124038FE090E00E942C30609177
:103D300071037091720380917303909174030E94D8
:103D40009D1CC80197558F3F910511F008F081C166
:103D500020915A0130915B012817390724F4909380
:103D60005B0180935A01F701228136E1389F5001AF
:103D7000399FB00C1124C501885E9E4F6C01DC0197
:103D800050962C935097928116968C911697992362
:103D900009F451C11A961C930E9319978F5F1696CA
:103DA0008C930E942416F6019687858780911503CF
:103DB00087838091130390911403892B808701904E
:103DC000F081E02D309741F0D60154966D917C91B1
:103DD000C501825E9E4F09951093A00200939F0239
:103DE000D70112969C91992309F4A7C51092A903B3
:103DF0000230BCE51B0708F439C20631ECE51E07AA
:103E000038F098012B5F3C452730310508F02EC271
:103E10000E94310F90933503809334030F30FCE5FB
:103E20001F0709F404C208F085C108303CE51307F8
:103E300009F4E7C108F058C104309CE5190709F4FA
:103E4000D4C108F040C10230BCE51B0709F4C9C168
:103E500080913403826003301C4509F457C160919E
:103E600034031091350384E090E00E941A30612FF2
:103E700081E290E00E941A300E947B167DC0809102
:103E80005A0190915B01019609F415CF68E1C62EA5
:103E900061E0D62EB12CA12C9924939480915A01E3
:103EA00090915B018A159B050CF405CFF601868184
:103EB0008823F9F0818592858017910739F48091E4
:103EC0009F029091A0028017910799F0D6011F964A
:103ED0009C921F971C961C930E931B9751968C9146
:103EE000811103C0C6010E945D0AC60106960E94A8
:103EF0007E0ABFEFAB1ABB0AE6E1CE0ED11CCECFD5
:103F000080917603882309F4DACE1982D7011296BC
:103F10008C91811110C082E18A83D7018C918B83AF
:103F200011968C918C838EEF8D8365E0CE01019686
:103F30000E944B07C4CE81E1EFCFF801EB52FD4563
:103F4000EF30F10508F0FDCEEE52FF4CD70112968E
:103F50008C910C945D2E882309F4F3CE86E295E0D3
:103F60000E94041BEECE882339F084E195E00E9484
:103F7000041B81E00E94641D80911103877009F485
:103F800065CED70112968C91882309F45FCE82E02A
:103F90000E94A81D5BCE882379F388E095E0E7CFE7
:103FA000882309F4CECE8CEE94E0DACF882309F48E
:103FB000C8CE80ED94E0D4CF8823F1F286EB94E074
:103FC0000E94041B82E0D6CF882309F4BACE84E98C
:103FD00094E0C6CF882381F280E894E0F1CF882373
:103FE00009F4AFCE8BE594E0BBCF882329F287E5B7
:103FF00094E0BDCF882309F4BFCF83E594E0B7CF29
:10400000882309F4B9CF8FE494E0B1CF882309F471
:10401000B3CF8BE494E0D4CF882309F4ADCF81E013
:1040200047C1882309F4A8CF80919E0291E0892797
:1040300080939E02A1CF882309F4D2CEF601818914
:10404000882309F4CDCEC501825E9E4F0E947E0A70
:10405000C7CE043FFCE51F0739F188F4093D3CE574
:104060001307F1F00A3D8CE5180751F1083D9CE576
:10407000190709F0B5CE26E241EE61EE0DC0063F0C
:10408000ACE51A07C9F0A0F027E245EE66EE073F5F
:10409000ECE51E0709F0A4CEC7010E94A01A6CCF60
:1040A00027E245EE65EEF8CF26E241EE60EEF4CF72
:1040B00027E245EE64EEF0CF26E241EE62EEECCF71
:1040C00028E241E0EFCF8091340380610630FCE5C7
:1040D0001F07E1F080913403886007301C45B0F081
:1040E00080913403806212C00B303CE5130709F461
:1040F00096C078F409309CE5190709F486C08091D0
:1041000034038C600A301C4509F0A9CE8093340337
:10411000A6CE809134038B7F0D30BCE51B07B1F335
:10412000809134038D7F0E301C4580F380913403E1
:10413000877FECCF0B3FFCE51F0709F45AC048F519
:1041400002313CE5130709F47AC060F400319CE5C4
:10415000190709F470C0809134038F7B01311C452D
:10416000A9F27DCE0431BCE51B0709F476C008F442
:104170006CC005311C4509F072CE8091340382FB7E
:10418000992790F921E0922790FB82F990FB83F91F
:10419000BDCF0E3F2CE5120709F445C070F40C3F6B
:1041A0008CE5180751F1809135038E7F0D3F1C453A
:1041B00009F055CE8093350352CE0115ADE51A07AF
:1041C00009F447C040F101301D4509F048CE809107
:1041D0003503982F909591708E7F892B90FB81F9F4
:1041E000E9CF80913403816091CF80913403846062
:1041F0008DCF809135038160DDCF80913503826062
:10420000D9CF80913403806481CF0E947B16809146
:10421000340380687BCF809135038360CBCF80915E
:1042200034038E7F73CF809135038D7FC3CF809110
:1042300034038F7E6BCF809134038F7D67CF0E94D4
:104240007B16809134038F7761CF80913403837F15
:104250005DCF809135038C7FADCF0E947B1690910E
:104260003403892F97FB87F9805850CF809114032E
:104270000631FCE51F0709F06EC38A7A91E009F464
:1042800090E09093A10269E2811165E380EE91E0F4
:104290000E94CA080E9459096FCE80914F0380FF87
:1042A00003C00E94631468CE816080934F0386959B
:1042B0000E949A1C61CE41EE5DE16AEE7DE10E94B2
:1042C000C80A5ACE4AEE5DE161EE7DE1F8CF41E5E4
:1042D00054E16AE574E1F3CF4AE554E161E574E144
:1042E000EECF49E354E165E474E1E9CF45E454E1FC
:1042F00069E374E1E4CF41E254E16DE274E1DFCFC0
:104300004DE254E161E274E1DACF41E55FE062E65B
:104310007FE0D5CF42E65FE061E57FE0D0CF65E0AA
:1043200082E00E94F41D28CE68E086E0FACF6EE0BD
:1043300089E0F7CF64E18FE0F4CF67E185E1F1CF69
:1043400088E1B6CF62E289E1ECCF83E2B1CF0F3DE5
:104350002CE5120709F446C009303DE5130709F4BE
:1043600044C001151C4509F047C00E947B169FEF11
:10437000A4E3BCE09150A040B040E1F700C00000D1
:10438000F89481E08093E00080E28093D80010925E
:10439000C900EFE1FEE43197F1F700C000001DBA5B
:1043A000109268001CBC10BE1FBA10927A001092C6
:1043B0006E0010926F0010927100109272001092B5
:1043C000C9001092BC0014B817B81AB81DB810BABA
:1043D0001092BC0015B818B81BB81EB811BA0C94CE
:1043E000003FCACD0E94820FC7CD8091770391E034
:1043F000892780937703C0CDF7010081118199232C
:1044000009F440C0C8010E94520DD82E682FC8017F
:104410000E94C709B8018D2D0E94B60B8C01882E11
:10442000D7011596AC901597A2944FE0A42212964E
:10443000DC90D1101092130380911103877099F0D2
:10444000DD2089F0812F807F803421F080E2800F91
:10445000883048F082E00E94A81D80911103877087
:10446000CC24C3948111C12CB12EB2943FE0B3226D
:10447000BBE0BB1508F43DC0EB2DF0E0EF51FF4C65
:104480000C945D2EC8010E949E09D82EC3CFE12F47
:10449000EF70AE2E107F19F0A29420EFA222DD2043
:1044A000C9F0AA2069F080E2800F883010F08110F6
:1044B0000BC080911403A82AA09214030E945909EA
:1044C000802F0E94171A15C080911303A82AA0926A
:1044D0001303F4CF802F0E948A19AA2051F0005EA6
:1044E000083010F0811043C08A2D0E9452090E94AA
:1044F0005909AB2DA850BB0B149710F40E94510A18
:10450000CC20A9F08091110380FD11C0F701128227
:104510008595859585950E94C01DC7010E94011E45
:10452000809111038595859585950E94851D85E06F
:10453000F701DE01119601900D928A95E1F78981CC
:104540009A810E949E099A81E981F0E026E0929F7B
:10455000E00DF11D112434E5839FE00DF11D1124C0
:10456000EE0FFF1FE25CFA4F859194916FCBA09400
:1045700080911303A822A0921303B9CFF12FFF70EB
:104580009F2E107F103219F0929490EF992288207C
:1045900041F021E0821631F1DD2079F1AA2041F1CC
:1045A0008FCFDD2091F090911503892D892BA110DB
:1045B00003C00E941B0A9DCF31E0A312FACF9817C7
:1045C00009F497CF8093150394CFA11006C00E94E1
:1045D0004C09892D0E94140A8CCF81E0A81609F499
:1045E00088CFF5CFDD2031F091E09A1508F481CF26
:1045F000892DDFCFA1107DCFECCFAA2051F3A9E305
:104600008A1209C0BFEFE7EEF3E0B150E040F0409E
:10461000E1F700C00000802F0E948A196ACF812F25
:1046200086958695837061F0813009F062CFC8016C
:104630009370D11002C090E080E00E94250A59CF0B
:10464000C8019370D11002C090E080E00E943B0A44
:1046500050CF802FDD2029F00E9429080E943016BB
:1046600048CF0E946207FACF812F837009F066C09D
:10467000D1103FCF802F829586958770880F880F45
:10468000602F6F70462E512C712C612C082E04C0A7
:10469000440C551C661C771C0A94D2F740E050E08D
:1046A000BA0104FF0FC04FE050E060E070E004C0CA
:1046B000440F551F661F771F8A95D2F74095509576
:1046C00060957095812F869586958370823019F15B
:1046D000D8F400911603109117032091180330911C
:1046E0001903813069F04429552966297729CB01BE
:1046F000BA0160237123822393230E947116F9CE9D
:10470000402A512A622A732ACB01BA0164297529E9
:1047100086299729F2CF44295529662977290091BE
:104720001603109117032091180330911903CB0140
:10473000BA016027712782279327DFCF8695DD2076
:1047400011F0812F8170882309F4D3CE802F8295B8
:1047500086958770880F880F602F6F70462E512CBA
:10476000712C612C082E04C0440C551C661C771C4F
:104770000A94D2F740E050E0BA0104FF0FC04FE0C6
:1047800050E060E070E004C0440F551F661F771FC3
:104790008A95D2F74095509560957095812F8695B2
:1047A00086958370823019F1D8F4009171031091CD
:1047B00072032091730330917403813069F04429AE
:1047C000552966297729CB01BA01602371238223F9
:1047D00093230E94291D8DCE402A512A622A732AD2
:1047E000CB01BA016429752986299729F2CF44297A
:1047F0005529662977290091710310917203209140
:10480000730330917403CB01BA01602771278227AB
:104810009327DFCF1F70DD2029F0812F0E94C01D5C
:10482000802FC7CE802F0E94140A812F0E94851DE1
:1048300060CE802F22EF8216D9F1281570F030EF6C
:10484000831601F191EF891659F1DD2009F453C067
:10485000A11036CE812F8F7128C0A3EF8A1669F17F
:10486000B4EF8B12F2CFDD20D9F11F71812F0E949E
:10487000C01DF8E01F9FC0011124836080931103C5
:10488000812F13C0DD2039F0A11033CE812F8F711D
:104890000E94641D2ECEE1E0EA1508F42ACEF6CF80
:1048A000812F8F71DD2009F4C1CF0E94C01D21CE60
:1048B000812F8F71DD20C9F3B9CF60E070E0CB01AB
:1048C000DD2009F486CF1F7161E070E080E090E0A8
:1048D00004C0660F771F881F991F1A95D2F779CFEA
:1048E00081E00E94A81D21E02A1508F002CE82E096
:1048F0000E94A81DFECDAA2059F0893309F08BCE65
:104900003FEF87EE93E0315080409040E1F781CE59
:10491000812F8F718BCF85E0F701DE011196019019
:104920000D928A95E1F7F701228189819A812111FF
:10493000A3C90E949E09082FA7C906311C4509F08A
:104940005BCD8091A10269E2811165E380EE91E087
:104950000E94A0089FCC8272F801E35CFC45E43120
:10496000F10508F0F4CCE351FF4C0C945D2E1F933D
:10497000CF93DF938091A702807FA9F48091A40256
:10498000882389F08091D902D091A8026091A20277
:104990007091A302A091A502B091A602C62FC723D1
:1049A00016E0D81304C0DF91CF911F91089590E0D5
:1049B000109711F0CF3F19F401968770F2CF189F2E
:1049C0009001199F300D1124F901E755FD4F4181E8
:1049D0004713F2CF40814613EFCF42814111ECCF14
:1049E000438154814A1B5B0B483C510528F7809159
:1049F000A7028F7080618093A702F901E255FD4FF5
:104A000080818F708061808382EA92E00E94011E23
:104A1000DF91CF911F910C94F509AF92BF92CF9285
:104A2000DF92EF92FF920F931F93CF93DF93CDB757
:104A3000DEB761970FB6F894DEBF0FBECDBF8C0115
:104A400085E0F801DE011D9601900D928A95E1F74F
:104A5000F80180819181E28022EAA22E22E0B22E2A
:104A60006091A5027091A6026115710509F43EC11D
:104A70003091A2024091A302232F24232F3F09F457
:104A800035C1C380D480F090A402F601E61BF70B79
:104A9000FF2009F4FBC02091A702522F507FE83C71
:104AA000F10508F0BBC0511178C0FE2C491321C09C
:104AB00038131FC0E1101DC02F7020612093A70282
:104AC000C5010E94011E8091A702F80185838F2DE8
:104AD00061960FB6F894DEBF0FBECDBFDF91CF91C8
:104AE0001F910F91FF90EF90DF90CF90BF90AF900C
:104AF0000895CD2829F0282F29232F3F09F014C12C
:104B000020E0F22FF170DF2E20FF3DC02091D9026E
:104B10004091A80256E0241315C08D879E878D858D
:104B20009E850E94940D292F22952F702230F8F037
:104B3000243020F59F70F9F0F8019581907FD9F429
:104B4000D12C1FC030E0529FF001539FF00D112473
:104B5000E755FD4F6181961306C06081861303C03F
:104B60006281E61210C02F5F3F4F2770D4CF9F7035
:104B700011F0882329F3805E883010F3C8010E9469
:104B8000011EFD2CA4CFEE2009F4A1CF8091A70235
:104B900081608093A702F12C9ACF491312C0381379
:104BA00010C0E1100EC0F8012583C8010E94011E4B
:104BB00086E0F801A2EAB2E001900D928A95E1F751
:104BC00086CF8D879E878D859E850E949E0D88232A
:104BD00009F1EE20F9F08091A702803270F0209167
:104BE000A2023091A30238872F831986DB86CA86FA
:104BF0008C87CE0107960E94011E86E0F801A2EA8A
:104C0000B2E001900D928A95E1F70E94B724FF244B
:104C1000F3945DCFC8010E94011EF9CF51110AC063
:104C200082EA92E00E94011E86E0F50111928A95C7
:104C3000E9F7B1CF49130FC038130DC0E1100BC015
:104C4000F8012583C8010E94011E86E0F50111923A
:104C50008A95E9F73CCF8D879E878D859E850E943A
:104C60009E0D8823B9F2EE20A9F28091A70280322E
:104C700020F22091A2023091A3023A8329831B8261
:104C8000DD82CC828E83CE010196B5CFE83CF10562
:104C9000E0F6FE2CEE2009F4BDCF491316C0381300
:104CA00014C08091A70280FD83CF982F907F09F4D4
:104CB0007FCFF8018583903F09F477CF982F907FBD
:104CC000905F8F70892B858370CF8D879E878D85B0
:104CD0009E850E949E0D811190CF8091A7028160D8
:104CE0008093A702C8010E94011EF1CEEE2009F4B4
:104CF00091CF8D879E878D859E850E949E0DF82E73
:104D0000882309F487CF86E0F801A2EAB2E0019097
:104D10000D928A95E1F78091A2029091A3020E94E0
:104D2000940D0E94B724D3CE21E02E25EACE1F9306
:104D3000CF93DF93CDB7DEB767970FB6F894DEBF9A
:104D40000FBECDBF4B8B5C8B6D8B7E8B8F8B1A8A8E
:104D5000198A85E0FE017396DE011D9601900D9281
:104D60008A95E1F786E0FE013D96DE0117960190F7
:104D70000D928A95E1F7CE0107960E940D258823B2
:104D800089F016E08091D9029091A802891349C058
:104D900067960FB6F894DEBF0FBECDBFDF91CF91FF
:104DA0001F91089586E0FE013796DE01119601906D
:104DB0000D928A95E1F78A859B85892B11F38F8166
:104DC000988589238F3FE9F22091A80230E0C9013C
:104DD0000196877099274091D9024817190671F4F6
:104DE0000E947B161092A8021092D90286E0E2EA95
:104DF000F2E0DF011D928A95E9F7C3CF96E0929F1A
:104E0000D001939FB00D1124A755BD4FFE013196DF
:104E100001900D929A95E1F78093A8020E94F509FE
:104E2000B0CF819FC001112487559D4F0E940D2551
:104E3000882309F4ADCF8091D90290E00196877064
:104E400099278093D9029ECF8F929F92BF92CF9243
:104E5000DF92EF92FF920F931F93CF93DF93809196
:104E60005C0190915D01892B91F0809107028F5F29
:104E70008093070281110BC00E947B1490E09093F5
:104E80005D0180935C01892B11F40E94B70EE5E26D
:104E90008E2EE3E09E2E740110E000E077E0C72E36
:104EA000C00E802F0E94FD0F8C2D0E94FD0F802FC1
:104EB0000E94F214E7019881D12C891719F0888398
:104EC000DD24D3948C2D0E94F214F7019781891769
:104ED00009F47FC0878381E08D29182B0E94FF0D84
:104EE0000F5FFFEFEF1AFF0A0730C1F60E9424168A
:104EF0006091090270910A0290930A02809309025C
:104F00002091080230E0261B370B820F931F6BEFB6
:104F100070E00E94352EE82E392F082F809308026A
:104F2000F0900C02FF2009F4E5C010920C02E09111
:104F30001F03F0912003AF01425F5F4F20E06BEF52
:104F4000B62E6BEF70E0A191AB3FA1F0CA2ED12C31
:104F50008E2D932F0A1708F43EC08C199D09092E37
:104F6000000CAA0BBB0B4E97A105B105D0F1DF01D8
:104F70001197BC924E175F0731F720930C02111165
:104F800002C02111B9C010920B02A0911F03B09171
:104F9000200390910C02EBE3F3E049E453E080E05E
:104FA0003191E40129914E01321751F03C913B3F80
:104FB000D1F40C93BF0161507109EB01288391E09A
:104FC00011964E175F0761F790930C0280930B02C6
:104FD00097C080E081CFDB01AC19BD098A0F9B1F10
:104FE000BECF2F2DC7CF81E0EBCFF89EF001F99E09
:104FF000F00D1124E85EFE4FC288D388C114D1049D
:1050000019F428ECC22ED12CF89EE001F99ED00DA7
:105010001124C85EDE4F8E818823B9F08D859E8570
:105020000E949108C816D90680F40F9D60011124D2
:105030008989811105C0C601885E9E4F0E945D0A64
:10504000C601825E9E4F0E947E0A0F5F802F90E015
:1050500020915A0130915B012817390734F657C067
:1050600000E086E1F82EF2CF009789F40E94F00D5F
:105070000E94ED0D0E94EA0DC0910D02CC23B9F102
:105080000E94ED0D81E0C827C0930D0203C091700E
:10509000892B91F380910E0290910F0281309847F5
:1050A00080F0109277036091710370917203809188
:1050B0007303909174030E949D1C10920F02109232
:1050C0000E0280910E0290910F02019690930F02B2
:1050D00080930E02812FDF91CF911F910F91FF904E
:1050E000EF90DF90CF90BF909F908F9008950E9497
:1050F000F90DC8CF111147CF80910B02811143CF19
:1051000080915A0190915B01019609F0A9CF80919D
:105110000E0290910F02209177032111A5CF892BC8
:10512000C9F210920F0210920E02609171037091F9
:10513000720380917303909174030E949D1CCACFE7
:10514000CDB7DEB7C955D1090FB6F894DEBF0FBE93
:10515000CDBF84B7877F84BF0FB6F894A8958091A0
:105160006000886180936000109260000FBE80E84C
:1051700090E00FB6F89480936100909361000FBEA9
:1051800085B7806885BF85B7806885BF0E945C054C
:105190000E9429068091E20084608093E200789466
:1051A00080919D038823A1F01091E9001F709091D8
:1051B000EC00892F817090FD80E8182B1092E90097
:1051C0008091E80083FD0E9490161F701093E90003
:1051D00082E084BD93E095BD9AEF97BD80936E0009
:1051E0000E947B1490E090935D0180935C010E948B
:1051F000FF0D0E940E0EE5E2F3E02BE3622E23E0AA
:10520000722ED30111921D9223E0E333F207D1F7FE
:105210008EE090E00E94CE2E80931F039093200397
:10522000FC010E962BEF21938E179F07E1F790E07C
:1052300080E00E9414308F3E9E4F11F00E94820F3A
:1052400089EA8093800089E08093810024982C98DB
:105250003F988AB18F7C8AB96E98479A8BB18063E8
:105260008BB9769A8FE090E00E940E306093210314
:1052700070932203809323039093240367708FEF2E
:10528000689FB00111247595679575956795772787
:10529000709389006093880070938B0060938A00FC
:1052A00070938D0060938C000E94B70E90E080E0B8
:1052B0000E9414308F3E9E4F11F00E94820F82E0B8
:1052C00090E00E940630809362030E94310F909319
:1052D00035038093340383E090E00E940630682F0A
:1052E00070E090E080E00E9471166091710370910F
:1052F000720380917303909174030E949D1C8091AE
:105300003303811135C090E080E00E9414308F3E5D
:105310009E4F21F00E94820F0E94730F88E090E060
:105320000E940E3060934F0370935003809351039B
:10533000909352036E7F71F40E94730F88E090E0A7
:105340000E940E3060934F0370935003809351037B
:10535000909352030E94CD0A1092550380914F03FF
:1053600080FF03C086950E948F1C81E080933303E9
:10537000609134036068609334031091350384E0D6
:1053800090E00E941A30612F81E290E00E941A3072
:105390006091710370917203809173039091740313
:1053A0000E949D1C8EE591E0909337038093360315
:1053B00018E1C12ED12C09E4A02E03E0B02E81E427
:1053C000882E912C8C0E9D1E22E0820E911C8091C5
:1053D0009D038530D9F4A0E4FA2EBEE0EB2EE60C56
:1053E0005524539400E112E180919D03853009F426
:1053F000A2C10E947B160E94510A10923A0380912A
:10540000390381110E94921C0E943E1C0E94242795
:10541000E3E6F3E0ABE3B3E010E000E0302F8D9182
:105420009191981709F4EEC1292F282790E0FF24C5
:10543000F394422F4F2109F4E0C161969FAF619729
:1054400062963FAF62978F2191E009F490E06396F6
:105450009FAF63970E9424168160782F65969FAF57
:105460008EAF659761964FAD619762965FAD62971B
:1054700063966FAD639765968FAD65970E9497268B
:10548000F801ED59FC4F8081F826F0828091550398
:10549000882309F441C080915403E0914F03E695BD
:1054A000E81BE0934B03823009F0D3C1F0E0E956EA
:1054B000F74FE4910E2F10E0F7E6EF2EF3E1FF2E09
:1054C00080914C03882389F010924C030E9424168B
:1054D000980120953095820F931F90934A038093F3
:1054E000490310924E0310924D038091490390910D
:1054F0004A030E9491088017910770F0E0914903D8
:10550000F0914A030E0F1F1F10934A0300934903A3
:1055100089E493E0F701099585E0ECE5F3E0DE012D
:10552000119601900D928A95E1F7F0905D03E0905D
:105530005E0310915F030091600310925D0310926F
:105540005E0310925F03109260038F2D8E2909F481
:1055500048C080915A0390915B030E9491089C017E
:1055600090915903992309F482C22A313105C8F177
:105570009F3F19F09F5F90935903FF2059F00E94BD
:1055800005089FEF1F140CF491E0899F802D1124D2
:1055900080935D03EE2059F00E9405089FEF1E14D2
:1055A0000CF491E0899F802D112480935E0330914B
:1055B0005D033323B1F020915E03222391F045EB8C
:1055C0003403C0011124992309F4AFC190935D0302
:1055D00045EB240390011124332309F4AAC130932D
:1055E0005E03812F802B09F448C08091570390916E
:1055F00058030E9491089C0190915603992309F445
:1056000031C22A313105C8F19F3F19F09F5F909355
:105610005603112359F00E94E5079FEF11160CF471
:1056200091E0899F802D112480935F03002359F01E
:105630000E94E5079FEF10160CF491E0899F802DE2
:1056400011248093600330915F033323B1F02091E4
:105650006003222391F045EB3403C0011124992308
:1056600009F46BC190935F0345EB2403900111246F
:10567000332309F466C13093600380915D039091F8
:105680005E03892B90915F03892B90916003892B96
:1056900011F00E94301685E0FE013196ACE5B3E0D2
:1056A00001900D928A95E1F70E94510A9091610351
:1056B000891721F00E94510A8093610380919D0314
:1056C000843009F084CE85E08093E9008091E80081
:1056D00082FF7DCE8091E80090E085FF06C00E94A9
:1056E0007B05882309F431C191E08091E8008B7734
:1056F0008093E800992309F46ACE1981111141C100
:1057000080917703882309F457C11092770381E0D1
:105710008093760322961FAE229723961FAE23977F
:105720008EEF24968FAF249763E0CE018F5B9F4F5F
:105730000E944B074CCE80919D03843009F43DC0FC
:10574000109238030FB6F894A895C09260000FBE6F
:10575000F09260001092550380913A03811116C0B7
:1057600050923A0380914F03982F91709093390390
:105770008E7F80934F034FEF80E792E0415080404F
:105780009040E1F700C000000E94511083B7817F74
:10579000846083BF83B7816083BF7894889583B723
:1057A0008E7F83BF0FB6F894A895809160008861C2
:1057B00080936000109260000FBE80919C0388234C
:1057C00009F412CE0E947B1490E090935D018093C7
:1057D0005C010E94FF0D0E940E0EEBE3F3E01192BC
:1057E000AE16BF06E1F70E942427EBE3F3E08191B8
:1057F000811122C1EE12FBCFF7CD9F5FFF0C9630D7
:1058000009F017CE0F5F1F4F0E30110509F006CEBD
:105810008FEF66968FAF669767968FAF679768969C
:105820001FAE68970E9424168160782F6A969FAFFA
:105830008EAF6A9766964FAD669767965FAD67972E
:1058400068966FAD68976A968FAD6A970E949726A3
:105850001DCE863059F4F0E0EC56F74FE4910E2F50
:1058600010E0EBE7EE2EE3E1FE2E2ACE893061F464
:10587000E695F0E0EF56F74FE4910E2F10E07FE44D
:10588000E72E71E1F72E1CCE8F3061F4E695F0E043
:10589000E257F74FE4910E2F10E069E7E62E61E141
:1058A000F62E0ECE853159F4F0E0E557F74FE4912E
:1058B0000E2F10E058EEE52E51E1F52E01CE08E254
:1058C00010E028E3E22E22E1F22E883109F4F8CD2F
:1058D000833249F4E9E8F8E0059114914CE0E42EB4
:1058E00043E1F42EEDCD04EF11E091ECE92E92E1CD
:1058F000F92E843209F4E4CD853281F48E2F63E0F1
:105900000E941B2EE92FF0E0EA57F74FE4910E2F8B
:1059100010E036ECE32E30E1F32ED2CD00ED17E0AF
:1059200087E4E82E87E0F82ECBCD81E080935D03FD
:105930004FCE81E080935E0354CE81E080935F037D
:1059400093CE81E08093600398CE00E410E0CE0116
:1059500001967C018091E80085FD0AC08091E800F5
:105960008B778093E8000E947B05882399F3BCCE57
:105970008091F100F70181937F010150110951F7E6
:10598000B3CE1130C9F422961FAE229723961FAFD3
:1059900023978CE0E9E6F1E0D40101900D928A951D
:1059A000E1F78EEF60968FAF60976FE0CE018F5B6F
:1059B0009F4F0E944B070BCD809176038823D1F136
:1059C000123041F01330F9F081E022968FAF229728
:1059D00061E0ABCE609171037091720380917303AB
:1059E000909174030E94FF0822961FAE229723967F
:1059F0001FAF239724968FAF24978EEF25968FAFF6
:105A0000259764E092CE8A81813041F0882341F06D
:105A10008230D1F681E08093750302C01092750345
:105A200022961FAE229783E023968FAF2397809113
:105A30007503E0CF8FEFC9CF09BD19BD09B400FED2
:105A4000FDCF8091D8008F7D8093D8008091E000B9
:105A500082608093E0008091E00081FDFCCF0E9495
:105A60007B16C2CC2139314008F0D0CD06CE232B95
:105A700009F080CDB6CD1F921FB61F9211248F93CF
:105A80009F93AF93BF9380913803811113C080918E
:105A90001A0390911B03A0911C03B0911D03419622
:105AA000A11DB11D80931A0390931B03A0931C03A7
:105AB000B0931D03BF91AF919F918F911F901FBE17
:105AC0001F9018951092B9008CE08093B80008954B
:105AD000EF92FF920F931F93CF93DF93182FEB0159
